{
  "address": "0xD5E112003F17B536b505e710083B25cf4e9C8c01",
  "abi": [
    {
      "inputs": [
        {
          "internalType": "address",
          "name": "router",
          "type": "address"
        }
      ],
      "stateMutability": "nonpayable",
      "type": "constructor"
    },
    {
      "inputs": [],
      "name": "EmptyArgs",
      "type": "error"
    },
    {
      "inputs": [],
      "name": "EmptySecrets",
      "type": "error"
    },
    {
      "inputs": [],
      "name": "EmptySource",
      "type": "error"
    },
    {
      "inputs": [],
      "name": "NoInlineSecrets",
      "type": "error"
    },
    {
      "inputs": [],
      "name": "OnlyRouterCanFulfill",
      "type": "error"
    },
    {
      "anonymous": false,
      "inputs": [
        {
          "indexed": true,
          "internalType": "address",
          "name": "user",
          "type": "address"
        },
        {
          "indexed": true,
          "internalType": "bytes32",
          "name": "requestId",
          "type": "bytes32"
        },
        {
          "indexed": false,
          "internalType": "string[]",
          "name": "products",
          "type": "string[]"
        }
      ],
      "name": "AIRecommendationFulfilled",
      "type": "event"
    },
    {
      "anonymous": false,
      "inputs": [
        {
          "indexed": true,
          "internalType": "address",
          "name": "user",
          "type": "address"
        },
        {
          "indexed": true,
          "internalType": "bytes32",
          "name": "requestId",
          "type": "bytes32"
        },
        {
          "indexed": false,
          "internalType": "string",
          "name": "query",
          "type": "string"
        }
      ],
      "name": "AIRecommendationRequested",
      "type": "event"
    },
    {
      "anonymous": false,
      "inputs": [
        {
          "indexed": true,
          "internalType": "bytes32",
          "name": "id",
          "type": "bytes32"
        }
      ],
      "name": "RequestFulfilled",
      "type": "event"
    },
    {
      "anonymous": false,
      "inputs": [
        {
          "indexed": true,
          "internalType": "bytes32",
          "name": "id",
          "type": "bytes32"
        }
      ],
      "name": "RequestSent",
      "type": "event"
    },
    {
      "inputs": [],
      "name": "bedrockSource",
      "outputs": [
        {
          "internalType": "string",
          "name": "",
          "type": "string"
        }
      ],
      "stateMutability": "view",
      "type": "function"
    },
    {
      "inputs": [],
      "name": "donId",
      "outputs": [
        {
          "internalType": "bytes32",
          "name": "",
          "type": "bytes32"
        }
      ],
      "stateMutability": "view",
      "type": "function"
    },
    {
      "inputs": [],
      "name": "gasLimit",
      "outputs": [
        {
          "internalType": "uint32",
          "name": "",
          "type": "uint32"
        }
      ],
      "stateMutability": "view",
      "type": "function"
    },
    {
      "inputs": [
        {
          "internalType": "bytes32",
          "name": "requestId",
          "type": "bytes32"
        },
        {
          "internalType": "bytes",
          "name": "response",
          "type": "bytes"
        },
        {
          "internalType": "bytes",
          "name": "err",
          "type": "bytes"
        }
      ],
      "name": "handleOracleFulfillment",
      "outputs": [],
      "stateMutability": "nonpayable",
      "type": "function"
    },
    {
      "inputs": [
        {
          "internalType": "bytes32",
          "name": "",
          "type": "bytes32"
        }
      ],
      "name": "recommendations",
      "outputs": [
        {
          "internalType": "address",
          "name": "user",
          "type": "address"
        },
        {
          "internalType": "string",
          "name": "query",
          "type": "string"
        },
        {
          "internalType": "uint256",
          "name": "timestamp",
          "type": "uint256"
        },
        {
          "internalType": "bytes32",
          "name": "requestId",
          "type": "bytes32"
        }
      ],
      "stateMutability": "view",
      "type": "function"
    },
    {
      "inputs": [
        {
          "internalType": "string",
          "name": "query",
          "type": "string"
        },
        {
          "internalType": "string",
          "name": "preferencesJson",
          "type": "string"
        }
      ],
      "name": "requestAIRecommendation",
      "outputs": [
        {
          "internalType": "bytes32",
          "name": "requestId",
          "type": "bytes32"
        }
      ],
      "stateMutability": "nonpayable",
      "type": "function"
    },
    {
      "inputs": [
        {
          "internalType": "bytes32",
          "name": "_donId",
          "type": "bytes32"
        }
      ],
      "name": "setDonId",
      "outputs": [],
      "stateMutability": "nonpayable",
      "type": "function"
    },
    {
      "inputs": [
        {
          "internalType": "uint32",
          "name": "_gasLimit",
          "type": "uint32"
        }
      ],
      "name": "setGasLimit",
      "outputs": [],
      "stateMutability": "nonpayable",
      "type": "function"
    },
    {
      "inputs": [
        {
          "internalType": "uint64",
          "name": "_subscriptionId",
          "type": "uint64"
        }
      ],
      "name": "setSubscriptionId",
      "outputs": [],
      "stateMutability": "nonpayable",
      "type": "function"
    },
    {
      "inputs": [],
      "name": "subscriptionId",
      "outputs": [
        {
          "internalType": "uint64",
          "name": "",
          "type": "uint64"
        }
      ],
      "stateMutability": "view",
      "type": "function"
    },
    {
      "inputs": [
        {
          "internalType": "address",
          "name": "",
          "type": "address"
        },
        {
          "internalType": "uint256",
          "name": "",
          "type": "uint256"
        }
      ],
      "name": "userRecommendations",
      "outputs": [
        {
          "internalType": "bytes32",
          "name": "",
          "type": "bytes32"
        }
      ],
      "stateMutability": "view",
      "type": "function"
    }
  ],
  "transactionHash": "0x47c8596e32d2c9f2b07a3020493dbce91a374dc4dd24ed44488e8ff7e4f436ec",
  "args": [
    "0xb83E47C2bC239B3bf370bc41e1459A34b41238D0"
  ],
  "numDeployments": 1,
  "solcInputHash": "5043ce020989be5c2390dfac1ae9b274",
  "bytecode": "0x60a0346200040957601f6200235b38819003918201601f19168301916001600160401b038311848410176200040e578084926020946040528339810103126200040957516001600160a01b0381169081900362000409576080526a0493e000000000000000006bffffffff000000000000000019600254161760025560048054906001918281811c91168015620003fe575b6020821014620003e957601f8111620003b7575b6d73706f6e73652e6461746129293b60901b6013847f535f5345435245545f4b45593b2f2f2043616c6c20416d617a6f6e2042656472856104dd8155806000527f6572656e636573203d204a534f4e2e706172736528617267735b315d293b636f6020600020937f636f6e7374207175657279203d20617267735b305d3b636f6e7374207072656685558401557f6e7374206170694b6579203d20736563726574732e4157535f4143434553535f60028401557f4b45593b636f6e7374207365637265744b6579203d20736563726574732e415760038401558201557f6f636b20415049636f6e737420626564726f636b526573706f6e7365203d206160058201557f776169742046756e6374696f6e732e6d616b654874747052657175657374287b60068201557f202075726c3a202768747470733a2f2f626564726f636b2d72756e74696d652e60078201557f75732d656173742d312e616d617a6f6e6177732e636f6d2f6d6f64656c2f616e60088201557f7468726f7069632e636c617564652d332d6861696b752d32303234303330372d60098201557f76313a302f696e766f6b65272c20206d6574686f643a2027504f5354272c2020600a8201557f686561646572733a207b2020202027436f6e74656e742d54797065273a202761600b8201557f70706c69636174696f6e2f6a736f6e272c2020202027417574686f72697a6174600c8201557f696f6e273a2060415753342d484d41432d5348413235362043726564656e7469600d8201557f616c3d247b6170694b65797d2f2e2e2e6020207d2c2020646174613a207b2020600e8201557f202070726f6d70743a206046696e64207375737461696e61626c652070726f64600f8201557f756374733a20247b71756572797d602c202020206d61785f746f6b656e733a2060108201557f3130303020207d7d293b72657475726e2046756e6374696f6e732e656e636f6460118201557f65537472696e67284a534f4e2e737472696e6769667928626564726f636b526560128201550155604051611f36908162000425823960805181818161022d0152610ec80152f35b816000526014601f6020600020920160051c820191015b818110620003dd5750620000a5565b600081558301620003ce565b602282634e487b7160e01b6000525260246000fd5b90607f169062000091565b600080fd5b634e487b7160e01b600052604160045260246000fdfe6080604052600436101561001257600080fd5b60003560e01c806309c1ba2e146100c75780630ca76175146100c25780632d22a2f9146100bd57806352d84c62146100b857806378ca5de7146100b35780638dbe7b9d146100ae578063c0b6391a146100a9578063d831c472146100a4578063ea7b4f771461009f578063eed06a1f1461009a5763f68016b71461009557600080fd5b610893565b6107c9565b610779565b6105df565b610563565b61038a565b610371565b61032b565b6102d1565b6101de565b346100f05760003660031901126100f0576002546040516001600160401b039091168152602090f35b600080fd5b634e487b7160e01b600052604160045260246000fd5b604081019081106001600160401b0382111761012657604052565b6100f5565b602081019081106001600160401b0382111761012657604052565b601f909101601f19168101906001600160401b0382119082101761012657604052565b6040519060c082016001600160401b0381118382101761012657604052565b81601f820112156100f0578035906001600160401b03821161012657604051926101bc601f8401601f191660200185610146565b828452602083830101116100f057816000926020809301838601378301015290565b346100f05760603660031901126100f0576004356001600160401b036024358181116100f057610212903690600401610188565b506044359081116100f05761022b903690600401610188565b7f00000000000000000000000000000000000000000000000000000000000000006001600160a01b0316330361028c576102659082611de0565b7f85e1543bf2f84fe80c6badbce3648c8539ad1df4d2b3d822938ca0538be727e6600080a2005b60405163c6829f8360e01b8152600490fd5b634e487b7160e01b600052603260045260246000fd5b80548210156102cc5760005260206000200190600090565b61029e565b346100f05760403660031901126100f0576004356001600160a01b038116908190036100f057602435906000526001602052604060002080548210156100f05760209161031d916102b4565b90546040519160031b1c8152f35b346100f05760203660031901126100f05760043563ffffffff811681036100f0576002805463ffffffff60401b191660409290921b63ffffffff60401b16919091179055005b346100f05760203660031901126100f057600435600355005b346100f05760003660031901126100f0576020600354604051908152f35b90600182811c921680156103d8575b60208310146103c257565b634e487b7160e01b600052602260045260246000fd5b91607f16916103b7565b90600092918054916103f3836103a8565b9182825260019384811690816000146104555750600114610415575b50505050565b90919394506000526020928360002092846000945b83861061044157505050500101903880808061040f565b80548587018301529401938590820161042a565b9294505050602093945060ff191683830152151560051b0101903880808061040f565b604051906000826004549161048c836103a8565b80835260019380851690811561050257506001146104b4575b506104b292500383610146565b565b60046000908152600080516020611ee183398151915294602093509091905b8183106104ea5750506104b29350820101386104a5565b855488840185015294850194879450918301916104d3565b90506104b294506020925060ff191682840152151560051b820101386104a5565b919082519283825260005b84811061054f575050826000602080949584010152601f8019910116010190565b60208183018101518483018201520161052e565b346100f05760203660031901126100f0576004356000526000602052604060002060018060a01b03815416604051916105aa836105a381600185016103e2565b0384610146565b600360028201549101546105d06040519485948552608060208601526080850190610523565b91604084015260608301520390f35b346100f05760403660031901126100f0576001600160401b036004358181116100f057610610903690600401610188565b6024358281116100f057610775926106a86106326106c2933690600401610188565b61068761063d6108ba565b9161064f610649610478565b84611270565b610657610903565b90876106628361098f565b5261066c8261098f565b506106768261099c565b526106808161099c565b50826112bf565b6106986106926109c0565b82611299565b6106a36106926109ea565b61109d565b600254906003549263ffffffff8360401c16921690610e6d565b80916107186106cf610947565b6106d7610a14565b6106df610169565b33815291846020840152426040840152856060840152608083015260a0820152610713846000526000602052604060002090565b610ce2565b336000908152600160205260409020610732908390610e1d565b7fdaf10ce978b51235f131b972c21e0ec793e2b114d2b88650ed00326539e6a3d3604051806107623394826107b5565b0390a36040519081529081906020820190565b0390f35b346100f05760203660031901126100f0576004356001600160401b038116908190036100f057600280546001600160401b031916919091179055005b9060206107c6928181520190610523565b90565b346100f05760008060031936011261089057604051816004546107eb816103a8565b808452906001908181169081156108685750600114610821575b6107758461081581880382610146565b604051918291826107b5565b6004835260209450600080516020611ee18339815191525b8284106108555750505081610775936108159282010193610805565b8054858501870152928501928101610839565b61077596506108159450602092508593915060ff191682840152151560051b82010193610805565b80fd5b346100f05760003660031901126100f057602060025463ffffffff6040519160401c168152f35b6040519060e082016001600160401b0381118382101761012657604052606060c08360008152600060208201526000604082015282808201528260808201528260a08201520152565b60408051919060608084016001600160401b03811185821017610126578252600284528360005b8381106109375750505050565b808360208093850101520161092a565b6040516109538161012b565b6000815290565b6040516109668161010b565b600181528060005b6020808210156109895790606060209282850101520161096e565b50505090565b8051156102cc5760200190565b8051600110156102cc5760400190565b80518210156102cc5760209160051b010190565b604051906109cd8261010b565b600e82526d4157535f4143434553535f4b455960901b6020830152565b604051906109f78261010b565b600e82526d4157535f5345435245545f4b455960901b6020830152565b604051610a208161012b565b60008152906000368137565b818110610a37575050565b60008155600101610a2c565b9190601f8111610a5257505050565b6104b2926000526020600020906020601f840160051c83019310610a7e575b601f0160051c0190610a2c565b9091508190610a71565b81519192916001600160401b03811161012657610aaf81610aa984546103a8565b84610a43565b602080601f8311600114610aeb575081929394600092610ae0575b50508160011b916000199060031b1c1916179055565b015190503880610aca565b90601f19831695610b0185600052602060002090565b926000905b888210610b3e57505083600195969710610b25575b505050811b019055565b015160001960f88460031b161c19169055388080610b1b565b80600185968294968601518155019501930190610b06565b634e487b7160e01b600052601160045260246000fd5b908160011b9180830460021490151715610b8257565b610b56565b815191600160401b8311610126578154838355808410610be5575b50610bb7602080920192600052602060002090565b6000925b848410610bc9575050505050565b60018382610bd983945186610a88565b01920193019290610bbb565b6000838152846020822092830192015b828110610c03575050610ba2565b80610c10600192546103a8565b80610c1d575b5001610bf5565b601f908181118414610c355750508281555b38610c16565b83610c5792610c4985600052602060002090565b920160051c82019101610a2c565b60008181526020812081835555610c2f565b8151916001600160401b03831161012657600160401b8311610126578154838355808410610cc4575b50602080910191600052806000209060005b848110610cb2575050505050565b83518382015592810192600101610ca4565b610cdc90836000528460206000209182019101610a2c565b38610c92565b815181546001600160a01b0319166001600160a01b03919091161781556020808301518051909391600184810192916001600160401b03831161012657610d3383610d2d86546103a8565b86610a43565b80601f8411600114610da2575091808060a09593600597956104b29a600094610d97575b50501b916000199060031b1c19161790555b6040810151600285015560608101516003850155610d8e608082015160048601610b87565b01519101610c69565b015192503880610d57565b9193949596601f198416610dbb87600052602060002090565b936000905b828210610e065750509260a0959285926104b29a99966005999610610ded575b505050811b019055610d69565b015160001960f88460031b161c19169055388080610de0565b808886978294978701518155019601940190610dc0565b8054600160401b81101561012657610e3a916001820181556102b4565b819291549060031b91821b91600019901b1916179055565b908160209103126100f0575190565b6040513d6000823e3d90fd5b60405163230e93b160e11b81526001600160401b03909216600483015260a060248301529092602092849283929063ffffffff90610eaf9060a4860190610523565b60016044860152921660648401526084830152038160007f00000000000000000000000000000000000000000000000000000000000000006001600160a01b03165af1908115610f5957600091610f2b575b50807f1131472297a800fee664d1d89cfa8f7676ff07189ecc53f80bbb5f4969099db8600080a290565b610f4c915060203d8111610f52575b610f448183610146565b810190610e52565b38610f01565b503d610f3a565b610e61565b60405190610f6b8261010b565b600c82526b31b7b232a637b1b0ba34b7b760a11b6020830152565b634e487b7160e01b600052602160045260246000fd5b60031115610fa657565b610f86565b60405190610fb88261010b565b60088252676c616e677561676560c01b6020830152565b60011115610fa657565b60405190610fe68261010b565b6006825265736f7572636560d01b6020830152565b604051906110088261010b565b60048252636172677360e01b6020830152565b6000198114610b825760010190565b604051906110378261010b565b600f82526e39b2b1b932ba39a637b1b0ba34b7b760891b6020830152565b604051906110628261010b565b60078252667365637265747360c81b6020830152565b604051906110858261010b565b600982526862797465734172677360b81b6020830152565b6110a56112f8565b906110b76110b1610f5e565b83611a3a565b6110d481516110c581610f9c565b6110ce81610f9c565b836113c4565b6110df6110b1610fab565b6110f960408201516110f081610fcf565b6110ce81610fcf565b6111046110b1610fd9565b611112606082015183611a3a565b60a08101805151611217575b506080810190815151611197575b60c091500180515161113f575b50515190565b9161114b6110b1611078565b61115482611abe565b60005b83518051821015611184579061117a6111738261117f946109ac565b5185611985565b61101b565b611157565b5050915061119181611b4a565b38611139565b6020810180516111a681610f9c565b6111af81610f9c565b156112055760c0926111e8611200926111cf6111c961102a565b88611a3a565b516111d981610f9c565b6111e281610f9c565b866113c4565b6111f96111f3611055565b86611a3a565b5184611985565b61112c565b60405163a80d31f760e01b8152600490fd5b92611229611223610ffb565b84611a3a565b61123283611abe565b60005b8451805182101561125d579061117a61125182611258946109ac565b5186611a3a565b611235565b5050925061126a82611b4a565b3861111e565b815115611287576000808252604082015260600152565b6040516322ce3edd60e01b8152600490fd5b8151156112ad576001602082015260800152565b60405163e889636f60e01b8152600490fd5b8151156112cc5760a00152565b60405163fe936cb760e01b8152600490fd5b604051906112eb8261010b565b6000602083606081520152565b6040516113048161010b565b61130c6112de565b808252602082016000815261131f6112de565b5061010060208301526040518092526000825261012082019182106100f0576000916040525290565b601f19810191908211610b8257565b9060208201809211610b8257565b91908201809211610b8257565b9061137b6112de565b50601f8116806113aa575b50806020830152604051908183526000825281016020019081106100f05760405290565b60200360208111610b82578101809111610b825738611386565b908151916113d06112de565b508251516001810190818111610b82576020850151811015611429575b60c260206104b29651928301015380518211611421575b50506040519160208301526020825261141c8261010b565b611985565b523880611404565b8160011b9482860460021483151715610b825760208161145b6104b29861145460c295519184611372565b50826118cd565b50965050506113ed565b61146d6112de565b508051516001810190818111610b825760208301518110156114a6575b605b602084519283010153805182116114a257505090565b5290565b8160011b82810460021483151715610b82576114cf906114c885519186611372565b50846118cd565b5061148a565b6114dd6112de565b508051516001810190818111610b82576020830151811015611512575b605a602084519283010153805182116114a257505090565b8160011b82810460021483151715610b8257611534906114c885519186611372565b506114fa565b6115426112de565b508051516001810190818111610b82576020830151811015611577575b6059602084519283010153805182116114a257505090565b8160011b82810460021483151715610b8257611599906114c885519186611372565b5061155f565b6115a76112de565b508051516001810190818111610b825760208301518110156115dc575b6058602084519283010153805182116114a257505090565b8160011b82810460021483151715610b82576115fe906114c885519186611372565b506115c4565b61160c6112de565b508051516001810190818111610b82576020830151811015611641575b607b602084519283010153805182116114a257505090565b8160011b82810460021483151715610b8257611663906114c885519186611372565b50611629565b6116716112de565b508051516001810190818111610b825760208301518110156116a6575b607a602084519283010153805182116114a257505090565b8160011b82810460021483151715610b82576116c8906114c885519186611372565b5061168e565b6116d66112de565b508051516001810190818111610b8257602083015181101561170b575b6079602084519283010153805182116114a257505090565b8160011b82810460021483151715610b825761172d906114c885519186611372565b506116f3565b61173b6112de565b508051516001810190818111610b82576020830151811015611770575b6078602084519283010153805182116114a257505090565b8160011b82810460021483151715610b8257611792906114c885519186611372565b50611758565b906117a16112de565b508151516001810191828211610b825760208401518210156117d4575b602084519283010153805182116114a257505090565b8260011b83810460021484151715610b82576117fd906117f686519187611372565b50856118cd565b506117be565b9061181082519183611372565b506118196112de565b508051906118256112de565b50611833815183111561197e565b825151926118418385611365565b9160209282848094015182116118b6575b51838151978201019682116118ae575b505001915b818110156118885760001991036101000a0190811990511690825116179052565b91926118a361189d6118a99286518152611357565b94611357565b92611348565b611867565b523880611862565b6118c86118c283610b6c565b82611803565b611852565b906118d66112de565b5080516118e16112de565b506118ef825182111561197e565b825151916118fd8284611365565b6020918291828701518111611967575b86518381519782010196821161195f575b505001915b818110156119455760001991036101000a019081199051169082511617905290565b91926118a361189d61195a9286518152611357565b611923565b52388061191e565b61197961197382610b6c565b88611803565b61190d565b156100f057565b81516119bc9291906001600160401b03811690601782116119bf576119b49150604060ff845192161790611798565b505b516118cd565b50565b5060ff81116119e4576119de906119d6835161159f565b508251611d14565b506119b6565b61ffff8111611a03576119de906119fb835161153a565b508251611cad565b63ffffffff8111611a24576119de90611a1c83516114d5565b508251611c44565b6119de90611a328351611465565b508251611bd7565b81516119bc9291906001600160401b0381169060178211611a69576119b49150606060ff845192161790611798565b5060ff8111611a80576119de906119d68351611733565b61ffff8111611a97576119de906119fb83516116ce565b63ffffffff8111611ab0576119de90611a1c8351611669565b6119de90611a328351611604565b805190611ac96112de565b508151516001810190818111610b82576020840151811015611b17575b609f6020809551928301015380518211611b0f575b50500180519060018201809211610b825752565b523880611afb565b8160011b9382850460021483151715610b8257602081611b408297611454609f95519184611372565b5095505050611ae6565b805190611b556112de565b508151516001810190818111610b82576020840151811015611ba4575b60ff6020809551928301015380518211611b9c575b5050018051600019810191908211610b825752565b523880611b87565b8160011b9382850460021483151715610b8257602081611bcd829761145460ff95519184611372565b5095505050611b72565b90611be06112de565b50815151806008019182600811610b825760208401518311611c23575b835191820160080180516001600160401b0319169091179052805182116114a257505090565b8260011b83810460021484151715610b8257611c3f9085611803565b611bfd565b90611c4d6112de565b50815151806004019182600411610b825760208401518311611c8c575b60048451928301019063ffffffff19825116179052805182116114a257505090565b8260011b83810460021484151715610b8257611ca89085611803565b611c6a565b90611cb66112de565b50815151806002019182600211610b825760208401518311611cf3575b60028451928301019061ffff19825116179052805182116114a257505090565b8260011b83810460021484151715610b8257611d0f9085611803565b611cd3565b90611d1d6112de565b50815151806001019182600111610b825760208401518311611d59575b60018451928301019060ff19825116179052805182116114a257505090565b8260011b83810460021484151715610b8257611d759085611803565b611d3a565b6020808201908083528354809252604083019260408360051b8201019460005281600020936000915b848310611db35750505050505090565b909192939495846001611dd08193603f198682030187528a6103e2565b9801930193019194939290611da3565b9081600052600060205260406000209051611eb557611dfd61095a565b90604051611e0a8161010b565b601381527214dd5cdd185a5b98589b1948141c9bd91d58dd606a1b60208201528251156102cc5760208301528151156102cc57611eb0611ea3611e9783611e7660047f30d9d4d72a10f669e7876e3a34fad92274e934bdfd62a43bb54d6af015e275e496019687610b87565b611e8a611e81611eb9565b60058301610c69565b546001600160a01b031690565b6001600160a01b031690565b9260405191829182611d7a565b0390a3565b5050565b604051611ec58161010b565b600181526020810160203682378151156102cc57605590529056fe8a35acfbc15ff81a39ae7d344fd709f28e8600b4aa8c65c6b64bfe7fe36bd19ba2646970667358221220c686cc448f62ff7c43585f48aba5fd4b06f2cb8ea9586816366f58e19822d92364736f6c63430008140033",
  "devdoc": {
    "kind": "dev",
    "methods": {
      "handleOracleFulfillment(bytes32,bytes,bytes)": {
        "details": "Either response or error parameter will be set, but never both.",
        "params": {
          "err": "Aggregated error either from the request's source code or from the execution pipeline.",
          "requestId": "The requestId returned by FunctionsClient.sendRequest().",
          "response": "Aggregated response from the request's source code."
        }
      }
    },
    "version": 1
  },
  "userdoc": {
    "kind": "user",
    "methods": {
      "handleOracleFulfillment(bytes32,bytes,bytes)": {
        "notice": "Chainlink Functions response handler called by the Functions Router during fullilment from the designated transmitter node in an OCR round."
      }
    },
    "version": 1
  },
  "storageLayout": {
    "storage": [
      {
        "astId": 4101,
        "contract": "contracts/AIMarketplace.sol:AIMarketplace",
        "label": "recommendations",
        "offset": 0,
        "slot": "0",
        "type": "t_mapping(t_bytes32,t_struct(AIRecommendation)4096_storage)"
      },
      {
        "astId": 4106,
        "contract": "contracts/AIMarketplace.sol:AIMarketplace",
        "label": "userRecommendations",
        "offset": 0,
        "slot": "1",
        "type": "t_mapping(t_address,t_array(t_bytes32)dyn_storage)"
      },
      {
        "astId": 4108,
        "contract": "contracts/AIMarketplace.sol:AIMarketplace",
        "label": "subscriptionId",
        "offset": 0,
        "slot": "2",
        "type": "t_uint64"
      },
      {
        "astId": 4111,
        "contract": "contracts/AIMarketplace.sol:AIMarketplace",
        "label": "gasLimit",
        "offset": 8,
        "slot": "2",
        "type": "t_uint32"
      },
      {
        "astId": 4113,
        "contract": "contracts/AIMarketplace.sol:AIMarketplace",
        "label": "donId",
        "offset": 0,
        "slot": "3",
        "type": "t_bytes32"
      },
      {
        "astId": 4116,
        "contract": "contracts/AIMarketplace.sol:AIMarketplace",
        "label": "bedrockSource",
        "offset": 0,
        "slot": "4",
        "type": "t_string_storage"
      }
    ],
    "types": {
      "t_address": {
        "encoding": "inplace",
        "label": "address",
        "numberOfBytes": "20"
      },
      "t_array(t_bytes32)dyn_storage": {
        "base": "t_bytes32",
        "encoding": "dynamic_array",
        "label": "bytes32[]",
        "numberOfBytes": "32"
      },
      "t_array(t_string_storage)dyn_storage": {
        "base": "t_string_storage",
        "encoding": "dynamic_array",
        "label": "string[]",
        "numberOfBytes": "32"
      },
      "t_array(t_uint256)dyn_storage": {
        "base": "t_uint256",
        "encoding": "dynamic_array",
        "label": "uint256[]",
        "numberOfBytes": "32"
      },
      "t_bytes32": {
        "encoding": "inplace",
        "label": "bytes32",
        "numberOfBytes": "32"
      },
      "t_mapping(t_address,t_array(t_bytes32)dyn_storage)": {
        "encoding": "mapping",
        "key": "t_address",
        "label": "mapping(address => bytes32[])",
        "numberOfBytes": "32",
        "value": "t_array(t_bytes32)dyn_storage"
      },
      "t_mapping(t_bytes32,t_struct(AIRecommendation)4096_storage)": {
        "encoding": "mapping",
        "key": "t_bytes32",
        "label": "mapping(bytes32 => struct AIMarketplace.AIRecommendation)",
        "numberOfBytes": "32",
        "value": "t_struct(AIRecommendation)4096_storage"
      },
      "t_string_storage": {
        "encoding": "bytes",
        "label": "string",
        "numberOfBytes": "32"
      },
      "t_struct(AIRecommendation)4096_storage": {
        "encoding": "inplace",
        "label": "struct AIMarketplace.AIRecommendation",
        "members": [
          {
            "astId": 4083,
            "contract": "contracts/AIMarketplace.sol:AIMarketplace",
            "label": "user",
            "offset": 0,
            "slot": "0",
            "type": "t_address"
          },
          {
            "astId": 4085,
            "contract": "contracts/AIMarketplace.sol:AIMarketplace",
            "label": "query",
            "offset": 0,
            "slot": "1",
            "type": "t_string_storage"
          },
          {
            "astId": 4087,
            "contract": "contracts/AIMarketplace.sol:AIMarketplace",
            "label": "timestamp",
            "offset": 0,
            "slot": "2",
            "type": "t_uint256"
          },
          {
            "astId": 4089,
            "contract": "contracts/AIMarketplace.sol:AIMarketplace",
            "label": "requestId",
            "offset": 0,
            "slot": "3",
            "type": "t_bytes32"
          },
          {
            "astId": 4092,
            "contract": "contracts/AIMarketplace.sol:AIMarketplace",
            "label": "recommendedProducts",
            "offset": 0,
            "slot": "4",
            "type": "t_array(t_string_storage)dyn_storage"
          },
          {
            "astId": 4095,
            "contract": "contracts/AIMarketplace.sol:AIMarketplace",
            "label": "sustainabilityScores",
            "offset": 0,
            "slot": "5",
            "type": "t_array(t_uint256)dyn_storage"
          }
        ],
        "numberOfBytes": "192"
      },
      "t_uint256": {
        "encoding": "inplace",
        "label": "uint256",
        "numberOfBytes": "32"
      },
      "t_uint32": {
        "encoding": "inplace",
        "label": "uint32",
        "numberOfBytes": "4"
      },
      "t_uint64": {
        "encoding": "inplace",
        "label": "uint64",
        "numberOfBytes": "8"
      }
    }
  }
}