{
  "address": "0x959591Bab069599cAbb2A72AA371503ba2d042FF",
  "abi": [
    {
      "inputs": [
        {
          "internalType": "address",
          "name": "_productRegistry",
          "type": "address"
        },
        {
          "internalType": "address",
          "name": "_aiRecommendations",
          "type": "address"
        },
        {
          "internalType": "address",
          "name": "_usdcToken",
          "type": "address"
        },
        {
          "internalType": "address",
          "name": "_functionsRouter",
          "type": "address"
        },
        {
          "internalType": "address",
          "name": "_vrfCoordinator",
          "type": "address"
        },
        {
          "internalType": "uint64",
          "name": "_vrfSubscriptionId",
          "type": "uint64"
        },
        {
          "internalType": "bytes32",
          "name": "_gasLane",
          "type": "bytes32"
        },
        {
          "internalType": "uint32",
          "name": "_callbackGasLimit",
          "type": "uint32"
        },
        {
          "internalType": "address",
          "name": "_ccipRouter",
          "type": "address"
        },
        {
          "internalType": "address",
          "name": "_feeRecipient",
          "type": "address"
        }
      ],
      "stateMutability": "nonpayable",
      "type": "constructor"
    },
    {
      "inputs": [],
      "name": "AccessControlBadConfirmation",
      "type": "error"
    },
    {
      "inputs": [
        {
          "internalType": "address",
          "name": "account",
          "type": "address"
        },
        {
          "internalType": "bytes32",
          "name": "neededRole",
          "type": "bytes32"
        }
      ],
      "name": "AccessControlUnauthorizedAccount",
      "type": "error"
    },
    {
      "inputs": [
        {
          "internalType": "address",
          "name": "target",
          "type": "address"
        }
      ],
      "name": "AddressEmptyCode",
      "type": "error"
    },
    {
      "inputs": [
        {
          "internalType": "address",
          "name": "account",
          "type": "address"
        }
      ],
      "name": "AddressInsufficientBalance",
      "type": "error"
    },
    {
      "inputs": [],
      "name": "EmptyArgs",
      "type": "error"
    },
    {
      "inputs": [],
      "name": "EmptySource",
      "type": "error"
    },
    {
      "inputs": [],
      "name": "EnforcedPause",
      "type": "error"
    },
    {
      "inputs": [],
      "name": "ExpectedPause",
      "type": "error"
    },
    {
      "inputs": [],
      "name": "FailedInnerCall",
      "type": "error"
    },
    {
      "inputs": [
        {
          "internalType": "address",
          "name": "router",
          "type": "address"
        }
      ],
      "name": "InvalidRouter",
      "type": "error"
    },
    {
      "inputs": [],
      "name": "NoInlineSecrets",
      "type": "error"
    },
    {
      "inputs": [
        {
          "internalType": "address",
          "name": "have",
          "type": "address"
        },
        {
          "internalType": "address",
          "name": "want",
          "type": "address"
        }
      ],
      "name": "OnlyCoordinatorCanFulfill",
      "type": "error"
    },
    {
      "inputs": [],
      "name": "OnlyRouterCanFulfill",
      "type": "error"
    },
    {
      "inputs": [],
      "name": "ReentrancyGuardReentrantCall",
      "type": "error"
    },
    {
      "inputs": [
        {
          "internalType": "address",
          "name": "token",
          "type": "address"
        }
      ],
      "name": "SafeERC20FailedOperation",
      "type": "error"
    },
    {
      "anonymous": false,
      "inputs": [
        {
          "indexed": true,
          "internalType": "uint256",
          "name": "disputeId",
          "type": "uint256"
        },
        {
          "indexed": false,
          "internalType": "bytes32",
          "name": "requestId",
          "type": "bytes32"
        },
        {
          "indexed": false,
          "internalType": "bytes",
          "name": "analysis",
          "type": "bytes"
        }
      ],
      "name": "AIDisputeAnalysisReceived",
      "type": "event"
    },
    {
      "anonymous": false,
      "inputs": [
        {
          "indexed": true,
          "internalType": "uint256",
          "name": "disputeId",
          "type": "uint256"
        },
        {
          "indexed": false,
          "internalType": "bytes32",
          "name": "requestId",
          "type": "bytes32"
        }
      ],
      "name": "AIDisputeAnalysisRequested",
      "type": "event"
    },
    {
      "anonymous": false,
      "inputs": [
        {
          "indexed": true,
          "internalType": "uint256",
          "name": "disputeId",
          "type": "uint256"
        },
        {
          "indexed": false,
          "internalType": "address[]",
          "name": "arbitrators",
          "type": "address[]"
        },
        {
          "indexed": false,
          "internalType": "uint256",
          "name": "vrfRequestId",
          "type": "uint256"
        }
      ],
      "name": "ArbitratorsSelected",
      "type": "event"
    },
    {
      "anonymous": false,
      "inputs": [
        {
          "indexed": true,
          "internalType": "uint256",
          "name": "escrowId",
          "type": "uint256"
        },
        {
          "indexed": false,
          "internalType": "uint256",
          "name": "timestamp",
          "type": "uint256"
        }
      ],
      "name": "AutoReleaseExecuted",
      "type": "event"
    },
    {
      "anonymous": false,
      "inputs": [
        {
          "indexed": true,
          "internalType": "uint256",
          "name": "escrowId",
          "type": "uint256"
        },
        {
          "indexed": false,
          "internalType": "uint64",
          "name": "sourceChainSelector",
          "type": "uint64"
        },
        {
          "indexed": false,
          "internalType": "address",
          "name": "sender",
          "type": "address"
        },
        {
          "indexed": false,
          "internalType": "uint256",
          "name": "amount",
          "type": "uint256"
        }
      ],
      "name": "CCIPPaymentReceived",
      "type": "event"
    },
    {
      "anonymous": false,
      "inputs": [
        {
          "indexed": true,
          "internalType": "uint256",
          "name": "disputeId",
          "type": "uint256"
        },
        {
          "indexed": true,
          "internalType": "uint256",
          "name": "escrowId",
          "type": "uint256"
        },
        {
          "indexed": true,
          "internalType": "address",
          "name": "initiator",
          "type": "address"
        },
        {
          "indexed": false,
          "internalType": "string",
          "name": "reason",
          "type": "string"
        }
      ],
      "name": "DisputeCreated",
      "type": "event"
    },
    {
      "anonymous": false,
      "inputs": [
        {
          "indexed": true,
          "internalType": "uint256",
          "name": "disputeId",
          "type": "uint256"
        },
        {
          "indexed": true,
          "internalType": "uint256",
          "name": "escrowId",
          "type": "uint256"
        },
        {
          "indexed": false,
          "internalType": "enum EscrowManager.DisputeOutcome",
          "name": "outcome",
          "type": "uint8"
        },
        {
          "indexed": false,
          "internalType": "address",
          "name": "resolver",
          "type": "address"
        }
      ],
      "name": "DisputeResolved",
      "type": "event"
    },
    {
      "anonymous": false,
      "inputs": [
        {
          "indexed": true,
          "internalType": "uint256",
          "name": "escrowId",
          "type": "uint256"
        },
        {
          "indexed": true,
          "internalType": "address",
          "name": "admin",
          "type": "address"
        },
        {
          "indexed": true,
          "internalType": "address",
          "name": "recipient",
          "type": "address"
        },
        {
          "indexed": false,
          "internalType": "uint256",
          "name": "amount",
          "type": "uint256"
        },
        {
          "indexed": false,
          "internalType": "address",
          "name": "token",
          "type": "address"
        }
      ],
      "name": "EmergencyWithdrawal",
      "type": "event"
    },
    {
      "anonymous": false,
      "inputs": [
        {
          "indexed": true,
          "internalType": "uint256",
          "name": "escrowId",
          "type": "uint256"
        },
        {
          "indexed": true,
          "internalType": "address",
          "name": "buyer",
          "type": "address"
        },
        {
          "indexed": true,
          "internalType": "address",
          "name": "seller",
          "type": "address"
        },
        {
          "indexed": false,
          "internalType": "uint256",
          "name": "productId",
          "type": "uint256"
        },
        {
          "indexed": false,
          "internalType": "uint256",
          "name": "amount",
          "type": "uint256"
        },
        {
          "indexed": false,
          "internalType": "address",
          "name": "token",
          "type": "address"
        }
      ],
      "name": "EscrowCreated",
      "type": "event"
    },
    {
      "anonymous": false,
      "inputs": [
        {
          "indexed": true,
          "internalType": "uint256",
          "name": "escrowId",
          "type": "uint256"
        },
        {
          "indexed": true,
          "internalType": "address",
          "name": "buyer",
          "type": "address"
        },
        {
          "indexed": true,
          "internalType": "address",
          "name": "seller",
          "type": "address"
        }
      ],
      "name": "EscrowDelivered",
      "type": "event"
    },
    {
      "anonymous": false,
      "inputs": [
        {
          "indexed": true,
          "internalType": "uint256",
          "name": "escrowId",
          "type": "uint256"
        },
        {
          "indexed": true,
          "internalType": "address",
          "name": "recipient",
          "type": "address"
        },
        {
          "indexed": false,
          "internalType": "uint256",
          "name": "amount",
          "type": "uint256"
        },
        {
          "indexed": false,
          "internalType": "address",
          "name": "token",
          "type": "address"
        }
      ],
      "name": "FundsReleased",
      "type": "event"
    },
    {
      "anonymous": false,
      "inputs": [
        {
          "indexed": false,
          "internalType": "address",
          "name": "account",
          "type": "address"
        }
      ],
      "name": "Paused",
      "type": "event"
    },
    {
      "anonymous": false,
      "inputs": [
        {
          "indexed": true,
          "internalType": "bytes32",
          "name": "id",
          "type": "bytes32"
        }
      ],
      "name": "RequestFulfilled",
      "type": "event"
    },
    {
      "anonymous": false,
      "inputs": [
        {
          "indexed": true,
          "internalType": "bytes32",
          "name": "id",
          "type": "bytes32"
        }
      ],
      "name": "RequestSent",
      "type": "event"
    },
    {
      "anonymous": false,
      "inputs": [
        {
          "indexed": true,
          "internalType": "bytes32",
          "name": "role",
          "type": "bytes32"
        },
        {
          "indexed": true,
          "internalType": "bytes32",
          "name": "previousAdminRole",
          "type": "bytes32"
        },
        {
          "indexed": true,
          "internalType": "bytes32",
          "name": "newAdminRole",
          "type": "bytes32"
        }
      ],
      "name": "RoleAdminChanged",
      "type": "event"
    },
    {
      "anonymous": false,
      "inputs": [
        {
          "indexed": true,
          "internalType": "bytes32",
          "name": "role",
          "type": "bytes32"
        },
        {
          "indexed": true,
          "internalType": "address",
          "name": "account",
          "type": "address"
        },
        {
          "indexed": true,
          "internalType": "address",
          "name": "sender",
          "type": "address"
        }
      ],
      "name": "RoleGranted",
      "type": "event"
    },
    {
      "anonymous": false,
      "inputs": [
        {
          "indexed": true,
          "internalType": "bytes32",
          "name": "role",
          "type": "bytes32"
        },
        {
          "indexed": true,
          "internalType": "address",
          "name": "account",
          "type": "address"
        },
        {
          "indexed": true,
          "internalType": "address",
          "name": "sender",
          "type": "address"
        }
      ],
      "name": "RoleRevoked",
      "type": "event"
    },
    {
      "anonymous": false,
      "inputs": [
        {
          "indexed": false,
          "internalType": "address",
          "name": "account",
          "type": "address"
        }
      ],
      "name": "Unpaused",
      "type": "event"
    },
    {
      "inputs": [],
      "name": "AUTO_RELEASE_DELAY",
      "outputs": [
        {
          "internalType": "uint256",
          "name": "",
          "type": "uint256"
        }
      ],
      "stateMutability": "view",
      "type": "function"
    },
    {
      "inputs": [],
      "name": "DEFAULT_ADMIN_ROLE",
      "outputs": [
        {
          "internalType": "bytes32",
          "name": "",
          "type": "bytes32"
        }
      ],
      "stateMutability": "view",
      "type": "function"
    },
    {
      "inputs": [],
      "name": "DISPUTE_TIMEOUT",
      "outputs": [
        {
          "internalType": "uint256",
          "name": "",
          "type": "uint256"
        }
      ],
      "stateMutability": "view",
      "type": "function"
    },
    {
      "inputs": [],
      "name": "EMERGENCY_ROLE",
      "outputs": [
        {
          "internalType": "bytes32",
          "name": "",
          "type": "bytes32"
        }
      ],
      "stateMutability": "view",
      "type": "function"
    },
    {
      "inputs": [],
      "name": "MAX_ARBITRATORS",
      "outputs": [
        {
          "internalType": "uint256",
          "name": "",
          "type": "uint256"
        }
      ],
      "stateMutability": "view",
      "type": "function"
    },
    {
      "inputs": [],
      "name": "MAX_FEE_PERCENTAGE",
      "outputs": [
        {
          "internalType": "uint256",
          "name": "",
          "type": "uint256"
        }
      ],
      "stateMutability": "view",
      "type": "function"
    },
    {
      "inputs": [],
      "name": "MODERATOR_ROLE",
      "outputs": [
        {
          "internalType": "bytes32",
          "name": "",
          "type": "bytes32"
        }
      ],
      "stateMutability": "view",
      "type": "function"
    },
    {
      "inputs": [
        {
          "internalType": "address",
          "name": "_arbitrator",
          "type": "address"
        }
      ],
      "name": "addArbitrator",
      "outputs": [],
      "stateMutability": "nonpayable",
      "type": "function"
    },
    {
      "inputs": [],
      "name": "aiDisputeSourceCode",
      "outputs": [
        {
          "internalType": "string",
          "name": "",
          "type": "string"
        }
      ],
      "stateMutability": "view",
      "type": "function"
    },
    {
      "inputs": [],
      "name": "aiRecommendations",
      "outputs": [
        {
          "internalType": "contract IAIRecommendations",
          "name": "",
          "type": "address"
        }
      ],
      "stateMutability": "view",
      "type": "function"
    },
    {
      "inputs": [
        {
          "internalType": "uint256",
          "name": "",
          "type": "uint256"
        }
      ],
      "name": "availableArbitrators",
      "outputs": [
        {
          "internalType": "address",
          "name": "",
          "type": "address"
        }
      ],
      "stateMutability": "view",
      "type": "function"
    },
    {
      "inputs": [
        {
          "components": [
            {
              "internalType": "bytes32",
              "name": "messageId",
              "type": "bytes32"
            },
            {
              "internalType": "uint64",
              "name": "sourceChainSelector",
              "type": "uint64"
            },
            {
              "internalType": "bytes",
              "name": "sender",
              "type": "bytes"
            },
            {
              "internalType": "bytes",
              "name": "data",
              "type": "bytes"
            },
            {
              "components": [
                {
                  "internalType": "address",
                  "name": "token",
                  "type": "address"
                },
                {
                  "internalType": "uint256",
                  "name": "amount",
                  "type": "uint256"
                }
              ],
              "internalType": "struct Client.EVMTokenAmount[]",
              "name": "destTokenAmounts",
              "type": "tuple[]"
            }
          ],
          "internalType": "struct Client.Any2EVMMessage",
          "name": "message",
          "type": "tuple"
        }
      ],
      "name": "ccipReceive",
      "outputs": [],
      "stateMutability": "nonpayable",
      "type": "function"
    },
    {
      "inputs": [
        {
          "internalType": "bytes",
          "name": "",
          "type": "bytes"
        }
      ],
      "name": "checkUpkeep",
      "outputs": [
        {
          "internalType": "bool",
          "name": "upkeepNeeded",
          "type": "bool"
        },
        {
          "internalType": "bytes",
          "name": "performData",
          "type": "bytes"
        }
      ],
      "stateMutability": "view",
      "type": "function"
    },
    {
      "inputs": [
        {
          "internalType": "uint256",
          "name": "_escrowId",
          "type": "uint256"
        }
      ],
      "name": "confirmDelivery",
      "outputs": [],
      "stateMutability": "nonpayable",
      "type": "function"
    },
    {
      "inputs": [
        {
          "internalType": "uint256",
          "name": "_escrowId",
          "type": "uint256"
        },
        {
          "internalType": "string",
          "name": "_reason",
          "type": "string"
        }
      ],
      "name": "createDispute",
      "outputs": [
        {
          "internalType": "uint256",
          "name": "",
          "type": "uint256"
        }
      ],
      "stateMutability": "nonpayable",
      "type": "function"
    },
    {
      "inputs": [
        {
          "internalType": "uint256",
          "name": "_productId",
          "type": "uint256"
        }
      ],
      "name": "createEscrowETH",
      "outputs": [
        {
          "internalType": "uint256",
          "name": "",
          "type": "uint256"
        }
      ],
      "stateMutability": "payable",
      "type": "function"
    },
    {
      "inputs": [
        {
          "internalType": "uint256",
          "name": "_productId",
          "type": "uint256"
        },
        {
          "internalType": "uint256",
          "name": "_amount",
          "type": "uint256"
        }
      ],
      "name": "createEscrowUSDC",
      "outputs": [
        {
          "internalType": "uint256",
          "name": "",
          "type": "uint256"
        }
      ],
      "stateMutability": "nonpayable",
      "type": "function"
    },
    {
      "inputs": [
        {
          "internalType": "uint256",
          "name": "",
          "type": "uint256"
        }
      ],
      "name": "disputes",
      "outputs": [
        {
          "internalType": "uint256",
          "name": "id",
          "type": "uint256"
        },
        {
          "internalType": "uint256",
          "name": "escrowId",
          "type": "uint256"
        },
        {
          "internalType": "address",
          "name": "initiator",
          "type": "address"
        },
        {
          "internalType": "string",
          "name": "reason",
          "type": "string"
        },
        {
          "internalType": "enum EscrowManager.DisputeOutcome",
          "name": "outcome",
          "type": "uint8"
        },
        {
          "internalType": "uint256",
          "name": "votesCount",
          "type": "uint256"
        },
        {
          "internalType": "uint256",
          "name": "createdAt",
          "type": "uint256"
        },
        {
          "internalType": "uint256",
          "name": "resolvedAt",
          "type": "uint256"
        },
        {
          "internalType": "bytes",
          "name": "aiAnalysis",
          "type": "bytes"
        },
        {
          "internalType": "bool",
          "name": "isResolved",
          "type": "bool"
        }
      ],
      "stateMutability": "view",
      "type": "function"
    },
    {
      "inputs": [],
      "name": "emergencyMode",
      "outputs": [
        {
          "internalType": "bool",
          "name": "",
          "type": "bool"
        }
      ],
      "stateMutability": "view",
      "type": "function"
    },
    {
      "inputs": [],
      "name": "emergencyPause",
      "outputs": [],
      "stateMutability": "nonpayable",
      "type": "function"
    },
    {
      "inputs": [],
      "name": "emergencyUnpause",
      "outputs": [],
      "stateMutability": "nonpayable",
      "type": "function"
    },
    {
      "inputs": [
        {
          "internalType": "uint256",
          "name": "_escrowId",
          "type": "uint256"
        },
        {
          "internalType": "address",
          "name": "_recipient",
          "type": "address"
        }
      ],
      "name": "emergencyWithdraw",
      "outputs": [],
      "stateMutability": "nonpayable",
      "type": "function"
    },
    {
      "inputs": [
        {
          "internalType": "uint256",
          "name": "",
          "type": "uint256"
        }
      ],
      "name": "emergencyWithdrawn",
      "outputs": [
        {
          "internalType": "bool",
          "name": "",
          "type": "bool"
        }
      ],
      "stateMutability": "view",
      "type": "function"
    },
    {
      "inputs": [
        {
          "internalType": "uint256",
          "name": "",
          "type": "uint256"
        }
      ],
      "name": "escrows",
      "outputs": [
        {
          "internalType": "uint256",
          "name": "id",
          "type": "uint256"
        },
        {
          "internalType": "address",
          "name": "buyer",
          "type": "address"
        },
        {
          "internalType": "address",
          "name": "seller",
          "type": "address"
        },
        {
          "internalType": "uint256",
          "name": "productId",
          "type": "uint256"
        },
        {
          "internalType": "uint256",
          "name": "amount",
          "type": "uint256"
        },
        {
          "internalType": "address",
          "name": "token",
          "type": "address"
        },
        {
          "internalType": "enum EscrowManager.EscrowStatus",
          "name": "status",
          "type": "uint8"
        },
        {
          "internalType": "uint256",
          "name": "createdAt",
          "type": "uint256"
        },
        {
          "internalType": "uint256",
          "name": "disputeId",
          "type": "uint256"
        },
        {
          "internalType": "uint64",
          "name": "sourceChainSelector",
          "type": "uint64"
        },
        {
          "internalType": "bool",
          "name": "isActive",
          "type": "bool"
        }
      ],
      "stateMutability": "view",
      "type": "function"
    },
    {
      "inputs": [],
      "name": "feeRecipient",
      "outputs": [
        {
          "internalType": "address",
          "name": "",
          "type": "address"
        }
      ],
      "stateMutability": "view",
      "type": "function"
    },
    {
      "inputs": [],
      "name": "functionsDonID",
      "outputs": [
        {
          "internalType": "bytes32",
          "name": "",
          "type": "bytes32"
        }
      ],
      "stateMutability": "view",
      "type": "function"
    },
    {
      "inputs": [],
      "name": "functionsGasLimit",
      "outputs": [
        {
          "internalType": "uint32",
          "name": "",
          "type": "uint32"
        }
      ],
      "stateMutability": "view",
      "type": "function"
    },
    {
      "inputs": [
        {
          "internalType": "bytes32",
          "name": "",
          "type": "bytes32"
        }
      ],
      "name": "functionsRequestToDisputeId",
      "outputs": [
        {
          "internalType": "uint256",
          "name": "",
          "type": "uint256"
        }
      ],
      "stateMutability": "view",
      "type": "function"
    },
    {
      "inputs": [],
      "name": "functionsSubscriptionId",
      "outputs": [
        {
          "internalType": "uint64",
          "name": "",
          "type": "uint64"
        }
      ],
      "stateMutability": "view",
      "type": "function"
    },
    {
      "inputs": [],
      "name": "getAvailableArbitrators",
      "outputs": [
        {
          "internalType": "address[]",
          "name": "",
          "type": "address[]"
        }
      ],
      "stateMutability": "view",
      "type": "function"
    },
    {
      "inputs": [
        {
          "internalType": "uint256",
          "name": "_disputeId",
          "type": "uint256"
        }
      ],
      "name": "getDispute",
      "outputs": [
        {
          "internalType": "uint256",
          "name": "id",
          "type": "uint256"
        },
        {
          "internalType": "uint256",
          "name": "escrowId",
          "type": "uint256"
        },
        {
          "internalType": "address",
          "name": "initiator",
          "type": "address"
        },
        {
          "internalType": "string",
          "name": "reason",
          "type": "string"
        },
        {
          "internalType": "enum EscrowManager.DisputeOutcome",
          "name": "outcome",
          "type": "uint8"
        },
        {
          "internalType": "address[]",
          "name": "arbitrators",
          "type": "address[]"
        },
        {
          "internalType": "uint256",
          "name": "votesCount",
          "type": "uint256"
        },
        {
          "internalType": "uint256",
          "name": "createdAt",
          "type": "uint256"
        },
        {
          "internalType": "uint256",
          "name": "resolvedAt",
          "type": "uint256"
        },
        {
          "internalType": "bytes",
          "name": "aiAnalysis",
          "type": "bytes"
        },
        {
          "internalType": "bool",
          "name": "isResolved",
          "type": "bool"
        }
      ],
      "stateMutability": "view",
      "type": "function"
    },
    {
      "inputs": [
        {
          "internalType": "uint256",
          "name": "_escrowId",
          "type": "uint256"
        }
      ],
      "name": "getEscrow",
      "outputs": [
        {
          "components": [
            {
              "internalType": "uint256",
              "name": "id",
              "type": "uint256"
            },
            {
              "internalType": "address",
              "name": "buyer",
              "type": "address"
            },
            {
              "internalType": "address",
              "name": "seller",
              "type": "address"
            },
            {
              "internalType": "uint256",
              "name": "productId",
              "type": "uint256"
            },
            {
              "internalType": "uint256",
              "name": "amount",
              "type": "uint256"
            },
            {
              "internalType": "address",
              "name": "token",
              "type": "address"
            },
            {
              "internalType": "enum EscrowManager.EscrowStatus",
              "name": "status",
              "type": "uint8"
            },
            {
              "internalType": "uint256",
              "name": "createdAt",
              "type": "uint256"
            },
            {
              "internalType": "uint256",
              "name": "disputeId",
              "type": "uint256"
            },
            {
              "internalType": "uint64",
              "name": "sourceChainSelector",
              "type": "uint64"
            },
            {
              "internalType": "bool",
              "name": "isActive",
              "type": "bool"
            }
          ],
          "internalType": "struct EscrowManager.Escrow",
          "name": "",
          "type": "tuple"
        }
      ],
      "stateMutability": "view",
      "type": "function"
    },
    {
      "inputs": [
        {
          "internalType": "bytes32",
          "name": "role",
          "type": "bytes32"
        }
      ],
      "name": "getRoleAdmin",
      "outputs": [
        {
          "internalType": "bytes32",
          "name": "",
          "type": "bytes32"
        }
      ],
      "stateMutability": "view",
      "type": "function"
    },
    {
      "inputs": [],
      "name": "getRouter",
      "outputs": [
        {
          "internalType": "address",
          "name": "",
          "type": "address"
        }
      ],
      "stateMutability": "view",
      "type": "function"
    },
    {
      "inputs": [
        {
          "internalType": "address",
          "name": "_seller",
          "type": "address"
        }
      ],
      "name": "getSellerEscrows",
      "outputs": [
        {
          "internalType": "uint256[]",
          "name": "",
          "type": "uint256[]"
        }
      ],
      "stateMutability": "view",
      "type": "function"
    },
    {
      "inputs": [
        {
          "internalType": "address",
          "name": "_user",
          "type": "address"
        }
      ],
      "name": "getUserEscrows",
      "outputs": [
        {
          "internalType": "uint256[]",
          "name": "",
          "type": "uint256[]"
        }
      ],
      "stateMutability": "view",
      "type": "function"
    },
    {
      "inputs": [
        {
          "internalType": "bytes32",
          "name": "role",
          "type": "bytes32"
        },
        {
          "internalType": "address",
          "name": "account",
          "type": "address"
        }
      ],
      "name": "grantRole",
      "outputs": [],
      "stateMutability": "nonpayable",
      "type": "function"
    },
    {
      "inputs": [
        {
          "internalType": "bytes32",
          "name": "requestId",
          "type": "bytes32"
        },
        {
          "internalType": "bytes",
          "name": "response",
          "type": "bytes"
        },
        {
          "internalType": "bytes",
          "name": "err",
          "type": "bytes"
        }
      ],
      "name": "handleOracleFulfillment",
      "outputs": [],
      "stateMutability": "nonpayable",
      "type": "function"
    },
    {
      "inputs": [
        {
          "internalType": "bytes32",
          "name": "role",
          "type": "bytes32"
        },
        {
          "internalType": "address",
          "name": "account",
          "type": "address"
        }
      ],
      "name": "hasRole",
      "outputs": [
        {
          "internalType": "bool",
          "name": "",
          "type": "bool"
        }
      ],
      "stateMutability": "view",
      "type": "function"
    },
    {
      "inputs": [
        {
          "internalType": "string",
          "name": "_sourceCode",
          "type": "string"
        },
        {
          "internalType": "uint64",
          "name": "_subscriptionId",
          "type": "uint64"
        },
        {
          "internalType": "uint32",
          "name": "_gasLimit",
          "type": "uint32"
        },
        {
          "internalType": "bytes32",
          "name": "_donID",
          "type": "bytes32"
        }
      ],
      "name": "initializeFunctions",
      "outputs": [],
      "stateMutability": "nonpayable",
      "type": "function"
    },
    {
      "inputs": [
        {
          "internalType": "address",
          "name": "",
          "type": "address"
        }
      ],
      "name": "isArbitrator",
      "outputs": [
        {
          "internalType": "bool",
          "name": "",
          "type": "bool"
        }
      ],
      "stateMutability": "view",
      "type": "function"
    },
    {
      "inputs": [],
      "name": "lastUpkeepTimestamp",
      "outputs": [
        {
          "internalType": "uint256",
          "name": "",
          "type": "uint256"
        }
      ],
      "stateMutability": "view",
      "type": "function"
    },
    {
      "inputs": [],
      "name": "nextDisputeId",
      "outputs": [
        {
          "internalType": "uint256",
          "name": "",
          "type": "uint256"
        }
      ],
      "stateMutability": "view",
      "type": "function"
    },
    {
      "inputs": [],
      "name": "nextEscrowId",
      "outputs": [
        {
          "internalType": "uint256",
          "name": "",
          "type": "uint256"
        }
      ],
      "stateMutability": "view",
      "type": "function"
    },
    {
      "inputs": [],
      "name": "paused",
      "outputs": [
        {
          "internalType": "bool",
          "name": "",
          "type": "bool"
        }
      ],
      "stateMutability": "view",
      "type": "function"
    },
    {
      "inputs": [
        {
          "internalType": "bytes",
          "name": "_performData",
          "type": "bytes"
        }
      ],
      "name": "performUpkeep",
      "outputs": [],
      "stateMutability": "nonpayable",
      "type": "function"
    },
    {
      "inputs": [],
      "name": "platformFeePercentage",
      "outputs": [
        {
          "internalType": "uint256",
          "name": "",
          "type": "uint256"
        }
      ],
      "stateMutability": "view",
      "type": "function"
    },
    {
      "inputs": [],
      "name": "productRegistry",
      "outputs": [
        {
          "internalType": "contract IProductRegistry",
          "name": "",
          "type": "address"
        }
      ],
      "stateMutability": "view",
      "type": "function"
    },
    {
      "inputs": [
        {
          "internalType": "uint256",
          "name": "requestId",
          "type": "uint256"
        },
        {
          "internalType": "uint256[]",
          "name": "randomWords",
          "type": "uint256[]"
        }
      ],
      "name": "rawFulfillRandomWords",
      "outputs": [],
      "stateMutability": "nonpayable",
      "type": "function"
    },
    {
      "inputs": [
        {
          "internalType": "address",
          "name": "_arbitrator",
          "type": "address"
        }
      ],
      "name": "removeArbitrator",
      "outputs": [],
      "stateMutability": "nonpayable",
      "type": "function"
    },
    {
      "inputs": [
        {
          "internalType": "bytes32",
          "name": "role",
          "type": "bytes32"
        },
        {
          "internalType": "address",
          "name": "callerConfirmation",
          "type": "address"
        }
      ],
      "name": "renounceRole",
      "outputs": [],
      "stateMutability": "nonpayable",
      "type": "function"
    },
    {
      "inputs": [
        {
          "internalType": "bytes32",
          "name": "role",
          "type": "bytes32"
        },
        {
          "internalType": "address",
          "name": "account",
          "type": "address"
        }
      ],
      "name": "revokeRole",
      "outputs": [],
      "stateMutability": "nonpayable",
      "type": "function"
    },
    {
      "inputs": [],
      "name": "s_lastError",
      "outputs": [
        {
          "internalType": "bytes",
          "name": "",
          "type": "bytes"
        }
      ],
      "stateMutability": "view",
      "type": "function"
    },
    {
      "inputs": [],
      "name": "s_lastRequestId",
      "outputs": [
        {
          "internalType": "bytes32",
          "name": "",
          "type": "bytes32"
        }
      ],
      "stateMutability": "view",
      "type": "function"
    },
    {
      "inputs": [],
      "name": "s_lastResponse",
      "outputs": [
        {
          "internalType": "bytes",
          "name": "",
          "type": "bytes"
        }
      ],
      "stateMutability": "view",
      "type": "function"
    },
    {
      "inputs": [
        {
          "internalType": "address",
          "name": "",
          "type": "address"
        },
        {
          "internalType": "uint256",
          "name": "",
          "type": "uint256"
        }
      ],
      "name": "sellerEscrows",
      "outputs": [
        {
          "internalType": "uint256",
          "name": "",
          "type": "uint256"
        }
      ],
      "stateMutability": "view",
      "type": "function"
    },
    {
      "inputs": [
        {
          "internalType": "address",
          "name": "_feeRecipient",
          "type": "address"
        }
      ],
      "name": "setFeeRecipient",
      "outputs": [],
      "stateMutability": "nonpayable",
      "type": "function"
    },
    {
      "inputs": [
        {
          "internalType": "uint256",
          "name": "_feePercentage",
          "type": "uint256"
        }
      ],
      "name": "setPlatformFee",
      "outputs": [],
      "stateMutability": "nonpayable",
      "type": "function"
    },
    {
      "inputs": [
        {
          "internalType": "bytes4",
          "name": "interfaceId",
          "type": "bytes4"
        }
      ],
      "name": "supportsInterface",
      "outputs": [
        {
          "internalType": "bool",
          "name": "",
          "type": "bool"
        }
      ],
      "stateMutability": "view",
      "type": "function"
    },
    {
      "inputs": [],
      "name": "toggleEmergencyMode",
      "outputs": [],
      "stateMutability": "nonpayable",
      "type": "function"
    },
    {
      "inputs": [],
      "name": "upkeepInterval",
      "outputs": [
        {
          "internalType": "uint256",
          "name": "",
          "type": "uint256"
        }
      ],
      "stateMutability": "view",
      "type": "function"
    },
    {
      "inputs": [],
      "name": "usdcToken",
      "outputs": [
        {
          "internalType": "contract IERC20",
          "name": "",
          "type": "address"
        }
      ],
      "stateMutability": "view",
      "type": "function"
    },
    {
      "inputs": [
        {
          "internalType": "address",
          "name": "",
          "type": "address"
        },
        {
          "internalType": "uint256",
          "name": "",
          "type": "uint256"
        }
      ],
      "name": "userEscrows",
      "outputs": [
        {
          "internalType": "uint256",
          "name": "",
          "type": "uint256"
        }
      ],
      "stateMutability": "view",
      "type": "function"
    },
    {
      "inputs": [
        {
          "internalType": "uint256",
          "name": "_disputeId",
          "type": "uint256"
        },
        {
          "internalType": "enum EscrowManager.DisputeOutcome",
          "name": "_outcome",
          "type": "uint8"
        }
      ],
      "name": "voteOnDispute",
      "outputs": [],
      "stateMutability": "nonpayable",
      "type": "function"
    },
    {
      "inputs": [
        {
          "internalType": "uint256",
          "name": "",
          "type": "uint256"
        }
      ],
      "name": "vrfRequestToDisputeId",
      "outputs": [
        {
          "internalType": "uint256",
          "name": "",
          "type": "uint256"
        }
      ],
      "stateMutability": "view",
      "type": "function"
    },
    {
      "stateMutability": "payable",
      "type": "receive"
    }
  ],
  "transactionHash": "0x6f05012a95f6d479d90564cc639bd78f0c7473e3ec50cab60a001b1f3d97e445",
  "args": [
    "0x09e9F0D5EfCb521Bf76B94E4Fa3c6499985E2878",
    "0xe97babe1401F29921D421E5294c017D63Ff12B36",
    "0x5425890298aed601595a70AB815c96711a31Bc65",
    "0xb83E47C2bC239B3bf370bc41e1459A34b41238D0",
    "0x2eD832Ba664535e5886b75D64C46EB9a228C2610",
    1,
    "0x354d2f95da55398f44b7cff77da56283d9c6c829a4bdf1bbcaf2ad6a4d081f61",
    500000,
    "0xF694E193200268f9a4868e4Aa017A0118C9a8177",
    "0x822c480a0D437b6e6276D0AF69DBe7B19B65B599"
  ],
  "numDeployments": 1,
  "solcInputHash": "5043ce020989be5c2390dfac1ae9b274",
  "bytecode": "0x61016060409080825234620002e75780620063c580380380916200002482856200031e565b833961014091829181010312620002e757620000408262000342565b926020936200005185850162000342565b946200005f83860162000342565b916200006e6060870162000342565b966200007d6080880162000342565b60a088015198906001600160401b038a168a03620002e75760c089015160e08a01519063ffffffff82168203620002e7576101009b620000bf8d8d0162000342565b93620000d0610120809e0162000342565b6001600160a01b0396871660805260a08290529486811615620002cf57918e876200024f99979593620002799d9c9b99979560c052600160005560ff196001541660015560016006556001600755610e1060175560fa60185560ff60a01b1960195416601955620001413362000357565b506200014d33620003d8565b5062000159336200047b565b508160018060a01b031999818c168b600354161760035516896004541617600455818d168960055416176005551660e052528c528a5216906019541617601955426016556000808751620001ad81620002ec565b601681527f457363726f774d616e61676572206465706c6f796564000000000000000000008682015288516200020f81620002008982019463104c13eb60e21b86528a6024840152604483019062000519565b03601f1981018352826200031e565b51906a636f6e736f6c652e6c6f675afa5085516200022d81620002ec565b601081526f283937b23ab1ba2932b3b4b9ba393c9d60811b848201526200055b565b6a2aa9a221902a37b5b2b71d60a91b8451916200026c83620002ec565b600b83528201526200055b565b5191615de29384620005c38539608051848181610a230152613e35015260a05184610d69015260c051848181611f5b0152612575015260e051846138a9015251836138300152518261380a015251816138660152f35b8b516335fdcccd60e21b815260006004820152602490fd5b600080fd5b604081019081106001600160401b038211176200030857604052565b634e487b7160e01b600052604160045260246000fd5b601f909101601f19168101906001600160401b038211908210176200030857604052565b51906001600160a01b0382168203620002e757565b6001600160a01b031660008181527fac33ff75c19e70fe83507db0d683fd3465c996598dc972688b7ace676c89077b602052604081205490919060ff16620003d45781805260026020526040822081835260205260408220600160ff198254161790553391600080516020620063a58339815191528180a4600190565b5090565b6001600160a01b031660008181527fb1ef985877d50d34e95c2aaf1c996731c63181754cd1cb73eef00b96d479196e60205260408120549091907f71f3d55856e4058ed06ee057d79ada615f65cdf5f9ee88181b914225088f834f9060ff16620004765780835260026020526040832082845260205260408320600160ff19825416179055600080516020620063a5833981519152339380a4600190565b505090565b6001600160a01b031660008181527f28c9ec68e4eea38d712bc1c550e52514f6bac036cf8b0f0ed19d6ac21930dd8c60205260408120549091907fbf233dd2aafeb4d50879c4aa5c81e96d92f6e6945c906a58f9f2d1c1631b4b269060ff16620004765780835260026020526040832082845260205260408320600160ff19825416179055600080516020620063a5833981519152339380a4600190565b919082519283825260005b84811062000546575050826000602080949584010152601f8019910116010190565b60208183018101518483018201520162000524565b600091908291620005af60405180926200058f602083019563319af33360e01b875260406024850152606484019062000519565b6001600160a01b0391909116604483015203601f1981018352826200031e565b51906a636f6e736f6c652e6c6f675afa5056fe6080604052600436101561001b575b361561001957600080fd5b005b60003560e01c8063012f52ee1461042b57806301fabd751461042657806301ffc9a71461042157806305df1a031461041c5780630905f5601461041757806309499aa6146104125780630ca761751461040d5780630db399341461040857806311eac8551461040357806312e8e2c3146103fe5780631856886d146103f95780631b5924cf146103f45780631c4229d5146103ef5780631fe543e3146103ea57806320df4359146103e5578063248a9ca3146103e05780632ac08bd3146103db5780632f2ff15d146103d65780632f940c70146103d157806336568abe146103cc5780633944ea3a146103c75780634585e33b146103c257806346904840146103bd57806346ffc940146103b8578063486265c6146103b35780634a4e3bd5146103ae5780634b0795a8146103a95780634c17b530146103a457806351858e271461039f578063558e44d31461039a578063564a565d146103955780635a74373c146103905780635b45815b1461038b5780635c975abb146103865780635ccea85e146103815780635d17331f1461037c5780635e03420414610377578063624cffd4146103725780636e04ff0d1461036d578063705f876c14610368578063797669c9146103635780637d19e5961461035e5780637f944dd01461035957806385572ffb14610354578063862d3aab1461034f57806389cb29dd1461034a57806391d1485414610345578063973ad270146103405780639c32c4471461033b5780639f6bd2a914610336578063a217fddf14610331578063a7094a2f1461032c578063ada6b0d414610327578063b0f479a114610322578063b1e217491461031d578063cdd78cfc14610318578063d3ea95d914610313578063d547741f1461030e578063d800dc8b14610309578063db356bf114610304578063e3a96cbd146102ff578063e74b981b146102fa578063e913eb8b146102f5578063fd84cb97146102f05763fff218c30361000e57612a96565b6129e7565b6129c9565b612948565b6128bb565b6127ae565b612653565b612611565b6125e0565b6125c2565b6125a4565b61255f565b612485565b61245c565b612440565b6123fe565b612221565b61213d565b6120f9565b6120db565b612064565b611f25565b611ed7565b611d9a565b611ccb565b611ca2565b611c6b565b611c4d565b611c31565b611a4d565b6119d3565b6119b0565b611984565b611966565b6118d1565b611786565b61172d565b6116f1565b61165f565b6115f5565b6115d7565b6115b0565b611587565b611487565b611373565b6111e1565b611085565b611043565b610fbd565b610f53565b610f2a565b610d32565b610c74565b610c18565b610b39565b610adb565b610ab2565b610a94565b6109d4565b6109b6565b610990565b6107e4565b610643565b61059f565b6104fd565b6000526009602052604060002090565b6000526008602052604060002090565b6001600160a01b031690565b634e487b7160e01b600052602160045260246000fd5b6005111561047c57565b61045c565b90600582101561047c5752565b9997959293909b9a989694916101608b019c8b52600160a01b60019003948580921660208d01521660408b015260608a015260808901521660a087015260c086016104d891610481565b60e08501526101008401526001600160401b0316610120830152151561014090910152565b346105895760203660031901126105895760043560005260086020526040600020805461058560018060a01b03918260018501541692806002860154169460038101549260048201549060058301549060068401549260086007860154950154966040519a8b9a60ff8a60401c169960018060401b03169860ff8760a01c169616948c61048e565b0390f35b600080fd5b6001600160a01b0381160361058957565b34610589576020366003190112610589576004356105bc8161058e565b6105c4612b4a565b6001600160a01b0381166000908152600e602052604090205460ff1661060657806106016105f461001993610b65565b805460ff19166001179055565b6158d5565b60405162461bcd60e51b815260206004820152601560248201527420b63932b0b23c9030b71030b93134ba3930ba37b960591b6044820152606490fd5b346105895760203660031901126105895760043563ffffffff60e01b811680910361058957602090637965db0b60e01b8114908115610688575b506040519015158152f35b6301ffc9a760e01b1490503861067d565b634e487b7160e01b600052604160045260246000fd5b6001600160401b0381116106c257604052565b610699565b61016081019081106001600160401b038211176106c257604052565b604081019081106001600160401b038211176106c257604052565b60a081019081106001600160401b038211176106c257604052565b601f909101601f19168101906001600160401b038211908210176106c257604052565b60405190610749826106c7565b565b60405190610749826106fe565b6001600160401b0381116106c257601f01601f191660200190565b81601f820112156105895780359061078a82610758565b926107986040519485610719565b8284526020838301011161058957816000926020809301838601378301015290565b602435906001600160401b038216820361058957565b35906001600160401b038216820361058957565b34610589576080366003190112610589576001600160401b0360043581811161058957610815903690600401610773565b61081d6107ba565b916044359163ffffffff8316830361058957610837612bb7565b80519182116106c2576108548261084f60125461122c565b6134a5565b60209081601f84116001146108eb575091806108d595926108b0946000926108e0575b5050600019600383901b1c191660019190911b17601255601380546001600160401b0319166001600160401b0392909216919091179055565b6013805463ffffffff60401b191660409290921b63ffffffff60401b16919091179055565b610019606435601455565b015190503880610877565b60126000529190601f198416600080516020615c6d833981519152936000905b82821061096d5750509260019285926108b0966108d5999610610954575b505050811b01601255601380546001600160401b0319166001600160401b0392909216919091179055565b015160001960f88460031b161c19169055388080610929565b8060018697829497870151815501960194019061090b565b600091031261058957565b3461058957600036600319011261058957602060ff60195460a01c166040519015158152f35b3461058957600036600319011261058957602060405162093a808152f35b34610589576060366003190112610589576004356001600160401b0360243581811161058957610a08903690600401610773565b9060443590811161058957610a21903690600401610773565b7f00000000000000000000000000000000000000000000000000000000000000006001600160a01b03163303610a8257610a5b9183614d41565b7f85e1543bf2f84fe80c6badbce3648c8539ad1df4d2b3d822938ca0538be727e6600080a2005b60405163c6829f8360e01b8152600490fd5b34610589576000366003190112610589576020600754604051908152f35b34610589576000366003190112610589576005546040516001600160a01b039091168152602090f35b3461058957602036600319011261058957600435610af7612bb7565b6103e88111610b0557601855005b60405162461bcd60e51b815260206004820152600c60248201526b08ccaca40e8dede40d0d2ced60a31b6044820152606490fd5b346105895760203660031901126105895760043560005260156020526020604060002054604051908152f35b6001600160a01b03166000908152600e6020526040902090565b6001600160a01b03166000908152600a6020526040902090565b6001600160a01b03166000908152600b6020526040902090565b9060018060a01b0316600052602052604060002090565b634e487b7160e01b600052603260045260246000fd5b600d54811015610bfb57600d60005260206000200190600090565b610bca565b8054821015610bfb5760005260206000200190600090565b3461058957604036600319011261058957600435610c358161058e565b6001600160a01b03166000908152600b602052604090208054602435919082101561058957602091610c6691610c00565b90546040519160031b1c8152f35b3461058957602036600319011261058957600435600d5481101561058957600d600052600080516020615d2d83398151915201546040516001600160a01b039091168152602090f35b6001600160401b0381116106c25760051b60200190565b81601f8201121561058957803591610ceb83610cbd565b92610cf96040519485610719565b808452602092838086019260051b820101928311610589578301905b828210610d23575050505090565b81358152908301908301610d15565b3461058957604080600319360112610589576004356024356001600160401b03811161058957610d66903690600401610cd4565b907f00000000000000000000000000000000000000000000000000000000000000006001600160a01b031633819003610f0d5750610dae81600052600c602052604060002090565b5491610dbb83151561395f565b610dc483610430565b600d549160058310610f06576005905b610ddd826139a1565b93610de7816139a1565b9160005b828110610ef25750610dfc90613a00565b519060005b848110610e4c57887f8cb1bf8f6a785d9e29243a123657c0d2e265ccfd55e4318967528b6c71efa2808989610e478e610e3d8360058e01613a80565b5192839283613b02565b0390a2005b8084610ee7610edf610ed9878f8d610ecf88610ec9610eb4610eae610ea78f97610eed9f610e7d90610ed49a612fd1565b9051602081019a8b526040808201889052815290998a91610e9f606082610719565b519020613a51565b809c613a3d565b51610be0565b905460039190911b1c6001600160a01b031690565b92613a3d565b613a71565b612fb3565b88613a3d565b519187613a3d565b52613460565b610e01565b8080610ee7610f019387613a3d565b610deb565b8290610dd4565b60449084519063073e64fd60e21b82523360048301526024820152fd5b34610589576000366003190112610589576020604051600080516020615cad8339815191528152f35b346105895760203660031901126105895760043560005260026020526020600160406000200154604051908152f35b6020908160408183019282815285518094520193019160005b828110610fa9575050505090565b835185529381019392810192600101610f9b565b346105895760208060031936011261058957600435610fdb8161058e565b6001600160a01b03166000908152600b82526040808220905181548082529183528383208185019491939092915b82821061102c576105858561102081890382610719565b60405191829182610f82565b835486529485019460019384019390910190611009565b34610589576040366003190112610589576100196024356004356110668261058e565b806000526002602052611080600160406000200154612c59565b612c72565b34610589576040366003190112610589576024356004356110a58261058e565b6110ad612c14565b6019546110bf9060a01c60ff1661596a565b6110ec6110e76110e36110dc84600052601a602052604060002090565b5460ff1690565b1590565b6159b2565b6110f581610440565b906111386008830161111461110f825460ff9060401c1690565b6132d7565b61112b6105f484600052601a602052604060002090565b805460ff60401b19169055565b600582019160018060a01b038061114f8554610450565b16806111b85750600080808060048601548181156111af575b868b1690f1156111aa576111916004600080516020615d6d833981519152935b01549454610450565b946111a56040519283921696339683613021565b0390a4005b612e9f565b506108fc611168565b6004836111dc611191938984600080516020615d6d833981519152980154916130be565b611188565b34610589576040366003190112610589576024356111fe8161058e565b336001600160a01b0382160361121a5761001990600435612ced565b60405163334bd91960e11b8152600490fd5b90600182811c9216801561125c575b602083101461124657565b634e487b7160e01b600052602260045260246000fd5b91607f169161123b565b90600092918054916112778361122c565b9182825260019384811690816000146112d95750600114611299575b50505050565b90919394506000526020928360002092846000945b8386106112c5575050505001019038808080611293565b8054858701830152940193859082016112ae565b9294505050602093945060ff191683830152151560051b01019038808080611293565b906107496113109260405193848092611266565b0383610719565b60005b83811061132a5750506000910152565b818101518382015260200161131a565b9060209161135381518092818552858086019101611317565b601f01601f1916010190565b90602061137092818152019061133a565b90565b346105895760008060031936011261143a57604051816010546113958161122c565b8084529060019081811690811561141257506001146113cb575b610585846113bf81880382610719565b6040519182918261135f565b6010835260209450600080516020615d8d8339815191525b8284106113ff5750505081610585936113bf92820101936113af565b80548585018701529285019281016113e3565b61058596506113bf9450602092508593915060ff191682840152151560051b820101936113af565b80fd5b906020600319830112610589576001600160401b03916004359083821161058957806023830112156105895781600401359384116105895760248483010111610589576024019190565b34610589576114a06114983661143d565b810190614fe7565b60005b815181101561157e57806114ba6114e79284613a3d565b516114c481610440565b600881015460401c60ff1680611563575b8061154d575b6114ec575b5050613460565b6114a3565b60058101805460ff60a01b1916600160a01b17905561151a90611514906002905b0154610450565b826153e1565b6040514281527f98cd93730f28670af855f9fe03a4565607ad03fa76152fb9581228c073b96fae90602090a238806114e0565b5061155b600682015461377f565b4210156114db565b50600581015460a01c60ff1661157881610472565b156114d5565b61001942601655565b34610589576000366003190112610589576019546040516001600160a01b039091168152602090f35b3461058957600036600319011261058957602060135463ffffffff6040519160401c168152f35b346105895760003660031901126105895760206040516203f4808152f35b346105895760003660031901126105895761160e612c14565b60015460ff81161561164d5760ff19166001557f5db9ee0a495bf2e6ff9c91a7834c1ba4fdd244a5e8aa4e537bd38aeae4b073aa6020604051338152a1005b604051638dfc202b60e01b8152600490fd5b346105895760008060031936011261143a57604051816011546116818161122c565b8084529060019081811690811561141257506001146116aa57610585846113bf81880382610719565b6011835260209450600080516020615ced8339815191525b8284106116de5750505081610585936113bf92820101936113af565b80548585018701529285019281016116c2565b346105895760003660031901126105895761170a612c14565b6019805460ff60a01b19811660a091821c60ff161590911b60ff60a01b16179055005b3461058957600036600319011261058957611746612c14565b61174e61303a565b600160ff19815416176001557f62e78cea01bee320cd4e420270b5ea74000d11b0c9f74754ebdbfc544b05a2586020604051338152a1005b346105895760003660031901126105895760206040516103e88152f35b60405190600082601254916117b78361122c565b80835260019380851690811561182b57506001146117dd575b5061074992500383610719565b60126000908152600080516020615c6d83398151915294602093509091905b8183106118135750506107499350820101386117d0565b855488840185015294850194879450918301916117fc565b905061074994506020925060ff191682840152151560051b820101386117d0565b6004111561047c57565b90600482101561047c5752565b9894959161012098946118c998946118a1926118ac949e9d9e8d5260208d015260018060a01b031660408c01526101408060608d01528b019061133a565b9560808a0190611856565b60a088015260c087015260e086015284820361010086015261133a565b931515910152565b346105895760203660031901126105895760043560005260096020526040600020805461058560018301549260018060a01b03600282015416906040516119268161191f8160038601611266565b0382610719565b60ff6004830154166008830154600984015491600a85015493611959600c611950600b89016112fc565b97015460ff1690565b966040519a8b9a8b611863565b34610589576000366003190112610589576020601754604051908152f35b3461058957602036600319011261058957600435600052600c6020526020604060002054604051908152f35b3461058957600036600319011261058957602060ff600154166040519015158152f35b3461058957602080600319360112610589576004356119f18161058e565b6001600160a01b03166000908152600a82526040808220905181548082529183528383208185019491939092915b828210611a36576105858561102081890382610719565b835486529485019460019384019390910190611a1f565b602036600319011261058957600435611a64613058565b611a6c61303a565b60195490611a8060ff8360a01c1615612d60565b611a8b341515612da4565b611a9e611a99600354610450565b610450565b6040516361501f6b60e01b81526004810183905260009390918490839060249082905afa80156111aa57838592839284958591611bfe575b50611ae090612eab565b6001600160a01b0390611b02868316611afa811515612eec565b331415612f2a565b611b19611b1160185434612fa0565b612710900490565b91611b30611b278434612fd1565b95861015612fde565b8215918215611bcc575b50505050611b4992933361520a565b91611b58611a99600354610450565b803b15611bc857611b8091604051958680948193620f881f60ec1b8352339060048401613021565b03925af19182156111aa5761058592611baf575b50611b9f6001600055565b6040519081529081906020820190565b80611bbc611bc2926106af565b80610985565b38611b94565b8280fd5b8695979694509184939184938492611bf4575b1690f1156111aa579083908338808080611b3a565b6108fc9250611bdf565b9050611c22919550611ae093503d8086833e611c1a8183610719565b810190612e35565b98945095925050939590611ad6565b3461058957600036600319011261058957602060405160058152f35b34610589576000366003190112610589576020601654604051908152f35b3461058957611c793661143d565b5050611c83614e91565b906105856040519283921515835260406020840152604083019061133a565b34610589576000366003190112610589576013546040516001600160401b039091168152602090f35b34610589576000366003190112610589576020604051600080516020615d4d8339815191528152f35b815181526020808301516001600160a01b0316908201526101608101929161074991906040818101516001600160a01b031690830152606081810151908301526080808201519083015260a0808201516001600160a01b031690830152611d6360c082015160c0840190610481565b60e081810151908301526101008082015190830152610120808201516001600160401b031690830152610140908101511515910152565b34610589576020366003190112610589576105856040805190611dbc826106c7565b611ecd60009283815283602082015283838201528360608201528360808201528360a08201528360c08201528360e082015260ff610100948086840152611ec2600886610120938085880152806101408098015260043581528260205220611e2261073c565b9881548a52611e40611e376001840154610450565b60208c01613a71565b611e58611e506002840154610450565b8a8c01613a71565b600382015460608b0152600482015460808b01526005820154611e9a908790611e8d6001600160a01b03821660a08f01613a71565b60a01c1660c08c01613b3d565b600682015460e08b01526007820154908a015201546001600160401b03811692880192909252565b841c16151590840152565b5191829182611cf4565b3461058957604036600319011261058957600435611ef48161058e565b6001600160a01b03166000908152600a602052604090208054602435919082101561058957602091610c6691610c00565b3461058957600319602036820112610589576004908135906001600160401b03908183116105895760a0908336030112610589577f00000000000000000000000000000000000000000000000000000000000000006001600160a01b0316330361201057611f9161074b565b91808401358352611fa4602482016107d0565b6020840152604481013582811161058957611fc490853691840101610773565b6040840152606481013582811161058957611fe490853691840101610773565b6060840152608481013591821161058957610019936120069236920101612abf565b6080820152615021565b6040516335fdcccd60e21b81523381850152602490fd5b90815180825260208080930193019160005b828110612047575050505090565b83516001600160a01b031685529381019392810192600101612039565b346105895760008060031936011261143a57604051809182600d54808452602080940190600d8452848420935b858282106120bc575050506120a892500383610719565b610585604051928284938452830190612027565b85546001600160a01b0316845260019586019588955093019201612091565b34610589576000366003190112610589576020600654604051908152f35b3461058957604036600319011261058957602060ff61213160243561211d8161058e565b600435600052600284526040600020610bb3565b54166040519015158152f35b346105895760203660031901126105895760043561215a8161058e565b612162612b4a565b60018060a01b03906121a461219a8383169283600052600e602052612195612190604060002060ff90541690565b6136c5565b610b65565b805460ff19169055565b60005b600d54808210156100195782846121c0610eb485610be0565b16146121d557506121d090613460565b6121a7565b61221993506121fa919250610eb46121ef6121f492612fb3565b610be0565b91610be0565b90919082549060031b9160018060a01b03809116831b921b1916179055565b610019615912565b3461058957604080600319360112610589576004356024356001600160401b03811161058957612255903690600401610773565b90801515806123f3575b61226890613297565b61228260ff600861227884610440565b0154851c166132d7565b600081815260086020528390206001810154336001600160a01b03918216149182156123e2575b5050156123ad579161231291836122c1602095610440565b600760058201916122e96122da845460ff9060a01c1690565b6122e381610472565b15613417565b81549687936122ff6122fa86613460565b600755565b805460ff60a01b1916600160a11b179055565b0155612362600c61232286610430565b868155836001820155612338336002830161346f565b6123458560038301613598565b60048101805460ff1916905542600982015501805460ff19169055565b61236b846137f1565b61237484613c82565b837f187cf2180cf205abb3a86a43c8a0e9e92ffdc0d1029d2982b525b335a50efe518451806123a433968261135f565b0390a451908152f35b825162461bcd60e51b815260206004820152600e60248201526d139bdd08185d5d1a1bdc9a5e995960921b6044820152606490fd5b6002919250015416331438806122a9565b50600654811061225f565b346105895760203660031901126105895760043561241b8161058e565b60018060a01b0316600052600e602052602060ff604060002054166040519015158152f35b3461058957600036600319011261058957602060405160008152f35b34610589576000366003190112610589576004546040516001600160a01b039091168152602090f35b34610589576040366003190112610589576004356024356004811015610589576125276124b183610430565b916124cb6124c66110e3600c86015460ff1690565b61367e565b6124d86121903386615870565b6125156105f4600685016124fa6124f56110e36110dc3385610bb3565b613705565b6125038461184c565b61250e841515613741565b3390610bb3565b6125223360078501610bb3565b613666565b61254e6125486005600884019361253e8554613460565b809555015461378f565b60011c90565b111561255657005b610019906154ba565b34610589576000366003190112610589576040517f00000000000000000000000000000000000000000000000000000000000000006001600160a01b03168152602090f35b34610589576000366003190112610589576020600f54604051908152f35b34610589576000366003190112610589576020601854604051908152f35b3461058957602036600319011261058957600435600052601a602052602060ff604060002054166040519015158152f35b34610589576040366003190112610589576100196024356004356126348261058e565b80600052600260205261264e600160406000200154612c59565b612ced565b3461058957604036600319011261058957602435600435612672613058565b61267a61303a565b61268c60ff60195460a01c1615612d60565b61269782151561307b565b6126a5611a99600354610450565b6040516361501f6b60e01b81526004810183905260009390918490839060249082905afa9182156111aa578492611b4992849185938691612783575b506126eb90612eab565b6127036001600160a01b038416611afa811515612eec565b612740612715611b1160185484612fa0565b9161272c6127238483612fd1565b94851015612fde565b612737600554610450565b3090339061310d565b8061275d575b5084612756611a99600554610450565b92336152f7565b61277d9061276c600554610450565b612777601954610450565b906130be565b38612746565b905061279f9193506126eb92503d8087833e611c1a8183610719565b969450949250509293906126e1565b346105895760008060031936011261143a57604051816012546127d08161122c565b8084529060019081811690811561141257506001146127f957610585846113bf81880382610719565b6012835260209450600080516020615c6d8339815191525b82841061282d5750505081610585936113bf92820101936113af565b8054858501870152928501928101612811565b9995906128846118c999958c9d9e9d604061289c976101409e9a9761288f968452602084015260018060a01b031691015260608d61016091829101528d019061133a565b9260808c0190611856565b89820360a08b0152612027565b9360c088015260e087015261010086015284820361012086015261133a565b346105895760203660031901126105895760043560005260096020526040600020805461058560018301549260018060a01b0360028201541660ff600483015416916008810154600982015490600a8301549260ff600c8201541695612923600383016112fc565b61293b600b612934600586016159f2565b94016112fc565b966040519b8c9b8c612840565b34610589576020366003190112610589576004356129658161058e565b61296d612bb7565b6001600160a01b0316801561299257601980546001600160a01b031916919091179055005b60405162461bcd60e51b815260206004820152600f60248201526e496e76616c6964206164647265737360881b6044820152606490fd5b34610589576000366003190112610589576020601454604051908152f35b346105895760203660031901126105895760043580151580612a8b575b612a0d90613297565b6000908082526008602052612a2e60ff600860408520015460401c166132d7565b808252600860205260408220600101546001600160a01b03163303612a5957612a5690613317565b80f35b60405162461bcd60e51b815260206004820152600a60248201526927b7363c90313abcb2b960b11b6044820152606490fd5b506006548110612a04565b34610589576000366003190112610589576003546040516001600160a01b039091168152602090f35b81601f8201121561058957803590612ad682610cbd565b92604092612ae684519586610719565b808552602091828087019260061b85010193818511610589578301915b848310612b135750505050505090565b8583830312610589578386918251612b2a816106e3565b8535612b358161058e565b81528286013583820152815201920191612b03565b600080516020615d4d8339815191526000819052600260205260ff612b8f337fb1ef985877d50d34e95c2aaf1c996731c63181754cd1cb73eef00b96d479196e610bb3565b541615612b995750565b6044906040519063e2517d3f60e01b82523360048301526024820152fd5b60008052600260205260ff612bec337fac33ff75c19e70fe83507db0d683fd3465c996598dc972688b7ace676c89077b610bb3565b541615612bf557565b60405163e2517d3f60e01b815233600482015260006024820152604490fd5b600080516020615cad8339815191526000819052600260205260ff612b8f337f28c9ec68e4eea38d712bc1c550e52514f6bac036cf8b0f0ed19d6ac21930dd8c610bb3565b80600052600260205260ff612b8f336040600020610bb3565b600090808252600260205260ff612c8c8460408520610bb3565b5416612ce7578082526002602052612ca78360408420610bb3565b805460ff1916600117905533926001600160a01b0316917f2f8788117e7eff1d82e926ec794901d17c78024a50270940304540a733656f0d9080a4600190565b50905090565b600090808252600260205260ff612d078460408520610bb3565b541615612ce7578082526002602052612d238360408420610bb3565b805460ff1916905533926001600160a01b0316917ff6391f5c32d9c69d2a47ea670b442974b53935d1edc7fd64eb21e047a839171b9080a4600190565b15612d6757565b60405162461bcd60e51b8152602060048201526015602482015274456d657267656e6379206d6f64652061637469766560581b6044820152606490fd5b15612dab57565b60405162461bcd60e51b815260206004820152601360248201527211551208185b5bdd5b9d081c995c5d5a5c9959606a1b6044820152606490fd5b81601f82011215610589578051612dfc81610758565b92612e0a6040519485610719565b81845260208284010111610589576113709160208085019101611317565b5190811515820361058957565b91909160c0818403126105895780516001600160401b03908181116105895784612e60918401612de6565b93602083015191821161058957612e78918301612de6565b9160408201519160608101519161137060a06080840151612e988161058e565b9301612e28565b6040513d6000823e3d90fd5b15612eb257565b60405162461bcd60e51b815260206004820152601260248201527150726f64756374206e6f742061637469766560701b6044820152606490fd5b15612ef357565b60405162461bcd60e51b815260206004820152600f60248201526e125b9d985b1a59081c1c9bd91d58dd608a1b6044820152606490fd5b15612f3157565b60405162461bcd60e51b815260206004820152601660248201527510d85b9b9bdd08189d5e481bdddb881c1c9bd91d58dd60521b6044820152606490fd5b634e487b7160e01b600052601160045260246000fd5b908160011b9180830460021490151715612f9b57565b612f6f565b81810292918115918404141715612f9b57565b600019810191908211612f9b57565b601f19810191908211612f9b57565b91908203918211612f9b57565b15612fe557565b60405162461bcd60e51b8152602060048201526014602482015273125b9cdd59999a58da595b9d081c185e5b595b9d60621b6044820152606490fd5b9081526001600160a01b03909116602082015260400190565b60ff6001541661304657565b60405163d93c066560e01b8152600490fd5b600260005414613069576002600055565b604051633ee5aeb560e01b8152600490fd5b1561308257565b60405162461bcd60e51b81526020600482015260146024820152731554d110c8185b5bdd5b9d081c995c5d5a5c995960621b6044820152606490fd5b60405163a9059cbb60e01b60208201526001600160a01b03909216602483015260448083019390935291815260808101916001600160401b038311828410176106c25761074992604052613168565b6040516323b872dd60e01b60208201526001600160a01b0392831660248201529290911660448301526064808301939093529181526107499161314f826106fe565b613168565b908160209103126105895761137090612e28565b6000806131b29260018060a01b03169360208151910182865af13d15613209573d9061319382610758565b916131a16040519384610719565b82523d6000602084013e5b83613234565b80519081151591826131eb575b50506131c85750565b604051635274afe760e01b81526001600160a01b03919091166004820152602490fd5b6132029250906020806110e3938301019101613154565b38806131bf565b6060906131ac565b60405190602082016001600160401b038111838210176106c25760405260008252565b9061325b575080511561324957805190602001fd5b604051630a12f52160e11b8152600490fd5b8151158061328e575b61326c575090565b604051639996b31560e01b81526001600160a01b039091166004820152602490fd5b50803b15613264565b1561329e57565b60405162461bcd60e51b8152602060048201526011602482015270125b9d985b1a5908195cd8dc9bddc81251607a1b6044820152606490fd5b156132de57565b60405162461bcd60e51b8152602060048201526011602482015270457363726f77206e6f742061637469766560781b6044820152606490fd5b61331f613058565b8060005260086020526040600020906005820160ff815460a01c1661334381610472565b6133bd57805460ff60a01b1916600160a01b17905561338a6133786001600285019461150d6133728754610450565b866153e1565b92546001600160a01b03918291610450565b169216907f738ba01ee7e222df0b0e25881ef74644913e4b9839d8180e03cc1fcb925a7f1f600080a46107496001600055565b60405162461bcd60e51b815260206004820152600e60248201526d496e76616c69642073746174757360901b6044820152606490fd5b90600581101561047c57815460ff60a01b191660a09190911b60ff60a01b16179055565b1561341e57565b60405162461bcd60e51b815260206004820152601a602482015279496e76616c69642073746174757320666f72206469737075746560301b6044820152606490fd5b6000198114612f9b5760010190565b80546001600160a01b0319166001600160a01b03909216919091179055565b818110613499575050565b6000815560010161348e565b90601f82116134b2575050565b6107499160126000526020600020906020601f840160051c830193106134e0575b601f0160051c019061348e565b90915081906134d3565b90601f82116134f7575050565b6107499160116000526020600020906020601f840160051c830193106134e057601f0160051c019061348e565b90601f8211613531575050565b6107499160106000526020600020906020601f840160051c830193106134e057601f0160051c019061348e565b9190601f811161356d57505050565b610749926000526020600020906020601f840160051c830193106134e057601f0160051c019061348e565b81519192916001600160401b0381116106c2576135bf816135b9845461122c565b8461355e565b602080601f83116001146135fb5750819293946000926135f0575b50508160011b916000199060031b1c1916179055565b0151905038806135da565b90601f1983169561361185600052602060002090565b926000905b88821061364e57505083600195969710613635575b505050811b019055565b015160001960f88460031b161c1916905538808061362b565b80600185968294968601518155019501930190613616565b90600481101561047c5760ff80198354169116179055565b1561368557565b60405162461bcd60e51b8152602060048201526018602482015277111a5cdc1d5d1948185b1c9958591e481c995cdbdb1d995960421b6044820152606490fd5b156136cc57565b60405162461bcd60e51b81526020600482015260116024820152702737ba1030b71030b93134ba3930ba37b960791b6044820152606490fd5b1561370c57565b60405162461bcd60e51b815260206004820152600d60248201526c105b1c9958591e481d9bdd1959609a1b6044820152606490fd5b1561374857565b60405162461bcd60e51b815260206004820152600f60248201526e496e76616c6964206f7574636f6d6560881b6044820152606490fd5b9062093a808201809211612f9b57565b9060018201809211612f9b57565b9060208201809211612f9b57565b90600c8201809211612f9b57565b6002019081600211612f9b57565b6003019081600311612f9b57565b91908201809211612f9b57565b90816020910312610589575190565b6003600d541061391f576040516305d3b1d360e41b81527f000000000000000000000000000000000000000000000000000000000000000060048201527f00000000000000000000000000000000000000000000000000000000000000006001600160401b03166024820152600360448201527f000000000000000000000000000000000000000000000000000000000000000063ffffffff1660648201526001608482015260208160a48160006001600160a01b037f0000000000000000000000000000000000000000000000000000000000000000165af180156111aa576138ee916000916138f1575b50600052600c602052604060002090565b55565b613912915060203d8111613918575b61390a8183610719565b8101906137e2565b386138dd565b503d613900565b60405162461bcd60e51b8152602060048201526018602482015277496e73756666696369656e742061726269747261746f727360401b6044820152606490fd5b1561396657565b60405162461bcd60e51b8152602060048201526013602482015272125b9d985b1a5908159491881c995c5d595cdd606a1b6044820152606490fd5b906139ab82610cbd565b6139b86040519182610719565b82815280926139c9601f1991610cbd565b0190602036910137565b6040519061066082016001600160401b038111838210176106c25760405260328252610640366020840137565b805115610bfb5760200190565b805160011015610bfb5760400190565b805160021015610bfb5760600190565b805160031015610bfb5760800190565b8051821015610bfb5760209160051b010190565b8115613a5b570690565b634e487b7160e01b600052601260045260246000fd5b6001600160a01b039091169052565b8151916001600160401b0383116106c257600160401b83116106c2578154838355808410613ae4575b50602080910191600052806000209060005b848110613ac9575050505050565b83516001600160a01b03168382015592810192600101613abb565b613afc9083600052846020600020918201910161348e565b38613aa9565b929190613b19602091604086526040860190612027565b930152565b80546001600160401b0319166001600160401b03909216919091179055565b600582101561047c5752565b9061074960ff6008613b5961073c565b9480548652613b77613b6e6001830154610450565b60208801613a71565b613b90613b876002830154610450565b60408801613a71565b60038101546060870152600481015460808701526005810154613bd2908490613bc56001600160a01b03821660a08b01613a71565b60a01c1660c08801613b3d565b600681015460e0870152600781015461010087015201546001600160401b03811661012086015260401c161515610140840152565b6040519060e082016001600160401b038111838210176106c257604052606060c08360008152600060208201526000604082015282808201528260808201528260a08201520152565b60405190613c5d826106fe565b600482528160005b60808110613c71575050565b806060602080938501015201613c65565b613c8d60125461122c565b15613dd7577fbfae492b07686184177c8c7ac4b79760e14e283ded61951899f0e3bad0b88266613dd2613db3613d91613cc585610430565b613d8c6001820154613d72613d6d6002613ce6613ce185610440565b613b49565b95613d326060613cf4613c07565b98613d06613d006117a3565b8b61419e565b613d17613d11613c50565b98615a97565b613d2089613a00565b52613d2a88613a00565b500151615a97565b613d3b86613a0d565b52613d4585613a0d565b50613d52600382016112fc565b613d5b86613a1d565b52613d6585613a1d565b500154610450565b615b7e565b613d7b82613a2d565b52613d8581613a2d565b50826141c7565b613fcb565b60135460145491604082901c63ffffffff16916001600160401b031690613dda565b83613dc8826000526015602052604060002090565b55611b9f81600f55565b0390a2565b50565b60405163230e93b160e11b81526001600160401b03909216600483015260a060248301529092602092849283929063ffffffff90613e1c9060a486019061133a565b60016044860152921660648401526084830152038160007f00000000000000000000000000000000000000000000000000000000000000006001600160a01b03165af19081156111aa57600091613e98575b50807f1131472297a800fee664d1d89cfa8f7676ff07189ecc53f80bbb5f4969099db8600080a290565b613eb0915060203d81116139185761390a8183610719565b38613e6e565b60405190613ec3826106e3565b600c82526b31b7b232a637b1b0ba34b7b760a11b6020830152565b6003111561047c57565b60405190613ef5826106e3565b60088252676c616e677561676560c01b6020830152565b6001111561047c57565b60405190613f23826106e3565b6006825265736f7572636560d01b6020830152565b60405190613f45826106e3565b60048252636172677360e01b6020830152565b60405190613f65826106e3565b600f82526e39b2b1b932ba39a637b1b0ba34b7b760891b6020830152565b60405190613f90826106e3565b60078252667365637265747360c81b6020830152565b60405190613fb3826106e3565b600982526862797465734172677360b81b6020830152565b613fd3614200565b90613fe5613fdf613eb6565b83614915565b6140028151613ff381613ede565b613ffc81613ede565b836142a2565b61400d613fdf613ee8565b614027604082015161401e81613f0c565b613ffc81613f0c565b614032613fdf613f16565b614040606082015183614915565b60a08101805151614145575b5060808101908151516140c5575b60c091500180515161406d575b50515190565b91614079613fdf613fa6565b61408282614999565b60005b835180518210156140b257906140a86140a1826140ad94613a3d565b5185614863565b613460565b614085565b505091506140bf81614a25565b38614067565b6020810180516140d481613ede565b6140dd81613ede565b156141335760c09261411661412e926140fd6140f7613f58565b88614915565b5161410781613ede565b61411081613ede565b866142a2565b614127614121613f83565b86614915565b5184614863565b61405a565b60405163a80d31f760e01b8152600490fd5b92614157614151613f38565b84614915565b61416083614999565b60005b8451805182101561418b57906140a861417f8261418694613a3d565b5186614915565b614163565b5050925061419882614a25565b3861404c565b8151156141b5576000808252604082015260600152565b6040516322ce3edd60e01b8152600490fd5b8151156141d45760a00152565b60405163fe936cb760e01b8152600490fd5b604051906141f3826106e3565b6000602083606081520152565b60405161420c816106e3565b6142146141e6565b80825260208201600081526142276141e6565b506101006020830152604051809252600082526101208201918210610589576000916040525290565b906142596141e6565b50601f811680614288575b50806020830152604051908183526000825281016020019081106105895760405290565b60200360208111612f9b578101809111612f9b5738614264565b908151916142ae6141e6565b508251516001810190818111612f9b576020850151811015614307575b60c2602061074996519283010153805182116142ff575b5050604051916020830152602082526142fa826106e3565b614863565b5238806142e2565b8160011b9482860460021483151715612f9b576020816143396107499861433260c295519184614250565b50826147ab565b50965050506142cb565b61434b6141e6565b508051516001810190818111612f9b576020830151811015614384575b605b6020845192830101538051821161438057505090565b5290565b8160011b82810460021483151715612f9b576143ad906143a685519186614250565b50846147ab565b50614368565b6143bb6141e6565b508051516001810190818111612f9b5760208301518110156143f0575b605a6020845192830101538051821161438057505090565b8160011b82810460021483151715612f9b57614412906143a685519186614250565b506143d8565b6144206141e6565b508051516001810190818111612f9b576020830151811015614455575b60596020845192830101538051821161438057505090565b8160011b82810460021483151715612f9b57614477906143a685519186614250565b5061443d565b6144856141e6565b508051516001810190818111612f9b5760208301518110156144ba575b60586020845192830101538051821161438057505090565b8160011b82810460021483151715612f9b576144dc906143a685519186614250565b506144a2565b6144ea6141e6565b508051516001810190818111612f9b57602083015181101561451f575b607b6020845192830101538051821161438057505090565b8160011b82810460021483151715612f9b57614541906143a685519186614250565b50614507565b61454f6141e6565b508051516001810190818111612f9b576020830151811015614584575b607a6020845192830101538051821161438057505090565b8160011b82810460021483151715612f9b576145a6906143a685519186614250565b5061456c565b6145b46141e6565b508051516001810190818111612f9b5760208301518110156145e9575b60796020845192830101538051821161438057505090565b8160011b82810460021483151715612f9b5761460b906143a685519186614250565b506145d1565b6146196141e6565b508051516001810190818111612f9b57602083015181101561464e575b60786020845192830101538051821161438057505090565b8160011b82810460021483151715612f9b57614670906143a685519186614250565b50614636565b9061467f6141e6565b508151516001810191828211612f9b5760208401518210156146b2575b6020845192830101538051821161438057505090565b8260011b83810460021484151715612f9b576146db906146d486519187614250565b50856147ab565b5061469c565b906146ee82519183614250565b506146f76141e6565b508051906147036141e6565b50614711815183111561485c565b8251519261471f83856137d5565b916020928284809401518211614794575b518381519782010196821161478c575b505001915b818110156147665760001991036101000a0190811990511690825116179052565b919261478161477b614787928651815261379d565b9461379d565b92612fc2565b614745565b523880614740565b6147a66147a083612f85565b826146e1565b614730565b906147b46141e6565b5080516147bf6141e6565b506147cd825182111561485c565b825151916147db82846137d5565b6020918291828701518111614845575b86518381519782010196821161483d575b505001915b818110156148235760001991036101000a019081199051169082511617905290565b919261478161477b614838928651815261379d565b614801565b5238806147fc565b61485761485182612f85565b886146e1565b6147eb565b1561058957565b8151613dd79291906001600160401b038116906017821161489a576148929150604060ff845192161790614676565b505b516147ab565b5060ff81116148bf576148b9906148b1835161447d565b508251614bef565b50614894565b61ffff81116148de576148b9906148d68351614418565b508251614b88565b63ffffffff81116148ff576148b9906148f783516143b3565b508251614b1f565b6148b99061490d8351614343565b508251614ab2565b8151613dd79291906001600160401b0381169060178211614944576148929150606060ff845192161790614676565b5060ff811161495b576148b9906148b18351614611565b61ffff8111614972576148b9906148d683516145ac565b63ffffffff811161498b576148b9906148f78351614547565b6148b99061490d83516144e2565b8051906149a46141e6565b508151516001810190818111612f9b5760208401518110156149f2575b609f60208095519283010153805182116149ea575b50500180519060018201809211612f9b5752565b5238806149d6565b8160011b9382850460021483151715612f9b57602081614a1b8297614332609f95519184614250565b50955050506149c1565b805190614a306141e6565b508151516001810190818111612f9b576020840151811015614a7f575b60ff6020809551928301015380518211614a77575b5050018051600019810191908211612f9b5752565b523880614a62565b8160011b9382850460021483151715612f9b57602081614aa8829761433260ff95519184614250565b5095505050614a4d565b90614abb6141e6565b50815151806008019182600811612f9b5760208401518311614afe575b835191820160080180516001600160401b03191690911790528051821161438057505090565b8260011b83810460021484151715612f9b57614b1a90856146e1565b614ad8565b90614b286141e6565b50815151806004019182600411612f9b5760208401518311614b67575b60048451928301019063ffffffff198251161790528051821161438057505090565b8260011b83810460021484151715612f9b57614b8390856146e1565b614b45565b90614b916141e6565b50815151806002019182600211612f9b5760208401518311614bce575b60028451928301019061ffff198251161790528051821161438057505090565b8260011b83810460021484151715612f9b57614bea90856146e1565b614bae565b90614bf86141e6565b50815151806001019182600111612f9b5760208401518311614c34575b60018451928301019060ff198251161790528051821161438057505090565b8260011b83810460021484151715612f9b57614c5090856146e1565b614c15565b80519091906001600160401b0381116106c257614c7c81614c7760105461122c565b613524565b602080601f8311600114614cb85750819293600092614cad575b50508160011b916000199060031b1c191617601055565b015190503880614c96565b6010600052601f19831694909190600080516020615d8d833981519152926000905b878210614d12575050836001959610614cf9575b505050811b01601055565b015160001960f88460031b161c19169055388080614cee565b80600185968294968601518155019501930190614cda565b60409061137093928152816020820152019061133a565b9091805180614dbb575050614d5582614c55565b614d69816000526015602052604060002090565b549182614d7557505050565b7f6880f92a59f51305c21e4448832efe8074851e9f72504d787a533585c36993fe91614dac82600b614da687610430565b01613598565b613dd260405192839283614d2a565b9093925090506001600160401b0381116106c257614de381614dde60115461122c565b6134ea565b602080601f8311600114614e1f5750819293600092614e14575b50508160011b916000199060031b1c191617601155565b015190503880614dfd565b6011600052601f19831694909190600080516020615ced833981519152926000905b878210614e79575050836001959610614e60575b505050811b01601155565b015160001960f88460031b161c19169055388080614e55565b80600185968294968601518155019501930190614e41565b614ea0601654601754906137d5565b4210614fdc57614eae6139d3565b90600091600192838080600654915b614f37575b50505080614ed95750509050600090611370613211565b614ee2816139a1565b9160005b828110614f195750505091614f15614f079360405194859160208301610f82565b03601f198101855284610719565b9190565b80614f27614f329284613a3d565b51610ee78287613a3d565b614ee6565b81811080614fd2575b15614fcd57614f51613ce182610440565b61014081015115159081614fad575b81614f96575b50614f7b575b614f7590613460565b82614ebd565b92614f8e8185610ee7614f759489613a3d565b939050614f6c565b614fa4915060e0015161377f565b42101538614f66565b905060c0810151614fbd81610472565b614fc681610472565b1590614f60565b614ec2565b5060328410614f40565b600090611370613211565b906020828203126105895781356001600160401b038111610589576113709201610cd4565b9081602091031261058957516113708161058e565b606081015161503a6020918280825183010191016137e2565b916080810151805115610bfb57613dd26150be846040817f5db9a9e6c2b0d890596fc58894fdf9f76c81d3a24ac8d0f9197a7a02da809b2c976008960151015195881515806150ef575b61508d90613297565b6150af6150998a610440565b828501516001600160401b031697889101613b1e565b0151805181018201910161500c565b604080516001600160401b0390941684526001600160a01b0390911660208401528201929092529081906060820190565b506006548910615084565b906151bb6101406008610749948451815561512461511b6020870151610450565b6001830161346f565b61513d6151346040870151610450565b6002830161346f565b60608501516003820155608085015160048201556151826005820161516e61516860a0890151610450565b8261346f565b60c08701519061517d82610472565b6133f3565b60e085015160068201556101008501516007820155610120850151910193906151b4906001600160401b031685613b1e565b0151151590565b815460ff60401b191690151560401b60ff60401b16179055565b8054600160401b8110156106c2576151f291600182018155610c00565b819291549060031b91821b91600019901b1916179055565b9190600080516020615c8d83398151915260065494859261523261522d85613460565b600655565b6152a661523d61073c565b85815261524d8860208301613a71565b61525a8360408301613a71565b866060820152836080820152600060a0820152600060c08201524260e082015260006101008201526000610120820152615298610140820160019052565b6152a186610440565b6150fa565b6152b8846152b388610b7f565b6151d5565b6152c5846152b383610b99565b6040805195865260208601929092526000918501919091526001600160a01b0390811694169280606081015b0390a490565b92600080516020615c8d833981519152906152f1959260065496879461531f61522d87613460565b61539461532a61073c565b87815261533a8a60208301613a71565b6153478560408301613a71565b8860608201528560808201526153608360a08301613a71565b600060c08201524260e08201526000610100820152600061012082015261538b610140820160019052565b6152a188610440565b6153a1866152b38a610b7f565b6153ae866152b385610b99565b6040805197885260208801949094526001600160a01b039081169387019390935290821695909116939081906060820190565b6153ea81610440565b60058101805490936001600160a01b039182168061546c575060008080806004870154818115615463575b87871690f1156111aa5761545e6154506004600080516020615ccd833981519152955b60088101805460ff60401b1916905501549654610450565b604051938493169683613021565b0390a3565b506108fc615415565b61545060048561549361545e948684600080516020615ccd8339815191529a0154916130be565b615438565b9092916020906154ac836040810196611856565b6001600160a01b0316910152565b6154c381610430565b906001808301906154d48254610440565b906000808080600589019081549160068b01915b83811061579557505050508281118061578c575b156157625750505080945b6155148660048301613666565b600c8101805460ff1916600117905542600a919091015560058201805460ff60a01b1916600360a01b1781556155498661184c565b85820361558c57509161557c61545e92615576600080516020615d0d833981519152958454920154610450565b906153e1565b5493604051918291309083615498565b6155958661184c565b600286036155ca575050816155c561545e926155766002600080516020615d0d8339815191529654920154610450565b61557c565b6004830180549094929060011c82546001600160a01b03919082906155ee90610450565b16806156f8575060008080808461560d611a99611a998a8e0154610450565b8282156156ef575bf1156111aa576000808080615633611a99611a9960028d0154610450565b61563e868d54612fd1565b908282156156e6575bf1156111aa57600080516020615d0d833981519152966156de6156cf84936156c8600261545e9b6156929a5b60088201805460ff60401b191690556156998d549c8d9c840154610450565b9154610450565b9b8c91604051806156be600080516020615ccd8339815191529e8f9416958a83613021565b0390a30154610450565b9354612fd1565b95604051938493169683613021565b0390a361557c565b506108fc615647565b506108fc615615565b966156de6156cf836156c860028b6156929a615730600080516020615d0d8339815191529f9961545e9f9a6127778e8e9d0154610450565b61575d615740611a998354610450565b61574c85850154610450565b615757888c54612fd1565b916130be565b615673565b82119182615782575b50501561577a57600294615507565b600394615507565b119050388061576b565b508181116154fc565b6157a2610eb48284610c00565b6157af6110dc8286610bb3565b6157c3575b506157be90613460565b6154e8565b60078d96929601896157d86110dc8484610bb3565b6157e18161184c565b036157fc5750506157f46157be91613460565b945b906157b4565b600261580f6110dc84849c969a9c610bb3565b6158188161184c565b0361583157505061582b6157be91613460565b966157f6565b6110dc600392615843929a949a610bb3565b61584c8161184c565b1461585b575b6157be906157f6565b946158686157be91613460565b959050615852565b60005260096020526040600020906005600092018054925b8381106158985750505050600090565b6158a28183610c00565b905460039190911b1c6001600160a01b03908116908416146158cc576158c790613460565b615888565b50505050600190565b600d5490600160401b8210156106c2576001820180600d55821015610bfb57600d60005261074991600080516020615d2d8339815191520161346f565b600d548015615954576000198181019180831015610bfb57600d60008190529101600080516020615d2d8339815191520180546001600160a01b031916905555565b634e487b7160e01b600052603160045260246000fd5b1561597157565b60405162461bcd60e51b8152602060048201526019602482015278456d657267656e6379206d6f6465206e6f742061637469766560381b6044820152606490fd5b156159b957565b60405162461bcd60e51b815260206004820152601160248201527020b63932b0b23c903bb4ba34323930bbb760791b6044820152606490fd5b9060405191828154918282526020928383019160005283600020936000905b828210615a275750505061074992500383610719565b85546001600160a01b031684526001958601958895509381019390910190615a11565b60405190606082016001600160401b038111838210176106c257604052602a8252604082602036910137565b805160011015610bfb5760210190565b908151811015610bfb570160200190565b8015615b3457806000908282935b615b205750615ab383610758565b92615ac16040519485610719565b80845281601f19615ad183610758565b013660208701375b615ae35750505090565b615aec90612fb3565b90600a9060308282068101809111612f9b5760f81b6001600160f81b031916841a615b178487615a86565b53049081615ad9565b92615b2c600a91613460565b930480615aa5565b50604051615b41816106e3565b60018152600360fc1b602082015290565b60405190615b5f826106e3565b601082526f181899199a1a9b1b9c1cb0b131b232b360811b6020830152565b6001600160a01b0316615b8f615b52565b615b97615a4a565b916030615ba384613a00565b536078615baf84615a76565b53600090815b60148110615bc4575050505090565b615bcd816137ab565b9060209182811015610bfb57615bff615bf18592600f9384911a60041c1688615a86565b516001600160f81b03191690565b615c1d615c13615c0e85612f85565b6137b9565b91871a9189615a86565b53615c27826137ab565b92831015610bfb57615bf1615c439185615c67951a1687615a86565b615c61615c57615c5284612f85565b6137c7565b91861a9188615a86565b53613460565b615bb556febb8a6a4669ba250d26cd7a459eca9d215f8307e33aebe50379bc5a3617ec3444c74eacceba2e61e3a12f6efe836a97068ff990882e14fb3887033b6fcac1b820bf233dd2aafeb4d50879c4aa5c81e96d92f6e6945c906a58f9f2d1c1631b4b266ca1f494d34ac73337cb6805183bc8efe65d2dcd464ff05ffe6c5fbc3b2cf2d331ecc21a745e3968a04e9570e4425bc18fa8019c68028196b546d1669c200c687dc7ef709ed70af0e3aca8355c0b8973c38220c136b84b339fa731a8dbdd6f39d7b6990105719101dabeb77144f2a3385c8033acd3af97e9423a695e81ad1eb571f3d55856e4058ed06ee057d79ada615f65cdf5f9ee88181b914225088f834fdbccaefb1abc2f6274361d6827404729d9fb6ad15f2ea47f8c5a417e1a3fe3bc1b6847dc741a1b0cd08d278845f9d819d87b734759afb55fe2de5cb82a9ae672a264697066735822122012c01b65a97225138f5eee685fcb296f3bb23d3e6bf06669a7d74e3b37cdc23c64736f6c634300081400332f8788117e7eff1d82e926ec794901d17c78024a50270940304540a733656f0d",
  "devdoc": {
    "author": "AI Marketplace Team",
    "details": "Comprehensive escrow system for AI marketplace with Chainlink integrations",
    "errors": {
      "AccessControlBadConfirmation()": [
        {
          "details": "The caller of a function is not the expected one. NOTE: Don't confuse with {AccessControlUnauthorizedAccount}."
        }
      ],
      "AccessControlUnauthorizedAccount(address,bytes32)": [
        {
          "details": "The `account` is missing a role."
        }
      ],
      "AddressEmptyCode(address)": [
        {
          "details": "There's no code at `target` (it is not a contract)."
        }
      ],
      "AddressInsufficientBalance(address)": [
        {
          "details": "The ETH balance of the account is not enough to perform the operation."
        }
      ],
      "EnforcedPause()": [
        {
          "details": "The operation failed because the contract is paused."
        }
      ],
      "ExpectedPause()": [
        {
          "details": "The operation failed because the contract is not paused."
        }
      ],
      "FailedInnerCall()": [
        {
          "details": "A call to an address target failed. The target may have reverted."
        }
      ],
      "ReentrancyGuardReentrantCall()": [
        {
          "details": "Unauthorized reentrant call."
        }
      ],
      "SafeERC20FailedOperation(address)": [
        {
          "details": "An operation with an ERC20 token failed."
        }
      ]
    },
    "events": {
      "Paused(address)": {
        "details": "Emitted when the pause is triggered by `account`."
      },
      "RoleAdminChanged(bytes32,bytes32,bytes32)": {
        "details": "Emitted when `newAdminRole` is set as ``role``'s admin role, replacing `previousAdminRole` `DEFAULT_ADMIN_ROLE` is the starting admin for all roles, despite {RoleAdminChanged} not being emitted signaling this."
      },
      "RoleGranted(bytes32,address,address)": {
        "details": "Emitted when `account` is granted `role`. `sender` is the account that originated the contract call, an admin role bearer except when using {AccessControl-_setupRole}."
      },
      "RoleRevoked(bytes32,address,address)": {
        "details": "Emitted when `account` is revoked `role`. `sender` is the account that originated the contract call:   - if using `revokeRole`, it is the admin role bearer   - if using `renounceRole`, it is the role bearer (i.e. `account`)"
      },
      "Unpaused(address)": {
        "details": "Emitted when the pause is lifted by `account`."
      }
    },
    "kind": "dev",
    "methods": {
      "addArbitrator(address)": {
        "details": "Add arbitrator"
      },
      "ccipReceive((bytes32,uint64,bytes,bytes,(address,uint256)[]))": {
        "details": "Note ensure you check the msg.sender is the OffRampRouter.",
        "params": {
          "message": "CCIP Message."
        }
      },
      "checkUpkeep(bytes)": {
        "details": "Check if upkeep is needed"
      },
      "confirmDelivery(uint256)": {
        "details": "Confirm delivery (buyer only)"
      },
      "createDispute(uint256,string)": {
        "details": "Create dispute"
      },
      "createEscrowETH(uint256)": {
        "details": "Create escrow with ETH payment"
      },
      "createEscrowUSDC(uint256,uint256)": {
        "details": "Create escrow with USDC payment"
      },
      "emergencyPause()": {
        "details": "Emergency pause"
      },
      "emergencyUnpause()": {
        "details": "Emergency unpause"
      },
      "emergencyWithdraw(uint256,address)": {
        "details": "Emergency withdrawal of stuck funds"
      },
      "getAvailableArbitrators()": {
        "details": "Get available arbitrators"
      },
      "getDispute(uint256)": {
        "details": "Get dispute details"
      },
      "getEscrow(uint256)": {
        "details": "Get escrow details"
      },
      "getRoleAdmin(bytes32)": {
        "details": "Returns the admin role that controls `role`. See {grantRole} and {revokeRole}. To change a role's admin, use {_setRoleAdmin}."
      },
      "getRouter()": {
        "returns": {
          "_0": "CCIP router address"
        }
      },
      "getSellerEscrows(address)": {
        "details": "Get seller's escrows"
      },
      "getUserEscrows(address)": {
        "details": "Get user's escrows"
      },
      "grantRole(bytes32,address)": {
        "details": "Grants `role` to `account`. If `account` had not been already granted `role`, emits a {RoleGranted} event. Requirements: - the caller must have ``role``'s admin role. May emit a {RoleGranted} event."
      },
      "handleOracleFulfillment(bytes32,bytes,bytes)": {
        "details": "Either response or error parameter will be set, but never both.",
        "params": {
          "err": "Aggregated error either from the request's source code or from the execution pipeline.",
          "requestId": "The requestId returned by FunctionsClient.sendRequest().",
          "response": "Aggregated response from the request's source code."
        }
      },
      "hasRole(bytes32,address)": {
        "details": "Returns `true` if `account` has been granted `role`."
      },
      "initializeFunctions(string,uint64,uint32,bytes32)": {
        "details": "Initialize Chainlink Functions configuration"
      },
      "paused()": {
        "details": "Returns true if the contract is paused, and false otherwise."
      },
      "performUpkeep(bytes)": {
        "details": "Perform upkeep (auto-release funds)"
      },
      "removeArbitrator(address)": {
        "details": "Remove arbitrator"
      },
      "renounceRole(bytes32,address)": {
        "details": "Revokes `role` from the calling account. Roles are often managed via {grantRole} and {revokeRole}: this function's purpose is to provide a mechanism for accounts to lose their privileges if they are compromised (such as when a trusted device is misplaced). If the calling account had been revoked `role`, emits a {RoleRevoked} event. Requirements: - the caller must be `callerConfirmation`. May emit a {RoleRevoked} event."
      },
      "revokeRole(bytes32,address)": {
        "details": "Revokes `role` from `account`. If `account` had been granted `role`, emits a {RoleRevoked} event. Requirements: - the caller must have ``role``'s admin role. May emit a {RoleRevoked} event."
      },
      "setFeeRecipient(address)": {
        "details": "Set fee recipient"
      },
      "setPlatformFee(uint256)": {
        "details": "Set platform fee"
      },
      "supportsInterface(bytes4)": {
        "details": "See {IERC165-supportsInterface}"
      },
      "toggleEmergencyMode()": {
        "details": "Toggle emergency mode"
      },
      "voteOnDispute(uint256,uint8)": {
        "details": "Vote on dispute (arbitrators only)"
      }
    },
    "title": "EscrowManager",
    "version": 1
  },
  "userdoc": {
    "kind": "user",
    "methods": {
      "ccipReceive((bytes32,uint64,bytes,bytes,(address,uint256)[]))": {
        "notice": "Called by the Router to deliver a message. If this reverts, any token transfers also revert. The message will move to a FAILED state and become available for manual execution."
      },
      "getRouter()": {
        "notice": "Return the current router"
      },
      "handleOracleFulfillment(bytes32,bytes,bytes)": {
        "notice": "Chainlink Functions response handler called by the Functions Router during fullilment from the designated transmitter node in an OCR round."
      }
    },
    "version": 1
  },
  "storageLayout": {
    "storage": [
      {
        "astId": 3975,
        "contract": "contracts/core/EscrowManager.sol:EscrowManager",
        "label": "_status",
        "offset": 0,
        "slot": "0",
        "type": "t_uint256"
      },
      {
        "astId": 3856,
        "contract": "contracts/core/EscrowManager.sol:EscrowManager",
        "label": "_paused",
        "offset": 0,
        "slot": "1",
        "type": "t_bool"
      },
      {
        "astId": 2808,
        "contract": "contracts/core/EscrowManager.sol:EscrowManager",
        "label": "_roles",
        "offset": 0,
        "slot": "2",
        "type": "t_mapping(t_bytes32,t_struct(RoleData)2803_storage)"
      },
      {
        "astId": 7820,
        "contract": "contracts/core/EscrowManager.sol:EscrowManager",
        "label": "productRegistry",
        "offset": 0,
        "slot": "3",
        "type": "t_contract(IProductRegistry)7598"
      },
      {
        "astId": 7823,
        "contract": "contracts/core/EscrowManager.sol:EscrowManager",
        "label": "aiRecommendations",
        "offset": 0,
        "slot": "4",
        "type": "t_contract(IAIRecommendations)7611"
      },
      {
        "astId": 7826,
        "contract": "contracts/core/EscrowManager.sol:EscrowManager",
        "label": "usdcToken",
        "offset": 0,
        "slot": "5",
        "type": "t_contract(IERC20)3238"
      },
      {
        "astId": 7829,
        "contract": "contracts/core/EscrowManager.sol:EscrowManager",
        "label": "nextEscrowId",
        "offset": 0,
        "slot": "6",
        "type": "t_uint256"
      },
      {
        "astId": 7832,
        "contract": "contracts/core/EscrowManager.sol:EscrowManager",
        "label": "nextDisputeId",
        "offset": 0,
        "slot": "7",
        "type": "t_uint256"
      },
      {
        "astId": 7846,
        "contract": "contracts/core/EscrowManager.sol:EscrowManager",
        "label": "escrows",
        "offset": 0,
        "slot": "8",
        "type": "t_mapping(t_uint256,t_struct(Escrow)7679_storage)"
      },
      {
        "astId": 7851,
        "contract": "contracts/core/EscrowManager.sol:EscrowManager",
        "label": "disputes",
        "offset": 0,
        "slot": "9",
        "type": "t_mapping(t_uint256,t_struct(Dispute)7713_storage)"
      },
      {
        "astId": 7856,
        "contract": "contracts/core/EscrowManager.sol:EscrowManager",
        "label": "userEscrows",
        "offset": 0,
        "slot": "10",
        "type": "t_mapping(t_address,t_array(t_uint256)dyn_storage)"
      },
      {
        "astId": 7861,
        "contract": "contracts/core/EscrowManager.sol:EscrowManager",
        "label": "sellerEscrows",
        "offset": 0,
        "slot": "11",
        "type": "t_mapping(t_address,t_array(t_uint256)dyn_storage)"
      },
      {
        "astId": 7877,
        "contract": "contracts/core/EscrowManager.sol:EscrowManager",
        "label": "vrfRequestToDisputeId",
        "offset": 0,
        "slot": "12",
        "type": "t_mapping(t_uint256,t_uint256)"
      },
      {
        "astId": 7880,
        "contract": "contracts/core/EscrowManager.sol:EscrowManager",
        "label": "availableArbitrators",
        "offset": 0,
        "slot": "13",
        "type": "t_array(t_address)dyn_storage"
      },
      {
        "astId": 7884,
        "contract": "contracts/core/EscrowManager.sol:EscrowManager",
        "label": "isArbitrator",
        "offset": 0,
        "slot": "14",
        "type": "t_mapping(t_address,t_bool)"
      },
      {
        "astId": 7886,
        "contract": "contracts/core/EscrowManager.sol:EscrowManager",
        "label": "s_lastRequestId",
        "offset": 0,
        "slot": "15",
        "type": "t_bytes32"
      },
      {
        "astId": 7888,
        "contract": "contracts/core/EscrowManager.sol:EscrowManager",
        "label": "s_lastResponse",
        "offset": 0,
        "slot": "16",
        "type": "t_bytes_storage"
      },
      {
        "astId": 7890,
        "contract": "contracts/core/EscrowManager.sol:EscrowManager",
        "label": "s_lastError",
        "offset": 0,
        "slot": "17",
        "type": "t_bytes_storage"
      },
      {
        "astId": 7892,
        "contract": "contracts/core/EscrowManager.sol:EscrowManager",
        "label": "aiDisputeSourceCode",
        "offset": 0,
        "slot": "18",
        "type": "t_string_storage"
      },
      {
        "astId": 7894,
        "contract": "contracts/core/EscrowManager.sol:EscrowManager",
        "label": "functionsSubscriptionId",
        "offset": 0,
        "slot": "19",
        "type": "t_uint64"
      },
      {
        "astId": 7896,
        "contract": "contracts/core/EscrowManager.sol:EscrowManager",
        "label": "functionsGasLimit",
        "offset": 8,
        "slot": "19",
        "type": "t_uint32"
      },
      {
        "astId": 7898,
        "contract": "contracts/core/EscrowManager.sol:EscrowManager",
        "label": "functionsDonID",
        "offset": 0,
        "slot": "20",
        "type": "t_bytes32"
      },
      {
        "astId": 7902,
        "contract": "contracts/core/EscrowManager.sol:EscrowManager",
        "label": "functionsRequestToDisputeId",
        "offset": 0,
        "slot": "21",
        "type": "t_mapping(t_bytes32,t_uint256)"
      },
      {
        "astId": 7904,
        "contract": "contracts/core/EscrowManager.sol:EscrowManager",
        "label": "lastUpkeepTimestamp",
        "offset": 0,
        "slot": "22",
        "type": "t_uint256"
      },
      {
        "astId": 7907,
        "contract": "contracts/core/EscrowManager.sol:EscrowManager",
        "label": "upkeepInterval",
        "offset": 0,
        "slot": "23",
        "type": "t_uint256"
      },
      {
        "astId": 7910,
        "contract": "contracts/core/EscrowManager.sol:EscrowManager",
        "label": "platformFeePercentage",
        "offset": 0,
        "slot": "24",
        "type": "t_uint256"
      },
      {
        "astId": 7915,
        "contract": "contracts/core/EscrowManager.sol:EscrowManager",
        "label": "feeRecipient",
        "offset": 0,
        "slot": "25",
        "type": "t_address"
      },
      {
        "astId": 7918,
        "contract": "contracts/core/EscrowManager.sol:EscrowManager",
        "label": "emergencyMode",
        "offset": 20,
        "slot": "25",
        "type": "t_bool"
      },
      {
        "astId": 7922,
        "contract": "contracts/core/EscrowManager.sol:EscrowManager",
        "label": "emergencyWithdrawn",
        "offset": 0,
        "slot": "26",
        "type": "t_mapping(t_uint256,t_bool)"
      }
    ],
    "types": {
      "t_address": {
        "encoding": "inplace",
        "label": "address",
        "numberOfBytes": "20"
      },
      "t_array(t_address)dyn_storage": {
        "base": "t_address",
        "encoding": "dynamic_array",
        "label": "address[]",
        "numberOfBytes": "32"
      },
      "t_array(t_uint256)dyn_storage": {
        "base": "t_uint256",
        "encoding": "dynamic_array",
        "label": "uint256[]",
        "numberOfBytes": "32"
      },
      "t_bool": {
        "encoding": "inplace",
        "label": "bool",
        "numberOfBytes": "1"
      },
      "t_bytes32": {
        "encoding": "inplace",
        "label": "bytes32",
        "numberOfBytes": "32"
      },
      "t_bytes_storage": {
        "encoding": "bytes",
        "label": "bytes",
        "numberOfBytes": "32"
      },
      "t_contract(IAIRecommendations)7611": {
        "encoding": "inplace",
        "label": "contract IAIRecommendations",
        "numberOfBytes": "20"
      },
      "t_contract(IERC20)3238": {
        "encoding": "inplace",
        "label": "contract IERC20",
        "numberOfBytes": "20"
      },
      "t_contract(IProductRegistry)7598": {
        "encoding": "inplace",
        "label": "contract IProductRegistry",
        "numberOfBytes": "20"
      },
      "t_enum(DisputeOutcome)7655": {
        "encoding": "inplace",
        "label": "enum EscrowManager.DisputeOutcome",
        "numberOfBytes": "1"
      },
      "t_enum(EscrowStatus)7650": {
        "encoding": "inplace",
        "label": "enum EscrowManager.EscrowStatus",
        "numberOfBytes": "1"
      },
      "t_mapping(t_address,t_array(t_uint256)dyn_storage)": {
        "encoding": "mapping",
        "key": "t_address",
        "label": "mapping(address => uint256[])",
        "numberOfBytes": "32",
        "value": "t_array(t_uint256)dyn_storage"
      },
      "t_mapping(t_address,t_bool)": {
        "encoding": "mapping",
        "key": "t_address",
        "label": "mapping(address => bool)",
        "numberOfBytes": "32",
        "value": "t_bool"
      },
      "t_mapping(t_address,t_enum(DisputeOutcome)7655)": {
        "encoding": "mapping",
        "key": "t_address",
        "label": "mapping(address => enum EscrowManager.DisputeOutcome)",
        "numberOfBytes": "32",
        "value": "t_enum(DisputeOutcome)7655"
      },
      "t_mapping(t_bytes32,t_struct(RoleData)2803_storage)": {
        "encoding": "mapping",
        "key": "t_bytes32",
        "label": "mapping(bytes32 => struct AccessControl.RoleData)",
        "numberOfBytes": "32",
        "value": "t_struct(RoleData)2803_storage"
      },
      "t_mapping(t_bytes32,t_uint256)": {
        "encoding": "mapping",
        "key": "t_bytes32",
        "label": "mapping(bytes32 => uint256)",
        "numberOfBytes": "32",
        "value": "t_uint256"
      },
      "t_mapping(t_uint256,t_bool)": {
        "encoding": "mapping",
        "key": "t_uint256",
        "label": "mapping(uint256 => bool)",
        "numberOfBytes": "32",
        "value": "t_bool"
      },
      "t_mapping(t_uint256,t_struct(Dispute)7713_storage)": {
        "encoding": "mapping",
        "key": "t_uint256",
        "label": "mapping(uint256 => struct EscrowManager.Dispute)",
        "numberOfBytes": "32",
        "value": "t_struct(Dispute)7713_storage"
      },
      "t_mapping(t_uint256,t_struct(Escrow)7679_storage)": {
        "encoding": "mapping",
        "key": "t_uint256",
        "label": "mapping(uint256 => struct EscrowManager.Escrow)",
        "numberOfBytes": "32",
        "value": "t_struct(Escrow)7679_storage"
      },
      "t_mapping(t_uint256,t_uint256)": {
        "encoding": "mapping",
        "key": "t_uint256",
        "label": "mapping(uint256 => uint256)",
        "numberOfBytes": "32",
        "value": "t_uint256"
      },
      "t_string_storage": {
        "encoding": "bytes",
        "label": "string",
        "numberOfBytes": "32"
      },
      "t_struct(Dispute)7713_storage": {
        "encoding": "inplace",
        "label": "struct EscrowManager.Dispute",
        "members": [
          {
            "astId": 7681,
            "contract": "contracts/core/EscrowManager.sol:EscrowManager",
            "label": "id",
            "offset": 0,
            "slot": "0",
            "type": "t_uint256"
          },
          {
            "astId": 7683,
            "contract": "contracts/core/EscrowManager.sol:EscrowManager",
            "label": "escrowId",
            "offset": 0,
            "slot": "1",
            "type": "t_uint256"
          },
          {
            "astId": 7685,
            "contract": "contracts/core/EscrowManager.sol:EscrowManager",
            "label": "initiator",
            "offset": 0,
            "slot": "2",
            "type": "t_address"
          },
          {
            "astId": 7687,
            "contract": "contracts/core/EscrowManager.sol:EscrowManager",
            "label": "reason",
            "offset": 0,
            "slot": "3",
            "type": "t_string_storage"
          },
          {
            "astId": 7690,
            "contract": "contracts/core/EscrowManager.sol:EscrowManager",
            "label": "outcome",
            "offset": 0,
            "slot": "4",
            "type": "t_enum(DisputeOutcome)7655"
          },
          {
            "astId": 7693,
            "contract": "contracts/core/EscrowManager.sol:EscrowManager",
            "label": "arbitrators",
            "offset": 0,
            "slot": "5",
            "type": "t_array(t_address)dyn_storage"
          },
          {
            "astId": 7697,
            "contract": "contracts/core/EscrowManager.sol:EscrowManager",
            "label": "hasVoted",
            "offset": 0,
            "slot": "6",
            "type": "t_mapping(t_address,t_bool)"
          },
          {
            "astId": 7702,
            "contract": "contracts/core/EscrowManager.sol:EscrowManager",
            "label": "votes",
            "offset": 0,
            "slot": "7",
            "type": "t_mapping(t_address,t_enum(DisputeOutcome)7655)"
          },
          {
            "astId": 7704,
            "contract": "contracts/core/EscrowManager.sol:EscrowManager",
            "label": "votesCount",
            "offset": 0,
            "slot": "8",
            "type": "t_uint256"
          },
          {
            "astId": 7706,
            "contract": "contracts/core/EscrowManager.sol:EscrowManager",
            "label": "createdAt",
            "offset": 0,
            "slot": "9",
            "type": "t_uint256"
          },
          {
            "astId": 7708,
            "contract": "contracts/core/EscrowManager.sol:EscrowManager",
            "label": "resolvedAt",
            "offset": 0,
            "slot": "10",
            "type": "t_uint256"
          },
          {
            "astId": 7710,
            "contract": "contracts/core/EscrowManager.sol:EscrowManager",
            "label": "aiAnalysis",
            "offset": 0,
            "slot": "11",
            "type": "t_bytes_storage"
          },
          {
            "astId": 7712,
            "contract": "contracts/core/EscrowManager.sol:EscrowManager",
            "label": "isResolved",
            "offset": 0,
            "slot": "12",
            "type": "t_bool"
          }
        ],
        "numberOfBytes": "416"
      },
      "t_struct(Escrow)7679_storage": {
        "encoding": "inplace",
        "label": "struct EscrowManager.Escrow",
        "members": [
          {
            "astId": 7657,
            "contract": "contracts/core/EscrowManager.sol:EscrowManager",
            "label": "id",
            "offset": 0,
            "slot": "0",
            "type": "t_uint256"
          },
          {
            "astId": 7659,
            "contract": "contracts/core/EscrowManager.sol:EscrowManager",
            "label": "buyer",
            "offset": 0,
            "slot": "1",
            "type": "t_address"
          },
          {
            "astId": 7661,
            "contract": "contracts/core/EscrowManager.sol:EscrowManager",
            "label": "seller",
            "offset": 0,
            "slot": "2",
            "type": "t_address"
          },
          {
            "astId": 7663,
            "contract": "contracts/core/EscrowManager.sol:EscrowManager",
            "label": "productId",
            "offset": 0,
            "slot": "3",
            "type": "t_uint256"
          },
          {
            "astId": 7665,
            "contract": "contracts/core/EscrowManager.sol:EscrowManager",
            "label": "amount",
            "offset": 0,
            "slot": "4",
            "type": "t_uint256"
          },
          {
            "astId": 7667,
            "contract": "contracts/core/EscrowManager.sol:EscrowManager",
            "label": "token",
            "offset": 0,
            "slot": "5",
            "type": "t_address"
          },
          {
            "astId": 7670,
            "contract": "contracts/core/EscrowManager.sol:EscrowManager",
            "label": "status",
            "offset": 20,
            "slot": "5",
            "type": "t_enum(EscrowStatus)7650"
          },
          {
            "astId": 7672,
            "contract": "contracts/core/EscrowManager.sol:EscrowManager",
            "label": "createdAt",
            "offset": 0,
            "slot": "6",
            "type": "t_uint256"
          },
          {
            "astId": 7674,
            "contract": "contracts/core/EscrowManager.sol:EscrowManager",
            "label": "disputeId",
            "offset": 0,
            "slot": "7",
            "type": "t_uint256"
          },
          {
            "astId": 7676,
            "contract": "contracts/core/EscrowManager.sol:EscrowManager",
            "label": "sourceChainSelector",
            "offset": 0,
            "slot": "8",
            "type": "t_uint64"
          },
          {
            "astId": 7678,
            "contract": "contracts/core/EscrowManager.sol:EscrowManager",
            "label": "isActive",
            "offset": 8,
            "slot": "8",
            "type": "t_bool"
          }
        ],
        "numberOfBytes": "288"
      },
      "t_struct(RoleData)2803_storage": {
        "encoding": "inplace",
        "label": "struct AccessControl.RoleData",
        "members": [
          {
            "astId": 2800,
            "contract": "contracts/core/EscrowManager.sol:EscrowManager",
            "label": "hasRole",
            "offset": 0,
            "slot": "0",
            "type": "t_mapping(t_address,t_bool)"
          },
          {
            "astId": 2802,
            "contract": "contracts/core/EscrowManager.sol:EscrowManager",
            "label": "adminRole",
            "offset": 0,
            "slot": "1",
            "type": "t_bytes32"
          }
        ],
        "numberOfBytes": "64"
      },
      "t_uint256": {
        "encoding": "inplace",
        "label": "uint256",
        "numberOfBytes": "32"
      },
      "t_uint32": {
        "encoding": "inplace",
        "label": "uint32",
        "numberOfBytes": "4"
      },
      "t_uint64": {
        "encoding": "inplace",
        "label": "uint64",
        "numberOfBytes": "8"
      }
    }
  }
}