{
  "address": "0x9FF6ECCe1a1EDe9d991aF02292751De6bB2dF38B",
  "abi": [
    {
      "inputs": [
        {
          "internalType": "address",
          "name": "router",
          "type": "address"
        }
      ],
      "stateMutability": "nonpayable",
      "type": "constructor"
    },
    {
      "inputs": [],
      "name": "EmptyArgs",
      "type": "error"
    },
    {
      "inputs": [],
      "name": "EmptySecrets",
      "type": "error"
    },
    {
      "inputs": [],
      "name": "EmptySource",
      "type": "error"
    },
    {
      "inputs": [],
      "name": "NoInlineSecrets",
      "type": "error"
    },
    {
      "inputs": [],
      "name": "OnlyRouterCanFulfill",
      "type": "error"
    },
    {
      "anonymous": false,
      "inputs": [
        {
          "indexed": true,
          "internalType": "address",
          "name": "user",
          "type": "address"
        },
        {
          "indexed": true,
          "internalType": "bytes32",
          "name": "requestId",
          "type": "bytes32"
        },
        {
          "indexed": false,
          "internalType": "string[]",
          "name": "products",
          "type": "string[]"
        }
      ],
      "name": "AIRecommendationFulfilled",
      "type": "event"
    },
    {
      "anonymous": false,
      "inputs": [
        {
          "indexed": true,
          "internalType": "address",
          "name": "user",
          "type": "address"
        },
        {
          "indexed": true,
          "internalType": "bytes32",
          "name": "requestId",
          "type": "bytes32"
        },
        {
          "indexed": false,
          "internalType": "string",
          "name": "query",
          "type": "string"
        }
      ],
      "name": "AIRecommendationRequested",
      "type": "event"
    },
    {
      "anonymous": false,
      "inputs": [
        {
          "indexed": true,
          "internalType": "bytes32",
          "name": "id",
          "type": "bytes32"
        }
      ],
      "name": "RequestFulfilled",
      "type": "event"
    },
    {
      "anonymous": false,
      "inputs": [
        {
          "indexed": true,
          "internalType": "bytes32",
          "name": "id",
          "type": "bytes32"
        }
      ],
      "name": "RequestSent",
      "type": "event"
    },
    {
      "inputs": [],
      "name": "bedrockSource",
      "outputs": [
        {
          "internalType": "string",
          "name": "",
          "type": "string"
        }
      ],
      "stateMutability": "view",
      "type": "function"
    },
    {
      "inputs": [],
      "name": "donId",
      "outputs": [
        {
          "internalType": "bytes32",
          "name": "",
          "type": "bytes32"
        }
      ],
      "stateMutability": "view",
      "type": "function"
    },
    {
      "inputs": [],
      "name": "gasLimit",
      "outputs": [
        {
          "internalType": "uint32",
          "name": "",
          "type": "uint32"
        }
      ],
      "stateMutability": "view",
      "type": "function"
    },
    {
      "inputs": [
        {
          "internalType": "bytes32",
          "name": "requestId",
          "type": "bytes32"
        },
        {
          "internalType": "bytes",
          "name": "response",
          "type": "bytes"
        },
        {
          "internalType": "bytes",
          "name": "err",
          "type": "bytes"
        }
      ],
      "name": "handleOracleFulfillment",
      "outputs": [],
      "stateMutability": "nonpayable",
      "type": "function"
    },
    {
      "inputs": [
        {
          "internalType": "bytes32",
          "name": "",
          "type": "bytes32"
        }
      ],
      "name": "recommendations",
      "outputs": [
        {
          "internalType": "address",
          "name": "user",
          "type": "address"
        },
        {
          "internalType": "string",
          "name": "query",
          "type": "string"
        },
        {
          "internalType": "uint256",
          "name": "timestamp",
          "type": "uint256"
        },
        {
          "internalType": "bytes32",
          "name": "requestId",
          "type": "bytes32"
        }
      ],
      "stateMutability": "view",
      "type": "function"
    },
    {
      "inputs": [
        {
          "internalType": "string",
          "name": "query",
          "type": "string"
        },
        {
          "internalType": "string",
          "name": "preferencesJson",
          "type": "string"
        }
      ],
      "name": "requestAIRecommendation",
      "outputs": [
        {
          "internalType": "bytes32",
          "name": "requestId",
          "type": "bytes32"
        }
      ],
      "stateMutability": "nonpayable",
      "type": "function"
    },
    {
      "inputs": [
        {
          "internalType": "bytes32",
          "name": "_donId",
          "type": "bytes32"
        }
      ],
      "name": "setDonId",
      "outputs": [],
      "stateMutability": "nonpayable",
      "type": "function"
    },
    {
      "inputs": [
        {
          "internalType": "uint32",
          "name": "_gasLimit",
          "type": "uint32"
        }
      ],
      "name": "setGasLimit",
      "outputs": [],
      "stateMutability": "nonpayable",
      "type": "function"
    },
    {
      "inputs": [
        {
          "internalType": "uint64",
          "name": "_subscriptionId",
          "type": "uint64"
        }
      ],
      "name": "setSubscriptionId",
      "outputs": [],
      "stateMutability": "nonpayable",
      "type": "function"
    },
    {
      "inputs": [],
      "name": "subscriptionId",
      "outputs": [
        {
          "internalType": "uint64",
          "name": "",
          "type": "uint64"
        }
      ],
      "stateMutability": "view",
      "type": "function"
    },
    {
      "inputs": [
        {
          "internalType": "address",
          "name": "",
          "type": "address"
        },
        {
          "internalType": "uint256",
          "name": "",
          "type": "uint256"
        }
      ],
      "name": "userRecommendations",
      "outputs": [
        {
          "internalType": "bytes32",
          "name": "",
          "type": "bytes32"
        }
      ],
      "stateMutability": "view",
      "type": "function"
    }
  ],
  "transactionHash": "0xe4fe8ffe16a8f77bf420b17c896f5d017d6cd0cdbc7769e8ac22c9fb7f042068",
  "args": [
    "0xC22a79eBA640940ABB6dF0f7982cc119578E11De"
  ],
  "numDeployments": 1,
  "solcInputHash": "5fa7750c0c830ca36e05083f20484923",
  "bytecode": "0x6002805463ffffffff60401b19166a0493e0000000000000000017905561034060405261026e60a08181529062001c8b60c03960049062000041908262000129565b503480156200004f57600080fd5b5060405162001ef938038062001ef98339810160408190526200007291620001f5565b6001600160a01b031660805262000227565b634e487b7160e01b600052604160045260246000fd5b600181811c90821680620000af57607f821691505b602082108103620000d057634e487b7160e01b600052602260045260246000fd5b50919050565b601f8211156200012457600081815260208120601f850160051c81016020861015620000ff5750805b601f850160051c820191505b8181101562000120578281556001016200010b565b5050505b505050565b81516001600160401b0381111562000145576200014562000084565b6200015d816200015684546200009a565b84620000d6565b602080601f8311600181146200019557600084156200017c5750858301515b600019600386901b1c1916600185901b17855562000120565b600085815260208120601f198616915b82811015620001c657888601518255948401946001909101908401620001a5565b5085821015620001e55787850151600019600388901b60f8161c191681555b5050505050600190811b01905550565b6000602082840312156200020857600080fd5b81516001600160a01b03811681146200022057600080fd5b9392505050565b608051611a416200024a6000396000818161021c0152610b870152611a416000f3fe608060405234801561001057600080fd5b50600436106100a95760003560e01c80638dbe7b9d116100715780638dbe7b9d14610160578063c0b6391a14610169578063d831c4721461018c578063ea7b4f771461019f578063eed06a1f146101d0578063f68016b7146101e557600080fd5b806309c1ba2e146100ae5780630ca76175146100de5780632d22a2f9146100f357806352d84c621461011457806378ca5de71461014d575b600080fd5b6002546100c1906001600160401b031681565b6040516001600160401b0390911681526020015b60405180910390f35b6100f16100ec3660046113e7565b610211565b005b610106610101366004611453565b610295565b6040519081526020016100d5565b6100f161012236600461148b565b6002805463ffffffff909216600160401b026bffffffff000000000000000019909216919091179055565b6100f161015b3660046114b1565b600355565b61010660035481565b61017c6101773660046114b1565b6102c6565b6040516100d59493929190611510565b61010661019a366004611547565b610381565b6100f16101ad3660046115aa565b6002805467ffffffffffffffff19166001600160401b0392909216919091179055565b6101d8610704565b6040516100d591906115d3565b6002546101fc90600160401b900463ffffffff1681565b60405163ffffffff90911681526020016100d5565b336001600160a01b037f0000000000000000000000000000000000000000000000000000000000000000161461025a5760405163c6829f8360e01b815260040160405180910390fd5b610265838383610792565b60405183907f85e1543bf2f84fe80c6badbce3648c8539ad1df4d2b3d822938ca0538be727e690600090a2505050565b600160205281600052604060002081815481106102b157600080fd5b90600052602060002001600091509150505481565b600060208190529081526040902080546001820180546001600160a01b0390921692916102f2906115e6565b80601f016020809104026020016040519081016040528092919081815260200182805461031e906115e6565b801561036b5780601f106103405761010080835404028352916020019161036b565b820191906000526020600020905b81548152906001019060200180831161034e57829003601f168201915b5050505050908060020154908060030154905084565b60006103c46040805160e0810190915280600081526020016000815260200160008152602001606081526020016060815260200160608152602001606081525090565b610461600480546103d4906115e6565b80601f0160208091040260200160405190810160405280929190818152602001828054610400906115e6565b801561044d5780601f106104225761010080835404028352916020019161044d565b820191906000526020600020905b81548152906001019060200180831161043057829003601f168201915b50505050508261083e90919063ffffffff16565b60408051600280825260608201909252600091816020015b606081526020019060019003908161047957905050905084816000815181106104a4576104a4611620565b602002602001018190525083816001815181106104c3576104c3611620565b60209081029190910101526104d8828261084f565b60408051808201909152600e81526d4157535f4143434553535f4b455960901b6020820152610508908390610879565b60408051808201909152600e81526d4157535f5345435245545f4b455960901b6020820152610538908390610879565b610568610544836108aa565b6002546003546001600160401b03821691600160401b900463ffffffff1690610b82565b92506040518060c00160405280336001600160a01b0316815260200186815260200142815260200184815260200160006001600160401b038111156105af576105af611345565b6040519080825280602002602001820160405280156105e257816020015b60608152602001906001900390816105cd5790505b5081526020016000604051908082528060200260200182016040528015610613578160200160208202803683370190505b509052600084815260208181526040909120825181546001600160a01b0319166001600160a01b039091161781559082015160018201906106549082611684565b50604082015160028201556060820151600382015560808201518051610684916004840191602090910190611204565b5060a082015180516106a091600584019160209091019061125a565b5050336000818152600160208181526040808420805493840181558452922001869055518592507fdaf10ce978b51235f131b972c21e0ec793e2b114d2b88650ed00326539e6a3d3906106f49089906115d3565b60405180910390a3505092915050565b60048054610711906115e6565b80601f016020809104026020016040519081016040528092919081815260200182805461073d906115e6565b801561078a5780601f1061075f5761010080835404028352916020019161078a565b820191906000526020600020905b81548152906001019060200180831161076d57829003601f168201915b505050505081565b60008381526020819052604090208151156107ad5750505050565b826107b781610c54565b80516107cd916004850191602090910190611204565b506107d781610cd6565b80516107ed91600585019160209091019061125a565b50815460405186916001600160a01b0316907f30d9d4d72a10f669e7876e3a34fad92274e934bdfd62a43bb54d6af015e275e49061082f906004870190611743565b60405180910390a35050505050565b61084b8260008084610d11565b5050565b80516000036108715760405163fe936cb760e01b815260040160405180910390fd5b60a090910152565b805160000361089b5760405163e889636f60e01b815260040160405180910390fd5b60016020830152608090910152565b606060006108b9610100610d8f565b90506108f26040518060400160405280600c81526020016b31b7b232a637b1b0ba34b7b760a11b81525082610db090919063ffffffff16565b825161091090600281111561090957610909611815565b8290610dce565b6040805180820190915260088152676c616e677561676560c01b602082015261093a908290610db0565b604083015161095190801561090957610909611815565b604080518082019091526006815265736f7572636560d01b6020820152610979908290610db0565b6060830151610989908290610db0565b60a08301515115610a1d576040805180820190915260048152636172677360e01b60208201526109ba908290610db0565b6109c381610e07565b60005b8360a0015151811015610a1357610a038460a0015182815181106109ec576109ec611620565b602002602001015183610db090919063ffffffff16565b610a0c81611841565b90506109c6565b50610a1d81610e2b565b60808301515115610ae157600083602001516002811115610a4057610a40611815565b03610a5e5760405163a80d31f760e01b815260040160405180910390fd5b60408051808201909152600f81526e39b2b1b932ba39a637b1b0ba34b7b760891b6020820152610a8f908290610db0565b610aa88360200151600281111561090957610909611815565b6040805180820190915260078152667365637265747360c81b6020820152610ad1908290610db0565b6080830151610ae1908290610e49565b60c08301515115610b7a5760408051808201909152600981526862797465734172677360b81b6020820152610b17908290610db0565b610b2081610e07565b60005b8360c0015151811015610b7057610b608460c001518281518110610b4957610b49611620565b602002602001015183610e4990919063ffffffff16565b610b6981611841565b9050610b23565b50610b7a81610e2b565b515192915050565b6000807f00000000000000000000000000000000000000000000000000000000000000006001600160a01b031663461d27628688600188886040518663ffffffff1660e01b8152600401610bda95949392919061185a565b6020604051808303816000875af1158015610bf9573d6000803e3d6000fd5b505050506040513d601f19601f82011682018060405250810190610c1d91906118a3565b60405190915081907f1131472297a800fee664d1d89cfa8f7676ff07189ecc53f80bbb5f4969099db890600090a295945050505050565b60408051600180825281830190925260609160009190816020015b6060815260200190600190039081610c6f5790505090506040518060400160405280601381526020017214dd5cdd185a5b98589b1948141c9bd91d58dd606a1b81525081600081518110610cc557610cc5611620565b602090810291909101015292915050565b6040805160018082528183019092526060916000919060208083019080368337019050509050605581600081518110610cc557610cc5611620565b8051600003610d33576040516322ce3edd60e01b815260040160405180910390fd5b83836002811115610d4657610d46611815565b90816002811115610d5957610d59611815565b90525060408401828015610d6f57610d6f611815565b90818015610d7f57610d7f611815565b9052506060909301929092525050565b610d976112a1565b8051610da39083610e56565b5060006020820152919050565b610dbd8260038351610ed0565b8151610dc99082610fef565b505050565b8151610ddb9060c2611017565b5061084b8282604051602001610df391815260200190565b604051602081830303815290604052610e49565b610e12816004611080565b600181602001818151610e2591906118bc565b90525050565b610e36816007611080565b600181602001818151610e2591906118cf565b610dbd8260028351610ed0565b604080518082019091526060815260006020820152610e766020836118e2565b15610e9e57610e866020836118e2565b610e919060206118cf565b610e9b90836118bc565b91505b602080840183905260405180855260008152908184010181811015610ec257600080fd5b604052508290505b92915050565b6017816001600160401b031611610efc578251610ef69060e0600585901b168317611017565b50505050565b60ff816001600160401b031611610f3c578251610f24906018611fe0600586901b1617611017565b508251610ef6906001600160401b0383166001611097565b61ffff816001600160401b031611610f7d578251610f65906019611fe0600586901b1617611017565b508251610ef6906001600160401b0383166002611097565b63ffffffff816001600160401b031611610fc0578251610fa890601a611fe0600586901b1617611017565b508251610ef6906001600160401b0383166004611097565b8251610fd790601b611fe0600586901b1617611017565b508251610ef6906001600160401b0383166008611097565b6040805180820190915260608152600060208201526110108383845161111c565b9392505050565b604080518082019091526060815260006020820152825151600061103c8260016118bc565b90508460200151821061105d5761105d85611058836002611904565b6111ed565b8451602083820101858153508051821115611076578181525b5093949350505050565b8151610dc990601f611fe0600585901b1617611017565b60408051808201909152606081526000602082015283515160006110bb82856118bc565b905085602001518111156110d8576110d886611058836002611904565b600060016110e8866101006119ff565b6110f291906118cf565b90508651828101878319825116178152508051831115611110578281525b50959695505050505050565b604080518082019091526060815260006020820152825182111561113f57600080fd5b835151600061114e84836118bc565b9050856020015181111561116b5761116b86611058836002611904565b855180518382016020019160009180851115611185578482525b505050602086015b602086106111c557805182526111a46020836118bc565b91506111b16020826118bc565b90506111be6020876118cf565b955061118d565b51815160001960208890036101000a0190811690199190911617905250849150509392505050565b81516111f98383610e56565b50610ef68382610fef565b82805482825590600052602060002090810192821561124a579160200282015b8281111561124a578251829061123a9082611684565b5091602001919060010190611224565b506112569291506112d6565b5090565b828054828255906000526020600020908101928215611295579160200282015b8281111561129557825182559160200191906001019061127a565b506112569291506112f3565b60405180604001604052806112c9604051806040016040528060608152602001600081525090565b8152602001600081525090565b808211156112565760006112ea8282611308565b506001016112d6565b5b8082111561125657600081556001016112f4565b508054611314906115e6565b6000825580601f10611324575050565b601f01602090049060005260206000209081019061134291906112f3565b50565b634e487b7160e01b600052604160045260246000fd5b600082601f83011261136c57600080fd5b81356001600160401b038082111561138657611386611345565b604051601f8301601f19908116603f011681019082821181831017156113ae576113ae611345565b816040528381528660208588010111156113c757600080fd5b836020870160208301376000602085830101528094505050505092915050565b6000806000606084860312156113fc57600080fd5b8335925060208401356001600160401b038082111561141a57600080fd5b6114268783880161135b565b9350604086013591508082111561143c57600080fd5b506114498682870161135b565b9150509250925092565b6000806040838503121561146657600080fd5b82356001600160a01b038116811461147d57600080fd5b946020939093013593505050565b60006020828403121561149d57600080fd5b813563ffffffff8116811461101057600080fd5b6000602082840312156114c357600080fd5b5035919050565b6000815180845260005b818110156114f0576020818501810151868301820152016114d4565b506000602082860101526020601f19601f83011685010191505092915050565b6001600160a01b0385168152608060208201819052600090611534908301866114ca565b6040830194909452506060015292915050565b6000806040838503121561155a57600080fd5b82356001600160401b038082111561157157600080fd5b61157d8683870161135b565b9350602085013591508082111561159357600080fd5b506115a08582860161135b565b9150509250929050565b6000602082840312156115bc57600080fd5b81356001600160401b038116811461101057600080fd5b60208152600061101060208301846114ca565b600181811c908216806115fa57607f821691505b60208210810361161a57634e487b7160e01b600052602260045260246000fd5b50919050565b634e487b7160e01b600052603260045260246000fd5b601f821115610dc957600081815260208120601f850160051c8101602086101561165d5750805b601f850160051c820191505b8181101561167c57828155600101611669565b505050505050565b81516001600160401b0381111561169d5761169d611345565b6116b1816116ab84546115e6565b84611636565b602080601f8311600181146116e657600084156116ce5750858301515b600019600386901b1c1916600185901b17855561167c565b600085815260208120601f198616915b82811015611715578886015182559484019460019091019084016116f6565b50858210156117335787850151600019600388901b60f8161c191681555b5050505050600190811b01905550565b6000602080830181845280855480835260408601915060059250604081841b8701016000888152858120815b8481101561180657603f198a850301865282825461178c816115e6565b808752600182811680156117a757600181146117c0576117ef565b60ff198416898e01528215158c1b89018d0194506117ef565b8688528c8820885b848110156117e75781548f828d01015283820191508e810190506117c8565b8a018e019550505b50988b01989296505050919091019060010161176f565b50919998505050505050505050565b634e487b7160e01b600052602160045260246000fd5b634e487b7160e01b600052601160045260246000fd5b6000600182016118535761185361182b565b5060010190565b6001600160401b038616815260a06020820152600061187c60a08301876114ca565b61ffff9590951660408301525063ffffffff92909216606083015260809091015292915050565b6000602082840312156118b557600080fd5b5051919050565b80820180821115610eca57610eca61182b565b81810381811115610eca57610eca61182b565b6000826118ff57634e487b7160e01b600052601260045260246000fd5b500690565b8082028115828204841417610eca57610eca61182b565b600181815b8085111561195657816000190482111561193c5761193c61182b565b8085161561194957918102915b93841c9390800290611920565b509250929050565b60008261196d57506001610eca565b8161197a57506000610eca565b8160018114611990576002811461199a576119b6565b6001915050610eca565b60ff8411156119ab576119ab61182b565b50506001821b610eca565b5060208310610133831016604e8410600b84101617156119d9575081810a610eca565b6119e3838361191b565b80600019048211156119f7576119f761182b565b029392505050565b6000611010838361195e56fea26469706673582212201213cee8b02687402221cf4b3bd35d4af80c8a6b3555c8af90cad6c0372c3de564736f6c63430008140033636f6e7374207175657279203d20617267735b305d3b636f6e737420707265666572656e636573203d204a534f4e2e706172736528617267735b315d293b636f6e7374206170694b6579203d20736563726574732e4157535f4143434553535f4b45593b636f6e7374207365637265744b6579203d20736563726574732e4157535f5345435245545f4b45593b2f2f2043616c6c20416d617a6f6e20426564726f636b20415049636f6e737420626564726f636b526573706f6e7365203d2061776169742046756e6374696f6e732e6d616b654874747052657175657374287b202075726c3a202768747470733a2f2f626564726f636b2d72756e74696d652e75732d656173742d312e616d617a6f6e6177732e636f6d2f6d6f64656c2f616e7468726f7069632e636c617564652d332d6861696b752d32303234303330372d76313a302f696e766f6b65272c20206d6574686f643a2027504f5354272c2020686561646572733a207b2020202027436f6e74656e742d54797065273a20276170706c69636174696f6e2f6a736f6e272c2020202027417574686f72697a6174696f6e273a2060415753342d484d41432d5348413235362043726564656e7469616c3d247b6170694b65797d2f2e2e2e6020207d2c2020646174613a207b2020202070726f6d70743a206046696e64207375737461696e61626c652070726f64756374733a20247b71756572797d602c202020206d61785f746f6b656e733a203130303020207d7d293b72657475726e2046756e6374696f6e732e656e636f6465537472696e67284a534f4e2e737472696e6769667928626564726f636b526573706f6e73652e6461746129293b",
  "devdoc": {
    "kind": "dev",
    "methods": {
      "handleOracleFulfillment(bytes32,bytes,bytes)": {
        "details": "Either response or error parameter will be set, but never both.",
        "params": {
          "err": "Aggregated error either from the request's source code or from the execution pipeline.",
          "requestId": "The requestId returned by FunctionsClient.sendRequest().",
          "response": "Aggregated response from the request's source code."
        }
      }
    },
    "version": 1
  },
  "userdoc": {
    "kind": "user",
    "methods": {
      "handleOracleFulfillment(bytes32,bytes,bytes)": {
        "notice": "Chainlink Functions response handler called by the Functions Router during fullilment from the designated transmitter node in an OCR round."
      }
    },
    "version": 1
  },
  "storageLayout": {
    "storage": [
      {
        "astId": 2099,
        "contract": "contracts/AIMarketplace.sol:AIMarketplace",
        "label": "recommendations",
        "offset": 0,
        "slot": "0",
        "type": "t_mapping(t_bytes32,t_struct(AIRecommendation)2094_storage)"
      },
      {
        "astId": 2104,
        "contract": "contracts/AIMarketplace.sol:AIMarketplace",
        "label": "userRecommendations",
        "offset": 0,
        "slot": "1",
        "type": "t_mapping(t_address,t_array(t_bytes32)dyn_storage)"
      },
      {
        "astId": 2106,
        "contract": "contracts/AIMarketplace.sol:AIMarketplace",
        "label": "subscriptionId",
        "offset": 0,
        "slot": "2",
        "type": "t_uint64"
      },
      {
        "astId": 2109,
        "contract": "contracts/AIMarketplace.sol:AIMarketplace",
        "label": "gasLimit",
        "offset": 8,
        "slot": "2",
        "type": "t_uint32"
      },
      {
        "astId": 2111,
        "contract": "contracts/AIMarketplace.sol:AIMarketplace",
        "label": "donId",
        "offset": 0,
        "slot": "3",
        "type": "t_bytes32"
      },
      {
        "astId": 2114,
        "contract": "contracts/AIMarketplace.sol:AIMarketplace",
        "label": "bedrockSource",
        "offset": 0,
        "slot": "4",
        "type": "t_string_storage"
      }
    ],
    "types": {
      "t_address": {
        "encoding": "inplace",
        "label": "address",
        "numberOfBytes": "20"
      },
      "t_array(t_bytes32)dyn_storage": {
        "base": "t_bytes32",
        "encoding": "dynamic_array",
        "label": "bytes32[]",
        "numberOfBytes": "32"
      },
      "t_array(t_string_storage)dyn_storage": {
        "base": "t_string_storage",
        "encoding": "dynamic_array",
        "label": "string[]",
        "numberOfBytes": "32"
      },
      "t_array(t_uint256)dyn_storage": {
        "base": "t_uint256",
        "encoding": "dynamic_array",
        "label": "uint256[]",
        "numberOfBytes": "32"
      },
      "t_bytes32": {
        "encoding": "inplace",
        "label": "bytes32",
        "numberOfBytes": "32"
      },
      "t_mapping(t_address,t_array(t_bytes32)dyn_storage)": {
        "encoding": "mapping",
        "key": "t_address",
        "label": "mapping(address => bytes32[])",
        "numberOfBytes": "32",
        "value": "t_array(t_bytes32)dyn_storage"
      },
      "t_mapping(t_bytes32,t_struct(AIRecommendation)2094_storage)": {
        "encoding": "mapping",
        "key": "t_bytes32",
        "label": "mapping(bytes32 => struct AIMarketplace.AIRecommendation)",
        "numberOfBytes": "32",
        "value": "t_struct(AIRecommendation)2094_storage"
      },
      "t_string_storage": {
        "encoding": "bytes",
        "label": "string",
        "numberOfBytes": "32"
      },
      "t_struct(AIRecommendation)2094_storage": {
        "encoding": "inplace",
        "label": "struct AIMarketplace.AIRecommendation",
        "members": [
          {
            "astId": 2081,
            "contract": "contracts/AIMarketplace.sol:AIMarketplace",
            "label": "user",
            "offset": 0,
            "slot": "0",
            "type": "t_address"
          },
          {
            "astId": 2083,
            "contract": "contracts/AIMarketplace.sol:AIMarketplace",
            "label": "query",
            "offset": 0,
            "slot": "1",
            "type": "t_string_storage"
          },
          {
            "astId": 2085,
            "contract": "contracts/AIMarketplace.sol:AIMarketplace",
            "label": "timestamp",
            "offset": 0,
            "slot": "2",
            "type": "t_uint256"
          },
          {
            "astId": 2087,
            "contract": "contracts/AIMarketplace.sol:AIMarketplace",
            "label": "requestId",
            "offset": 0,
            "slot": "3",
            "type": "t_bytes32"
          },
          {
            "astId": 2090,
            "contract": "contracts/AIMarketplace.sol:AIMarketplace",
            "label": "recommendedProducts",
            "offset": 0,
            "slot": "4",
            "type": "t_array(t_string_storage)dyn_storage"
          },
          {
            "astId": 2093,
            "contract": "contracts/AIMarketplace.sol:AIMarketplace",
            "label": "sustainabilityScores",
            "offset": 0,
            "slot": "5",
            "type": "t_array(t_uint256)dyn_storage"
          }
        ],
        "numberOfBytes": "192"
      },
      "t_uint256": {
        "encoding": "inplace",
        "label": "uint256",
        "numberOfBytes": "32"
      },
      "t_uint32": {
        "encoding": "inplace",
        "label": "uint32",
        "numberOfBytes": "4"
      },
      "t_uint64": {
        "encoding": "inplace",
        "label": "uint64",
        "numberOfBytes": "8"
      }
    }
  }
}