{
  "address": "0x328118233e846e9c629480F4DE1444cbE7b7189e",
  "abi": [
    {
      "inputs": [
        {
          "internalType": "address",
          "name": "router",
          "type": "address"
        },
        {
          "internalType": "address",
          "name": "_productRegistry",
          "type": "address"
        }
      ],
      "stateMutability": "nonpayable",
      "type": "constructor"
    },
    {
      "inputs": [],
      "name": "EmptyArgs",
      "type": "error"
    },
    {
      "inputs": [],
      "name": "EmptySource",
      "type": "error"
    },
    {
      "inputs": [],
      "name": "NoInlineSecrets",
      "type": "error"
    },
    {
      "inputs": [],
      "name": "OnlyRouterCanFulfill",
      "type": "error"
    },
    {
      "anonymous": false,
      "inputs": [
        {
          "indexed": true,
          "internalType": "address",
          "name": "user",
          "type": "address"
        },
        {
          "indexed": false,
          "internalType": "string",
          "name": "preferences",
          "type": "string"
        }
      ],
      "name": "AIPreferencesUpdated",
      "type": "event"
    },
    {
      "anonymous": false,
      "inputs": [
        {
          "indexed": true,
          "internalType": "address",
          "name": "from",
          "type": "address"
        },
        {
          "indexed": true,
          "internalType": "address",
          "name": "to",
          "type": "address"
        }
      ],
      "name": "OwnershipTransferRequested",
      "type": "event"
    },
    {
      "anonymous": false,
      "inputs": [
        {
          "indexed": true,
          "internalType": "address",
          "name": "from",
          "type": "address"
        },
        {
          "indexed": true,
          "internalType": "address",
          "name": "to",
          "type": "address"
        }
      ],
      "name": "OwnershipTransferred",
      "type": "event"
    },
    {
      "anonymous": false,
      "inputs": [
        {
          "indexed": true,
          "internalType": "bytes32",
          "name": "requestId",
          "type": "bytes32"
        },
        {
          "indexed": true,
          "internalType": "address",
          "name": "user",
          "type": "address"
        },
        {
          "indexed": false,
          "internalType": "uint256[]",
          "name": "productIds",
          "type": "uint256[]"
        },
        {
          "indexed": false,
          "internalType": "uint256[]",
          "name": "scores",
          "type": "uint256[]"
        }
      ],
      "name": "RecommendationReceived",
      "type": "event"
    },
    {
      "anonymous": false,
      "inputs": [
        {
          "indexed": true,
          "internalType": "bytes32",
          "name": "requestId",
          "type": "bytes32"
        },
        {
          "indexed": true,
          "internalType": "address",
          "name": "user",
          "type": "address"
        },
        {
          "indexed": false,
          "internalType": "string",
          "name": "preferences",
          "type": "string"
        },
        {
          "indexed": false,
          "internalType": "uint256",
          "name": "maxResults",
          "type": "uint256"
        }
      ],
      "name": "RecommendationRequested",
      "type": "event"
    },
    {
      "anonymous": false,
      "inputs": [
        {
          "indexed": true,
          "internalType": "bytes32",
          "name": "id",
          "type": "bytes32"
        }
      ],
      "name": "RequestFulfilled",
      "type": "event"
    },
    {
      "anonymous": false,
      "inputs": [
        {
          "indexed": true,
          "internalType": "bytes32",
          "name": "id",
          "type": "bytes32"
        }
      ],
      "name": "RequestSent",
      "type": "event"
    },
    {
      "inputs": [],
      "name": "acceptOwnership",
      "outputs": [],
      "stateMutability": "nonpayable",
      "type": "function"
    },
    {
      "inputs": [
        {
          "internalType": "address",
          "name": "",
          "type": "address"
        }
      ],
      "name": "authorizedCallers",
      "outputs": [
        {
          "internalType": "bool",
          "name": "",
          "type": "bool"
        }
      ],
      "stateMutability": "view",
      "type": "function"
    },
    {
      "inputs": [],
      "name": "donID",
      "outputs": [
        {
          "internalType": "bytes32",
          "name": "",
          "type": "bytes32"
        }
      ],
      "stateMutability": "view",
      "type": "function"
    },
    {
      "inputs": [],
      "name": "gasLimit",
      "outputs": [
        {
          "internalType": "uint32",
          "name": "",
          "type": "uint32"
        }
      ],
      "stateMutability": "view",
      "type": "function"
    },
    {
      "inputs": [
        {
          "internalType": "address",
          "name": "_user",
          "type": "address"
        },
        {
          "internalType": "uint256",
          "name": "_maxResults",
          "type": "uint256"
        }
      ],
      "name": "getBasicRecommendations",
      "outputs": [
        {
          "internalType": "uint256[]",
          "name": "",
          "type": "uint256[]"
        }
      ],
      "stateMutability": "view",
      "type": "function"
    },
    {
      "inputs": [
        {
          "internalType": "address",
          "name": "_user",
          "type": "address"
        }
      ],
      "name": "getDetailedRecommendations",
      "outputs": [
        {
          "components": [
            {
              "internalType": "uint256",
              "name": "id",
              "type": "uint256"
            },
            {
              "internalType": "uint256",
              "name": "price",
              "type": "uint256"
            },
            {
              "internalType": "uint256",
              "name": "createdAt",
              "type": "uint256"
            },
            {
              "internalType": "uint256",
              "name": "totalSales",
              "type": "uint256"
            },
            {
              "internalType": "uint256",
              "name": "totalReviews",
              "type": "uint256"
            },
            {
              "internalType": "uint256",
              "name": "averageRating",
              "type": "uint256"
            },
            {
              "internalType": "address",
              "name": "seller",
              "type": "address"
            },
            {
              "internalType": "bool",
              "name": "isActive",
              "type": "bool"
            },
            {
              "internalType": "string",
              "name": "name",
              "type": "string"
            },
            {
              "internalType": "string",
              "name": "description",
              "type": "string"
            },
            {
              "internalType": "string",
              "name": "category",
              "type": "string"
            },
            {
              "internalType": "string",
              "name": "imageHash",
              "type": "string"
            },
            {
              "internalType": "string",
              "name": "metadataHash",
              "type": "string"
            }
          ],
          "internalType": "struct IProductRegistry.Product[]",
          "name": "products",
          "type": "tuple[]"
        },
        {
          "internalType": "uint256[]",
          "name": "scores",
          "type": "uint256[]"
        }
      ],
      "stateMutability": "view",
      "type": "function"
    },
    {
      "inputs": [],
      "name": "getLastError",
      "outputs": [
        {
          "internalType": "bytes",
          "name": "",
          "type": "bytes"
        }
      ],
      "stateMutability": "view",
      "type": "function"
    },
    {
      "inputs": [],
      "name": "getLastRequestId",
      "outputs": [
        {
          "internalType": "bytes32",
          "name": "",
          "type": "bytes32"
        }
      ],
      "stateMutability": "view",
      "type": "function"
    },
    {
      "inputs": [],
      "name": "getLastResponse",
      "outputs": [
        {
          "internalType": "bytes",
          "name": "",
          "type": "bytes"
        }
      ],
      "stateMutability": "view",
      "type": "function"
    },
    {
      "inputs": [
        {
          "internalType": "address",
          "name": "_user",
          "type": "address"
        }
      ],
      "name": "getLatestRecommendations",
      "outputs": [
        {
          "internalType": "uint256[]",
          "name": "productIds",
          "type": "uint256[]"
        },
        {
          "internalType": "uint256[]",
          "name": "scores",
          "type": "uint256[]"
        },
        {
          "internalType": "uint256",
          "name": "timestamp",
          "type": "uint256"
        }
      ],
      "stateMutability": "view",
      "type": "function"
    },
    {
      "inputs": [
        {
          "internalType": "address",
          "name": "_user",
          "type": "address"
        }
      ],
      "name": "getUserRequestHistory",
      "outputs": [
        {
          "internalType": "bytes32[]",
          "name": "",
          "type": "bytes32[]"
        }
      ],
      "stateMutability": "view",
      "type": "function"
    },
    {
      "inputs": [
        {
          "internalType": "bytes32",
          "name": "requestId",
          "type": "bytes32"
        },
        {
          "internalType": "bytes",
          "name": "response",
          "type": "bytes"
        },
        {
          "internalType": "bytes",
          "name": "err",
          "type": "bytes"
        }
      ],
      "name": "handleOracleFulfillment",
      "outputs": [],
      "stateMutability": "nonpayable",
      "type": "function"
    },
    {
      "inputs": [
        {
          "internalType": "string",
          "name": "_sourceCode",
          "type": "string"
        },
        {
          "internalType": "uint64",
          "name": "_subscriptionId",
          "type": "uint64"
        },
        {
          "internalType": "uint32",
          "name": "_gasLimit",
          "type": "uint32"
        },
        {
          "internalType": "bytes32",
          "name": "_donID",
          "type": "bytes32"
        }
      ],
      "name": "initializeFunctions",
      "outputs": [],
      "stateMutability": "nonpayable",
      "type": "function"
    },
    {
      "inputs": [
        {
          "internalType": "address",
          "name": "",
          "type": "address"
        }
      ],
      "name": "lastRecommendationTime",
      "outputs": [
        {
          "internalType": "uint256",
          "name": "",
          "type": "uint256"
        }
      ],
      "stateMutability": "view",
      "type": "function"
    },
    {
      "inputs": [
        {
          "internalType": "address",
          "name": "",
          "type": "address"
        },
        {
          "internalType": "uint256",
          "name": "",
          "type": "uint256"
        }
      ],
      "name": "latestRecommendations",
      "outputs": [
        {
          "internalType": "uint256",
          "name": "",
          "type": "uint256"
        }
      ],
      "stateMutability": "view",
      "type": "function"
    },
    {
      "inputs": [
        {
          "internalType": "address",
          "name": "",
          "type": "address"
        },
        {
          "internalType": "uint256",
          "name": "",
          "type": "uint256"
        }
      ],
      "name": "latestScores",
      "outputs": [
        {
          "internalType": "uint256",
          "name": "",
          "type": "uint256"
        }
      ],
      "stateMutability": "view",
      "type": "function"
    },
    {
      "inputs": [],
      "name": "owner",
      "outputs": [
        {
          "internalType": "address",
          "name": "",
          "type": "address"
        }
      ],
      "stateMutability": "view",
      "type": "function"
    },
    {
      "inputs": [],
      "name": "productRegistry",
      "outputs": [
        {
          "internalType": "contract IProductRegistry",
          "name": "",
          "type": "address"
        }
      ],
      "stateMutability": "view",
      "type": "function"
    },
    {
      "inputs": [
        {
          "internalType": "uint256",
          "name": "_maxResults",
          "type": "uint256"
        }
      ],
      "name": "requestRecommendations",
      "outputs": [
        {
          "internalType": "bytes32",
          "name": "requestId",
          "type": "bytes32"
        }
      ],
      "stateMutability": "nonpayable",
      "type": "function"
    },
    {
      "inputs": [
        {
          "internalType": "bytes32",
          "name": "",
          "type": "bytes32"
        }
      ],
      "name": "requests",
      "outputs": [
        {
          "internalType": "address",
          "name": "user",
          "type": "address"
        },
        {
          "internalType": "bool",
          "name": "fulfilled",
          "type": "bool"
        },
        {
          "internalType": "uint256",
          "name": "maxResults",
          "type": "uint256"
        },
        {
          "internalType": "uint256",
          "name": "timestamp",
          "type": "uint256"
        },
        {
          "internalType": "string",
          "name": "preferences",
          "type": "string"
        }
      ],
      "stateMutability": "view",
      "type": "function"
    },
    {
      "inputs": [],
      "name": "s_lastError",
      "outputs": [
        {
          "internalType": "bytes",
          "name": "",
          "type": "bytes"
        }
      ],
      "stateMutability": "view",
      "type": "function"
    },
    {
      "inputs": [],
      "name": "s_lastRequestId",
      "outputs": [
        {
          "internalType": "bytes32",
          "name": "",
          "type": "bytes32"
        }
      ],
      "stateMutability": "view",
      "type": "function"
    },
    {
      "inputs": [],
      "name": "s_lastResponse",
      "outputs": [
        {
          "internalType": "bytes",
          "name": "",
          "type": "bytes"
        }
      ],
      "stateMutability": "view",
      "type": "function"
    },
    {
      "inputs": [
        {
          "internalType": "address",
          "name": "_caller",
          "type": "address"
        },
        {
          "internalType": "bool",
          "name": "_authorized",
          "type": "bool"
        }
      ],
      "name": "setAuthorizedCaller",
      "outputs": [],
      "stateMutability": "nonpayable",
      "type": "function"
    },
    {
      "inputs": [
        {
          "internalType": "string",
          "name": "_categories",
          "type": "string"
        },
        {
          "internalType": "string",
          "name": "_priceRange",
          "type": "string"
        },
        {
          "internalType": "string",
          "name": "_sustainability",
          "type": "string"
        },
        {
          "internalType": "string",
          "name": "_brand",
          "type": "string"
        },
        {
          "internalType": "string",
          "name": "_customPrefs",
          "type": "string"
        }
      ],
      "name": "setUserPreferences",
      "outputs": [],
      "stateMutability": "nonpayable",
      "type": "function"
    },
    {
      "inputs": [],
      "name": "sourceCode",
      "outputs": [
        {
          "internalType": "string",
          "name": "",
          "type": "string"
        }
      ],
      "stateMutability": "view",
      "type": "function"
    },
    {
      "inputs": [],
      "name": "subscriptionId",
      "outputs": [
        {
          "internalType": "uint64",
          "name": "",
          "type": "uint64"
        }
      ],
      "stateMutability": "view",
      "type": "function"
    },
    {
      "inputs": [
        {
          "internalType": "address",
          "name": "to",
          "type": "address"
        }
      ],
      "name": "transferOwnership",
      "outputs": [],
      "stateMutability": "nonpayable",
      "type": "function"
    },
    {
      "inputs": [
        {
          "internalType": "address",
          "name": "_newRegistry",
          "type": "address"
        }
      ],
      "name": "updateProductRegistry",
      "outputs": [],
      "stateMutability": "nonpayable",
      "type": "function"
    },
    {
      "inputs": [
        {
          "internalType": "string",
          "name": "_newSourceCode",
          "type": "string"
        }
      ],
      "name": "updateSourceCode",
      "outputs": [],
      "stateMutability": "nonpayable",
      "type": "function"
    },
    {
      "inputs": [
        {
          "internalType": "address",
          "name": "",
          "type": "address"
        }
      ],
      "name": "userPreferences",
      "outputs": [
        {
          "internalType": "string",
          "name": "categories",
          "type": "string"
        },
        {
          "internalType": "string",
          "name": "priceRange",
          "type": "string"
        },
        {
          "internalType": "string",
          "name": "sustainability",
          "type": "string"
        },
        {
          "internalType": "string",
          "name": "brand",
          "type": "string"
        },
        {
          "internalType": "string",
          "name": "customPrefs",
          "type": "string"
        },
        {
          "internalType": "uint256",
          "name": "updatedAt",
          "type": "uint256"
        },
        {
          "internalType": "bool",
          "name": "exists",
          "type": "bool"
        }
      ],
      "stateMutability": "view",
      "type": "function"
    },
    {
      "inputs": [
        {
          "internalType": "address",
          "name": "",
          "type": "address"
        },
        {
          "internalType": "uint256",
          "name": "",
          "type": "uint256"
        }
      ],
      "name": "userRequestHistory",
      "outputs": [
        {
          "internalType": "bytes32",
          "name": "",
          "type": "bytes32"
        }
      ],
      "stateMutability": "view",
      "type": "function"
    }
  ],
  "transactionHash": "0xa8c157cad00b3c728a1bc915a5e082ced026287c82b0b6c782a13985a5174b07",
  "args": [
    "0xC22a79eBA640940ABB6dF0f7982cc119578E11De",
    "0xb61bf0b2f9903F4c6b3f9843339CACD4438fe64f"
  ],
  "numDeployments": 1,
  "solcInputHash": "91b38a82d17671e13800ea0ae87a5a0b",
  "bytecode": "0x60a06040523480156200001157600080fd5b506040516200472938038062004729833981016040819052620000349162000350565b6001600160a01b0382166080523380600081620000985760405162461bcd60e51b815260206004820152601860248201527f43616e6e6f7420736574206f776e657220746f207a65726f000000000000000060448201526064015b60405180910390fd5b600080546001600160a01b0319166001600160a01b0384811691909117909155811615620000cb57620000cb81620001b2565b5050600280546001600160a01b0319166001600160a01b03841617905550336000908152600f6020908152604091829020805460ff191660011790558151808301909252601a82527f41495265636f6d6d656e646174696f6e73206465706c6f7965640000000000009082015262000143906200025d565b60408051808201909152601081526f283937b23ab1ba2932b3b4b9ba393c9d60811b6020820152620001769082620002ab565b604080518082019091526011815270233ab731ba34b7b739902937baba32b91d60791b6020820152620001aa9083620002ab565b505062000418565b336001600160a01b038216036200020c5760405162461bcd60e51b815260206004820152601760248201527f43616e6e6f74207472616e7366657220746f2073656c6600000000000000000060448201526064016200008f565b600180546001600160a01b0319166001600160a01b0383811691821790925560008054604051929316917fed8889f560326eb138920d842192f0eb3dd22b4f139c87a2c57538e05bae12789190a350565b620002a881604051602401620002749190620003d0565b60408051601f198184030181529190526020810180516001600160e01b0390811663104c13eb60e21b17909152620002fc16565b50565b620002f88282604051602401620002c4929190620003ec565b60408051601f198184030181529190526020810180516001600160e01b0390811663319af33360e01b17909152620002fc16565b5050565b620002a8816200031260201b620017e61760201c565b60006a636f6e736f6c652e6c6f679050600080835160208501845afa505050565b80516001600160a01b03811681146200034b57600080fd5b919050565b600080604083850312156200036457600080fd5b6200036f8362000333565b91506200037f6020840162000333565b90509250929050565b6000815180845260005b81811015620003b05760208185018101518683018201520162000392565b506000602082860101526020601f19601f83011685010191505092915050565b602081526000620003e5602083018462000388565b9392505050565b60408152600062000401604083018562000388565b905060018060a01b03831660208301529392505050565b6080516142ee6200043b600039600081816105a8015261244501526142ee6000f3fe608060405234801561001057600080fd5b50600436106101f05760003560e01c80638da5cb5b1161010f578063b3285e32116100a2578063f2fde38b11610071578063f2fde38b14610478578063f68016b71461048b578063fcf0faae146104b7578063fff218c3146104ca57600080fd5b8063b3285e321461041d578063b552df9a14610430578063c83fc94714610452578063ef140df71461046557600080fd5b8063941ea160116100de578063941ea160146103d55780639d866985146103e8578063aafe20791461040c578063b1e217491461041457600080fd5b80638da5cb5b1461035d57806391871bda14610382578063918cf19e146103a257806393e34b87146103c257600080fd5b80634b0795a8116101875780636793bcbf116101565780636793bcbf146103135780636e74336b1461033957806379ba5097146103425780637c3202171461034a57600080fd5b80634b0795a8146102b0578063503f0475146102b8578063536fff6c146102c057806358c58fe3146102f357600080fd5b806313c60177116101c357806313c601771461026e57806319c2b4c3146102835780633944ea3a14610295578063454bbd291461029d57600080fd5b806305df1a03146101f557806309c1ba2e1461020a5780630ca761751461023a5780630d2c97bb1461024d575b600080fd5b610208610203366004613325565b6104dd565b005b60075461021d906001600160401b031681565b6040516001600160401b0390911681526020015b60405180910390f35b61020861024836600461339f565b61059d565b61026061025b366004613420565b610621565b6040516102319291906134c8565b6102766107de565b6040516102319190613618565b6003545b604051908152602001610231565b61027661086c565b6102086102ab366004613639565b610879565b6102766108ac565b6102766108b9565b6102e36102ce366004613420565b600f6020526000908152604090205460ff1681565b6040519015158152602001610231565b610306610301366004613420565b61094b565b6040516102319190613672565b610326610321366004613420565b6109b7565b60405161023197969594939291906136b6565b61028760085481565b610208610c9d565b610287610358366004613733565b610d47565b6000546001600160a01b03165b6040516001600160a01b039091168152602001610231565b610287610390366004613420565b600e6020526000908152604090205481565b6103b56103b0366004613733565b610d78565b604051610231919061375f565b6102086103d0366004613772565b61106d565b6102876103e3366004613733565b6111b9565b6103fb6103f6366004613843565b6111d5565b60405161023195949392919061385c565b61027661129a565b61028760035481565b61020861042b36600461389c565b6112a9565b61044361043e366004613420565b6112c1565b604051610231939291906138d8565b610208610460366004613420565b61139b565b610287610473366004613843565b6113c5565b610208610486366004613420565b6117b6565b6007546104a290600160401b900463ffffffff1681565b60405163ffffffff9091168152602001610231565b6102876104c5366004613733565b6117ca565b60025461036a906001600160a01b031681565b6104e5611807565b60066104f1858261398e565b506007805463ffffffff8416600160401b026bffffffffffffffffffffffff199091166001600160401b038616171790556008819055604080518082019091526015815274119d5b98dd1a5bdb9cc81a5b9a5d1a585b1a5e9959605a1b602082015261055c9061185c565b6105976040518060400160405280601081526020016f29bab139b1b934b83a34b7b71024a21d60811b815250846001600160401b031661189f565b50505050565b336001600160a01b037f000000000000000000000000000000000000000000000000000000000000000016146105e65760405163c6829f8360e01b815260040160405180910390fd5b6105f18383836118e4565b60405183907f85e1543bf2f84fe80c6badbce3648c8539ad1df4d2b3d822938ca0538be727e690600090a2505050565b6001600160a01b0381166000908152600c6020908152604080832080548251818502810185019093528083526060948594909392919083018282801561068657602002820191906000526020600020905b815481526020019060010190808311610672575b5050505050905060008151116106e35760405162461bcd60e51b815260206004820152601c60248201527f4e6f207265636f6d6d656e646174696f6e7320617661696c61626c650000000060448201526064015b60405180910390fd5b6002546040516302d78b7560e41b81526000916001600160a01b031690632d78b7509061071490859060040161375f565b600060405180830381865afa158015610731573d6000803e3d6000fd5b505050506040513d6000823e601f3d908101601f191682016040526107599190810190613ad0565b905080600d6000876001600160a01b03166001600160a01b03168152602001908152602001600020808054806020026020016040519081016040528092919081815260200182805480156107cc57602002820191906000526020600020905b8154815260200190600101908083116107b8575b50505050509050935093505050915091565b600680546107eb9061390e565b80601f01602080910402602001604051908101604052809291908181526020018280546108179061390e565b80156108645780601f1061083957610100808354040283529160200191610864565b820191906000526020600020905b81548152906001019060200180831161084757829003601f168201915b505050505081565b600480546107eb9061390e565b610881611807565b6001600160a01b03919091166000908152600f60205260409020805460ff1916911515919091179055565b600580546107eb9061390e565b6060600480546108c89061390e565b80601f01602080910402602001604051908101604052809291908181526020018280546108f49061390e565b80156109415780601f1061091657610100808354040283529160200191610941565b820191906000526020600020905b81548152906001019060200180831161092457829003601f168201915b5050505050905090565b6001600160a01b0381166000908152600b60209081526040918290208054835181840281018401909452808452606093928301828280156109ab57602002820191906000526020600020905b815481526020019060010190808311610997575b50505050509050919050565b6009602052600090815260409020805481906109d29061390e565b80601f01602080910402602001604051908101604052809291908181526020018280546109fe9061390e565b8015610a4b5780601f10610a2057610100808354040283529160200191610a4b565b820191906000526020600020905b815481529060010190602001808311610a2e57829003601f168201915b505050505090806001018054610a609061390e565b80601f0160208091040260200160405190810160405280929190818152602001828054610a8c9061390e565b8015610ad95780601f10610aae57610100808354040283529160200191610ad9565b820191906000526020600020905b815481529060010190602001808311610abc57829003601f168201915b505050505090806002018054610aee9061390e565b80601f0160208091040260200160405190810160405280929190818152602001828054610b1a9061390e565b8015610b675780601f10610b3c57610100808354040283529160200191610b67565b820191906000526020600020905b815481529060010190602001808311610b4a57829003601f168201915b505050505090806003018054610b7c9061390e565b80601f0160208091040260200160405190810160405280929190818152602001828054610ba89061390e565b8015610bf55780601f10610bca57610100808354040283529160200191610bf5565b820191906000526020600020905b815481529060010190602001808311610bd857829003601f168201915b505050505090806004018054610c0a9061390e565b80601f0160208091040260200160405190810160405280929190818152602001828054610c369061390e565b8015610c835780601f10610c5857610100808354040283529160200191610c83565b820191906000526020600020905b815481529060010190602001808311610c6657829003601f168201915b50505050600583015460069093015491929160ff16905087565b6001546001600160a01b03163314610cf05760405162461bcd60e51b815260206004820152601660248201527526bab9ba10313290383937b837b9b2b21037bbb732b960511b60448201526064016106da565b60008054336001600160a01b0319808316821784556001805490911690556040516001600160a01b0390921692909183917f8be0079c531659141344cd1fd0a4f28419497f9722a3daafe3b4186f6b6457e091a350565b600b6020528160005260406000208181548110610d6357600080fd5b90600052602060002001600091509150505481565b6001600160a01b03821660009081526009602052604090206006015460609060ff16610ddc5760405162461bcd60e51b81526020600482015260136024820152724e6f207573657220707265666572656e63657360681b60448201526064016106da565b6002546040805163136c104b60e21b815290516000926001600160a01b031691634db0412c91600480830192869291908290030181865afa158015610e25573d6000803e3d6000fd5b505050506040513d6000823e601f3d908101601f19168201604052610e4d9190810190613cb6565b90506000836001600160401b03811115610e6957610e69613239565b604051908082528060200260200182016040528015610e92578160200160208202803683370190505b5090506000805b835181108015610ea857508582105b15610fc55760025484516000916001600160a01b031690638f38cc7b90879085908110610ed757610ed7613d59565b60200260200101516040518263ffffffff1660e01b8152600401610efb9190613618565b600060405180830381865afa158015610f18573d6000803e3d6000fd5b505050506040513d6000823e601f3d908101601f19168201604052610f409190810190613d6f565b905060005b815181108015610f5457508784105b15610fb057818181518110610f6b57610f6b613d59565b6020026020010151858581518110610f8557610f85613d59565b602090810291909101015283610f9a81613e0a565b9450508080610fa890613e0a565b915050610f45565b50508080610fbd90613e0a565b915050610e99565b506000816001600160401b03811115610fe057610fe0613239565b604051908082528060200260200182016040528015611009578160200160208202803683370190505b50905060005b828110156110605783818151811061102957611029613d59565b602002602001015182828151811061104357611043613d59565b60209081029190910101528061105881613e0a565b91505061100f565b5093505050505b92915050565b6040805160e081018252868152602080820187905281830186905260608201859052608082018490524260a0830152600160c0830152336000908152600990915291909120815181906110c0908261398e565b50602082015160018201906110d5908261398e565b50604082015160028201906110ea908261398e565b50606082015160038201906110ff908261398e565b5060808201516004820190611114908261398e565b5060a0820151600582015560c0909101516006909101805460ff191691151591909117905560405133907fa01881d001664fd251e45a0bfe473023eb37a1b53977af1962ef6b70cf720eca9061116b908890613618565b60405180910390a26111b26040518060400160405280601881526020017f507265666572656e636573207570646174656420666f723a000000000000000081525033611af5565b5050505050565b600d6020528160005260406000208181548110610d6357600080fd5b600a6020526000908152604090208054600182015460028301546003840180546001600160a01b03851695600160a01b90950460ff169491906112179061390e565b80601f01602080910402602001604051908101604052809291908181526020018280546112439061390e565b80156112905780601f1061126557610100808354040283529160200191611290565b820191906000526020600020905b81548152906001019060200180831161127357829003601f168201915b5050505050905085565b6060600580546108c89061390e565b6112b1611807565b60066112bd828261398e565b5050565b6001600160a01b0381166000908152600c60209081526040808320600d8352818420600e84528285205482548451818702810187019095528085526060968796909591859183018282801561133557602002820191906000526020600020905b815481526020019060010190808311611321575b505050505092508180548060200260200160405190810160405280929190818152602001828054801561138757602002820191906000526020600020905b815481526020019060010190808311611373575b505050505091509250925092509193909250565b6113a3611807565b600280546001600160a01b0319166001600160a01b0392909216919091179055565b3360009081526009602052604081206006015460ff166114275760405162461bcd60e51b815260206004820152601760248201527f4e6f207573657220707265666572656e6365732073657400000000000000000060448201526064016106da565b600082118015611438575060148211155b61147a5760405162461bcd60e51b8152602060048201526013602482015272496e76616c6964206d617820726573756c747360681b60448201526064016106da565b600061148533611b3a565b90506000611491611eb0565b90506114d46040805160e0810190915280600081526020016000815260200160008152602001606081526020016060815260200160608152602001606081525090565b611571600680546114e49061390e565b80601f01602080910402602001604051908101604052809291908181526020018280546115109061390e565b801561155d5780601f106115325761010080835404028352916020019161155d565b820191906000526020600020905b81548152906001019060200180831161154057829003601f168201915b50505050508261200690919063ffffffff16565b60408051600380825260808201909252600091816020015b606081526020019060019003908161158957905050905083816000815181106115b4576115b4613d59565b602002602001018190525082816001815181106115d3576115d3613d59565b60200260200101819052506115e786612013565b816002815181106115fa576115fa613d59565b602090810291909101015261160f828261213e565b61163f61161b83612168565b6007546008546001600160401b03821691600160401b900463ffffffff1690612440565b60038181556040805160a081018252338152600060208083018281528385018d81524260608601908152608086018d8152988552600a909352949092208351815493511515600160a01b026001600160a81b03199094166001600160a01b0391909116179290921782559251600182015591516002830155925190918201906116c8908261398e565b5050336000818152600b6020908152604080832060038054825460018101845592865293909420019190915590549051919250907fe68fbecf1ea30ea239e55346bcb3132dd0c026c3bf73ea7b704f6ca9c8278ad79061172b9088908b90613e23565b60405180910390a36117726040518060400160405280601d81526020017f5265636f6d6d656e646174696f6e2072657175657374656420666f723a00000081525033611af5565b6117a96040518060400160405280600b81526020016a2932b8bab2b9ba1024a21d60a91b8152506117a4600354612512565b6126df565b5050600354949350505050565b6117be611807565b6117c781612724565b50565b600c6020528160005260406000208181548110610d6357600080fd5b60006a636f6e736f6c652e6c6f679050600080835160208501845afa505050565b6000546001600160a01b0316331461185a5760405162461bcd60e51b815260206004820152601660248201527527b7363c9031b0b63630b1363290313c9037bbb732b960511b60448201526064016106da565b565b6117c7816040516024016118709190613618565b60408051601f198184030181529190526020810180516001600160e01b031663104c13eb60e21b1790526127cd565b6112bd82826040516024016118b5929190613e23565b60408051601f198184030181529190526020810180516001600160e01b0316632d839cb360e21b1790526127cd565b80511561192f5760056118f7828261398e565b5061192a6040518060400160405280601081526020016f233ab731ba34b7b7399032b93937b91d60811b815250826126df565b505050565b600461193b838261398e565b50600080611948846127d6565b6000878152600a602052604090208054929450909250906001600160a01b03166119a65760405162461bcd60e51b815260206004820152600f60248201526e125b9d985b1a59081c995c5d595cdd608a1b60448201526064016106da565b80546001600160a01b03166000908152600c6020908152604090912084516119d0928601906131a4565b5080546001600160a01b03166000908152600d6020908152604090912083516119fb928501906131a4565b5080546001600160a01b039081166000908152600e602052604090819020429055825460ff60a01b198116600160a01b178455905191169087907fe4ad7ce0438a8a7a64bef7b2b1e61adc9564351e05992329f1f1acc59485e35090611a649087908790613e45565b60405180910390a360408051808201909152601e81527f5265636f6d6d656e646174696f6e732066756c66696c6c656420666f723a000060208201528154611ab591906001600160a01b0316611af5565b611aed60405180604001604052806015815260200174283937b23ab1ba39903932b1b7b6b6b2b73232b21d60591b815250845161189f565b505050505050565b6112bd8282604051602401611b0b929190613e73565b60408051601f198184030181529190526020810180516001600160e01b031663319af33360e01b1790526127cd565b6001600160a01b038116600090815260096020526040808220815160e08101909252805460609392919082908290611b719061390e565b80601f0160208091040260200160405190810160405280929190818152602001828054611b9d9061390e565b8015611bea5780601f10611bbf57610100808354040283529160200191611bea565b820191906000526020600020905b815481529060010190602001808311611bcd57829003601f168201915b50505050508152602001600182018054611c039061390e565b80601f0160208091040260200160405190810160405280929190818152602001828054611c2f9061390e565b8015611c7c5780601f10611c5157610100808354040283529160200191611c7c565b820191906000526020600020905b815481529060010190602001808311611c5f57829003601f168201915b50505050508152602001600282018054611c959061390e565b80601f0160208091040260200160405190810160405280929190818152602001828054611cc19061390e565b8015611d0e5780601f10611ce357610100808354040283529160200191611d0e565b820191906000526020600020905b815481529060010190602001808311611cf157829003601f168201915b50505050508152602001600382018054611d279061390e565b80601f0160208091040260200160405190810160405280929190818152602001828054611d539061390e565b8015611da05780601f10611d7557610100808354040283529160200191611da0565b820191906000526020600020905b815481529060010190602001808311611d8357829003601f168201915b50505050508152602001600482018054611db99061390e565b80601f0160208091040260200160405190810160405280929190818152602001828054611de59061390e565b8015611e325780601f10611e0757610100808354040283529160200191611e32565b820191906000526020600020905b815481529060010190602001808311611e1557829003601f168201915b50505050508152602001600582015481526020016006820160009054906101000a900460ff161515151581525050905080600001518160200151826040015183606001518460800151611e8488612ad5565b604051602001611e9996959493929190613eb9565b604051602081830303815290604052915050919050565b60606000600260009054906101000a90046001600160a01b03166001600160a01b0316634db0412c6040518163ffffffff1660e01b8152600401600060405180830381865afa158015611f07573d6000803e3d6000fd5b505050506040513d6000823e601f3d908101601f19168201604052611f2f9190810190613cb6565b60408051808201909152600f81526e7b2263617465676f72696573223a5b60881b602082015290915060005b8251811015611fdd578015611f8d5781604051602001611f7b9190613ff0565b60405160208183030381529060405291505b81838281518110611fa057611fa0613d59565b6020026020010151604051602001611fb9929190614015565b60405160208183030381529060405291508080611fd590613e0a565b915050611f5b565b5080604051602001611fef919061405b565b60408051601f198184030181529190529392505050565b6112bd8260008084612cb7565b60608160000361203a5750506040805180820190915260018152600360fc1b602082015290565b8160005b8115612064578061204e81613e0a565b915061205d9050600a83614097565b915061203e565b6000816001600160401b0381111561207e5761207e613239565b6040519080825280601f01601f1916602001820160405280156120a8576020820181803683370190505b509050815b8515612135576120be6001826140ab565b905060006120cd600a88614097565b6120d890600a6140be565b6120e290886140ab565b6120ed9060306140d5565b905060008160f81b90508084848151811061210a5761210a613d59565b60200101906001600160f81b031916908160001a90535061212c600a89614097565b975050506120ad565b50949350505050565b80516000036121605760405163fe936cb760e01b815260040160405180910390fd5b60a090910152565b60606000612177610100612d35565b90506121b06040518060400160405280600c81526020016b31b7b232a637b1b0ba34b7b760a11b81525082612d5690919063ffffffff16565b82516121ce9060028111156121c7576121c76140ee565b8290612d6f565b6040805180820190915260088152676c616e677561676560c01b60208201526121f8908290612d56565b604083015161220f9080156121c7576121c76140ee565b604080518082019091526006815265736f7572636560d01b6020820152612237908290612d56565b6060830151612247908290612d56565b60a083015151156122db576040805180820190915260048152636172677360e01b6020820152612278908290612d56565b61228181612da8565b60005b8360a00151518110156122d1576122c18460a0015182815181106122aa576122aa613d59565b602002602001015183612d5690919063ffffffff16565b6122ca81613e0a565b9050612284565b506122db81612dcc565b6080830151511561239f576000836020015160028111156122fe576122fe6140ee565b0361231c5760405163a80d31f760e01b815260040160405180910390fd5b60408051808201909152600f81526e39b2b1b932ba39a637b1b0ba34b7b760891b602082015261234d908290612d56565b612366836020015160028111156121c7576121c76140ee565b6040805180820190915260078152667365637265747360c81b602082015261238f908290612d56565b608083015161239f908290612dea565b60c083015151156124385760408051808201909152600981526862797465734172677360b81b60208201526123d5908290612d56565b6123de81612da8565b60005b8360c001515181101561242e5761241e8460c00151828151811061240757612407613d59565b602002602001015183612dea90919063ffffffff16565b61242781613e0a565b90506123e1565b5061243881612dcc565b515192915050565b6000807f00000000000000000000000000000000000000000000000000000000000000006001600160a01b031663461d27628688600188886040518663ffffffff1660e01b8152600401612498959493929190614104565b6020604051808303816000875af11580156124b7573d6000803e3d6000fd5b505050506040513d601f19601f820116820180604052508101906124db919061414d565b60405190915081907f1131472297a800fee664d1d89cfa8f7676ff07189ecc53f80bbb5f4969099db890600090a295945050505050565b604080518082018252601081526f181899199a1a9b1b9c1cb0b131b232b360811b6020820152815160428082526080820190935260609260009190602082018180368337019050509050600360fc1b8160008151811061257457612574613d59565b60200101906001600160f81b031916908160001a905350600f60fb1b816001815181106125a3576125a3613d59565b60200101906001600160f81b031916908160001a90535060005b60208110156126d7578260048683602081106125db576125db613d59565b1a60f81b6001600160f81b031916901c60f81c60ff168151811061260157612601613d59565b01602001516001600160f81b0319168261261c8360026140be565b612627906002614166565b8151811061263757612637613d59565b60200101906001600160f81b031916908160001a9053508285826020811061266157612661613d59565b825191901a600f1690811061267857612678613d59565b01602001516001600160f81b031916826126938360026140be565b61269e906003614166565b815181106126ae576126ae613d59565b60200101906001600160f81b031916908160001a905350806126cf81613e0a565b9150506125bd565b509392505050565b6112bd82826040516024016126f5929190614179565b60408051601f198184030181529190526020810180516001600160e01b0316634b5c427760e01b1790526127cd565b336001600160a01b0382160361277c5760405162461bcd60e51b815260206004820152601760248201527f43616e6e6f74207472616e7366657220746f2073656c6600000000000000000060448201526064016106da565b600180546001600160a01b0319166001600160a01b0383811691821790925560008054604051929316917fed8889f560326eb138920d842192f0eb3dd22b4f139c87a2c57538e05bae12789190a350565b6117c7816117e6565b606080600083905080516000036128f55760408051600380825260808201909252906020820160608036833750506040805160038082526080820190925292955090506020820160608036833701905050915060018360008151811061283e5761283e613d59565b60200260200101818152505060028360018151811061285f5761285f613d59565b60200260200101818152505060038360028151811061288057612880613d59565b602002602001018181525050605f826000815181106128a1576128a1613d59565b6020026020010181815250506057826001815181106128c2576128c2613d59565b6020026020010181815250506052826002815181106128e3576128e3613d59565b60200260200101818152505050915091565b806000805b825181101561294e5782818151811061291557612915613d59565b01602001516001600160f81b031916600b60fa1b0361293c578161293881613e0a565b9250505b8061294681613e0a565b9150506128fa565b506000600261295e836001614166565b6129689190614097565b9050806001600160401b0381111561298257612982613239565b6040519080825280602002602001820160405280156129ab578160200160208202803683370190505b509550806001600160401b038111156129c6576129c6613239565b6040519080825280602002602001820160405280156129ef578160200160208202803683370190505b509450600186600081518110612a0757612a07613d59565b602002602001018181525050605f85600081518110612a2857612a28613d59565b6020026020010181815250506001811115612a8057600286600181518110612a5257612a52613d59565b602002602001018181525050605785600181518110612a7357612a73613d59565b6020026020010181815250505b6002811115612acc57600386600281518110612a9e57612a9e613d59565b602002602001018181525050605285600281518110612abf57612abf613d59565b6020026020010181815250505b50505050915091565b604080518082018252601081526f181899199a1a9b1b9c1cb0b131b232b360811b60208201528151602a80825260608281019094526001600160a01b0385169291600091602082018180368337019050509050600360fc1b81600081518110612b4057612b40613d59565b60200101906001600160f81b031916908160001a905350600f60fb1b81600181518110612b6f57612b6f613d59565b60200101906001600160f81b031916908160001a90535060005b60148110156121355782600485612ba184600c614166565b60208110612bb157612bb1613d59565b1a60f81b6001600160f81b031916901c60f81c60ff1681518110612bd757612bd7613d59565b01602001516001600160f81b03191682612bf28360026140be565b612bfd906002614166565b81518110612c0d57612c0d613d59565b60200101906001600160f81b031916908160001a9053508284612c3183600c614166565b60208110612c4157612c41613d59565b825191901a600f16908110612c5857612c58613d59565b01602001516001600160f81b03191682612c738360026140be565b612c7e906003614166565b81518110612c8e57612c8e613d59565b60200101906001600160f81b031916908160001a90535080612caf81613e0a565b915050612b89565b8051600003612cd9576040516322ce3edd60e01b815260040160405180910390fd5b83836002811115612cec57612cec6140ee565b90816002811115612cff57612cff6140ee565b90525060408401828015612d1557612d156140ee565b90818015612d2557612d256140ee565b9052506060909301929092525050565b612d3d6131ef565b8051612d499083612df7565b5060006020820152919050565b612d638260038351612e6e565b815161192a9082612f87565b8151612d7c9060c2612faf565b506112bd8282604051602001612d9491815260200190565b604051602081830303815290604052612dea565b612db3816004613018565b600181602001818151612dc69190614166565b90525050565b612dd7816007613018565b600181602001818151612dc691906140ab565b612d638260028351612e6e565b604080518082019091526060815260006020820152612e1760208361419e565b15612e3f57612e2760208361419e565b612e329060206140ab565b612e3c9083614166565b91505b602080840183905260405180855260008152908184010181811015612e6357600080fd5b604052509192915050565b6017816001600160401b031611612e945782516105979060e0600585901b168317612faf565b60ff816001600160401b031611612ed4578251612ebc906018611fe0600586901b1617612faf565b508251610597906001600160401b038316600161302f565b61ffff816001600160401b031611612f15578251612efd906019611fe0600586901b1617612faf565b508251610597906001600160401b038316600261302f565b63ffffffff816001600160401b031611612f58578251612f4090601a611fe0600586901b1617612faf565b508251610597906001600160401b038316600461302f565b8251612f6f90601b611fe0600586901b1617612faf565b508251610597906001600160401b038316600861302f565b604080518082019091526060815260006020820152612fa8838384516130b4565b9392505050565b6040805180820190915260608152600060208201528251516000612fd4826001614166565b905084602001518210612ff557612ff585612ff08360026140be565b613185565b845160208382010185815350805182111561300e578181525b5093949350505050565b815161192a90601f611fe0600585901b1617612faf565b60408051808201909152606081526000602082015283515160006130538285614166565b905085602001518111156130705761307086612ff08360026140be565b6000600161308086610100614296565b61308a91906140ab565b905086518281018783198251161781525080518311156130a8578281525b50959695505050505050565b60408051808201909152606081526000602082015282518211156130d757600080fd5b83515160006130e68483614166565b905085602001518111156131035761310386612ff08360026140be565b85518051838201602001916000918085111561311d578482525b505050602086015b6020861061315d578051825261313c602083614166565b9150613149602082614166565b90506131566020876140ab565b9550613125565b51815160001960208890036101000a0190811690199190911617905250849150509392505050565b81516131918383612df7565b506105978382612f87565b61185a6142a2565b8280548282559060005260206000209081019282156131df579160200282015b828111156131df5782518255916020019190600101906131c4565b506131eb929150613224565b5090565b6040518060400160405280613217604051806040016040528060608152602001600081525090565b8152602001600081525090565b5b808211156131eb5760008155600101613225565b634e487b7160e01b600052604160045260246000fd5b6040516101a081016001600160401b038111828210171561327257613272613239565b60405290565b604051601f8201601f191681016001600160401b03811182821017156132a0576132a0613239565b604052919050565b60006001600160401b038211156132c1576132c1613239565b50601f01601f191660200190565b600082601f8301126132e057600080fd5b81356132f36132ee826132a8565b613278565b81815284602083860101111561330857600080fd5b816020850160208301376000918101602001919091529392505050565b6000806000806080858703121561333b57600080fd5b84356001600160401b038082111561335257600080fd5b61335e888389016132cf565b955060208701359150808216821461337557600080fd5b509250604085013563ffffffff8116811461338f57600080fd5b9396929550929360600135925050565b6000806000606084860312156133b457600080fd5b8335925060208401356001600160401b03808211156133d257600080fd5b6133de878388016132cf565b935060408601359150808211156133f457600080fd5b50613401868287016132cf565b9150509250925092565b6001600160a01b03811681146117c757600080fd5b60006020828403121561343257600080fd5b8135612fa88161340b565b60005b83811015613458578181015183820152602001613440565b50506000910152565b6000815180845261347981602086016020860161343d565b601f01601f19169290920160200192915050565b600081518084526020808501945080840160005b838110156134bd578151875295820195908201906001016134a1565b509495945050505050565b60006040808301818452808651808352606092508286019150828160051b8701016020808a0160005b848110156135f857898403605f190186528151805185528381015184860152888101518986015287810151888601526080808201519086015260a0808201519086015260c0808201516001600160a01b03169086015260e080820151151590860152610100808201516101a0828801819052919061357183890182613461565b92505050610120808301518783038289015261358d8382613461565b9250505061014080830151878303828901526135a98382613461565b9250505061016080830151878303828901526135c58382613461565b9250505061018080830151925086820381880152506135e48183613461565b9785019795505050908201906001016134f1565b50508782039088015261360b818961348d565b9998505050505050505050565b602081526000612fa86020830184613461565b80151581146117c757600080fd5b6000806040838503121561364c57600080fd5b82356136578161340b565b915060208301356136678161362b565b809150509250929050565b6020808252825182820181905260009190848201906040850190845b818110156136aa5783518352928401929184019160010161368e565b50909695505050505050565b60e0815260006136c960e083018a613461565b82810360208401526136db818a613461565b905082810360408401526136ef8189613461565b905082810360608401526137038188613461565b905082810360808401526137178187613461565b60a0840195909552505090151560c09091015295945050505050565b6000806040838503121561374657600080fd5b82356137518161340b565b946020939093013593505050565b602081526000612fa8602083018461348d565b600080600080600060a0868803121561378a57600080fd5b85356001600160401b03808211156137a157600080fd5b6137ad89838a016132cf565b965060208801359150808211156137c357600080fd5b6137cf89838a016132cf565b955060408801359150808211156137e557600080fd5b6137f189838a016132cf565b9450606088013591508082111561380757600080fd5b61381389838a016132cf565b9350608088013591508082111561382957600080fd5b50613836888289016132cf565b9150509295509295909350565b60006020828403121561385557600080fd5b5035919050565b60018060a01b0386168152841515602082015283604082015282606082015260a06080820152600061389160a0830184613461565b979650505050505050565b6000602082840312156138ae57600080fd5b81356001600160401b038111156138c457600080fd5b6138d0848285016132cf565b949350505050565b6060815260006138eb606083018661348d565b82810360208401526138fd818661348d565b915050826040830152949350505050565b600181811c9082168061392257607f821691505b60208210810361394257634e487b7160e01b600052602260045260246000fd5b50919050565b601f82111561192a57600081815260208120601f850160051c8101602086101561396f5750805b601f850160051c820191505b81811015611aed5782815560010161397b565b81516001600160401b038111156139a7576139a7613239565b6139bb816139b5845461390e565b84613948565b602080601f8311600181146139f057600084156139d85750858301515b600019600386901b1c1916600185901b178555611aed565b600085815260208120601f198616915b82811015613a1f57888601518255948401946001909101908401613a00565b5085821015613a3d5787850151600019600388901b60f8161c191681555b5050505050600190811b01905550565b60006001600160401b03821115613a6657613a66613239565b5060051b60200190565b8051613a7b8161340b565b919050565b8051613a7b8161362b565b600082601f830112613a9c57600080fd5b8151613aaa6132ee826132a8565b818152846020838601011115613abf57600080fd5b6138d082602083016020870161343d565b60006020808385031215613ae357600080fd5b82516001600160401b0380821115613afa57600080fd5b818501915085601f830112613b0e57600080fd5b8151613b1c6132ee82613a4d565b81815260059190911b83018401908481019088831115613b3b57600080fd5b8585015b83811015613ca957805185811115613b5657600080fd5b86016101a0818c03601f19011215613b6d57600080fd5b613b7561324f565b888201518152604082015189820152606082015160408201526080820151606082015260a0820151608082015260c082015160a0820152613bb860e08301613a70565b60c0820152610100613bcb818401613a80565b60e08301526101208084015189811115613be457600080fd5b613bf28f8d83880101613a8b565b838501525061014091508184015189811115613c0d57600080fd5b613c1b8f8d83880101613a8b565b8285015250506101608084015189811115613c3557600080fd5b613c438f8d83880101613a8b565b838501525061018091508184015189811115613c5e57600080fd5b613c6c8f8d83880101613a8b565b8285015250506101a083015188811115613c8557600080fd5b613c938e8c83870101613a8b565b9183019190915250845250918601918601613b3f565b5098975050505050505050565b60006020808385031215613cc957600080fd5b82516001600160401b0380821115613ce057600080fd5b818501915085601f830112613cf457600080fd5b8151613d026132ee82613a4d565b81815260059190911b83018401908481019088831115613d2157600080fd5b8585015b83811015613ca957805185811115613d3d5760008081fd5b613d4b8b89838a0101613a8b565b845250918601918601613d25565b634e487b7160e01b600052603260045260246000fd5b60006020808385031215613d8257600080fd5b82516001600160401b03811115613d9857600080fd5b8301601f81018513613da957600080fd5b8051613db76132ee82613a4d565b81815260059190911b82018301908381019087831115613dd657600080fd5b928401925b8284101561389157835182529284019290840190613ddb565b634e487b7160e01b600052601160045260246000fd5b600060018201613e1c57613e1c613df4565b5060010190565b604081526000613e366040830185613461565b90508260208301529392505050565b604081526000613e58604083018561348d565b8281036020840152613e6a818561348d565b95945050505050565b604081526000613e866040830185613461565b905060018060a01b03831660208301529392505050565b60008151613eaf81856020860161343d565b9290920192915050565b6e3d9131b0ba32b3b7b934b2b9911d1160891b81528651600090613ee481600f850160208c0161343d565b61088b60f21b600f9184019182018190526d11383934b1b2a930b733b2911d1160911b60118301528851613f1f81601f850160208d0161343d565b601f9201918201819052711139bab9ba30b4b730b134b634ba3c911d1160711b60218301528751613f57816033850160208c0161343d565b603392019182015261360b613fe2613fdc613fc6613f97613fc0613fa582613f9160358a016811313930b732111d1160b91b815260090190565b8e613e9d565b61088b60f21b815260020190565b6e1131bab9ba37b6a83932b339911d1160891b8152600f0190565b8a613e9d565b69113bb0b63632ba111d1160b11b8152600a0190565b86613e9d565b61227d60f01b815260020190565b6000825161400281846020870161343d565b600b60fa1b920191825250600101919050565b6000835161402781846020880161343d565b601160f91b908301818152845190919061404881600185016020890161343d565b6001920191820152600201949350505050565b6000825161406d81846020870161343d565b615d7d60f01b920191825250600201919050565b634e487b7160e01b600052601260045260246000fd5b6000826140a6576140a6614081565b500490565b8181038181111561106757611067613df4565b808202811582820484141761106757611067613df4565b60ff818116838216019081111561106757611067613df4565b634e487b7160e01b600052602160045260246000fd5b6001600160401b038616815260a06020820152600061412660a0830187613461565b61ffff9590951660408301525063ffffffff92909216606083015260809091015292915050565b60006020828403121561415f57600080fd5b5051919050565b8082018082111561106757611067613df4565b60408152600061418c6040830185613461565b8281036020840152613e6a8185613461565b6000826141ad576141ad614081565b500690565b600181815b808511156141ed5781600019048211156141d3576141d3613df4565b808516156141e057918102915b93841c93908002906141b7565b509250929050565b60008261420457506001611067565b8161421157506000611067565b816001811461422757600281146142315761424d565b6001915050611067565b60ff84111561424257614242613df4565b50506001821b611067565b5060208310610133831016604e8410600b8410161715614270575081810a611067565b61427a83836141b2565b806000190482111561428e5761428e613df4565b029392505050565b6000612fa883836141f5565b634e487b7160e01b600052605160045260246000fdfea264697066735822122044adea19e0ee2359fd0e60d9f5374c1e076bc74b770af31055c9a18719f8da2164736f6c63430008140033",
  "devdoc": {
    "author": "AI Marketplace Team",
    "details": "Chainlink Functions integration for AI-powered product recommendations",
    "kind": "dev",
    "methods": {
      "getBasicRecommendations(address,uint256)": {
        "details": "Emergency function to get recommendations without AI (fallback)"
      },
      "getDetailedRecommendations(address)": {
        "details": "Get detailed recommendations with product info"
      },
      "getLatestRecommendations(address)": {
        "details": "Get user's latest recommendations"
      },
      "handleOracleFulfillment(bytes32,bytes,bytes)": {
        "details": "Either response or error parameter will be set, but never both.",
        "params": {
          "err": "Aggregated error either from the request's source code or from the execution pipeline.",
          "requestId": "The requestId returned by FunctionsClient.sendRequest().",
          "response": "Aggregated response from the request's source code."
        }
      },
      "initializeFunctions(string,uint64,uint32,bytes32)": {
        "details": "Initialize Chainlink Functions configuration"
      },
      "requestRecommendations(uint256)": {
        "details": "Request AI-powered product recommendations"
      },
      "setUserPreferences(string,string,string,string,string)": {
        "details": "Set or update user AI preferences"
      }
    },
    "title": "AIRecommendations",
    "version": 1
  },
  "userdoc": {
    "kind": "user",
    "methods": {
      "acceptOwnership()": {
        "notice": "Allows an ownership transfer to be completed by the recipient."
      },
      "handleOracleFulfillment(bytes32,bytes,bytes)": {
        "notice": "Chainlink Functions response handler called by the Functions Router during fullilment from the designated transmitter node in an OCR round."
      },
      "owner()": {
        "notice": "Get the current owner"
      },
      "transferOwnership(address)": {
        "notice": "Allows an owner to begin transferring ownership to a new address."
      }
    },
    "version": 1
  },
  "storageLayout": {
    "storage": [
      {
        "astId": 816,
        "contract": "contracts/core/AIRecommendations.sol:AIRecommendations",
        "label": "s_owner",
        "offset": 0,
        "slot": "0",
        "type": "t_address"
      },
      {
        "astId": 818,
        "contract": "contracts/core/AIRecommendations.sol:AIRecommendations",
        "label": "s_pendingOwner",
        "offset": 0,
        "slot": "1",
        "type": "t_address"
      },
      {
        "astId": 2422,
        "contract": "contracts/core/AIRecommendations.sol:AIRecommendations",
        "label": "productRegistry",
        "offset": 0,
        "slot": "2",
        "type": "t_contract(IProductRegistry)2356"
      },
      {
        "astId": 2424,
        "contract": "contracts/core/AIRecommendations.sol:AIRecommendations",
        "label": "s_lastRequestId",
        "offset": 0,
        "slot": "3",
        "type": "t_bytes32"
      },
      {
        "astId": 2426,
        "contract": "contracts/core/AIRecommendations.sol:AIRecommendations",
        "label": "s_lastResponse",
        "offset": 0,
        "slot": "4",
        "type": "t_bytes_storage"
      },
      {
        "astId": 2428,
        "contract": "contracts/core/AIRecommendations.sol:AIRecommendations",
        "label": "s_lastError",
        "offset": 0,
        "slot": "5",
        "type": "t_bytes_storage"
      },
      {
        "astId": 2430,
        "contract": "contracts/core/AIRecommendations.sol:AIRecommendations",
        "label": "sourceCode",
        "offset": 0,
        "slot": "6",
        "type": "t_string_storage"
      },
      {
        "astId": 2432,
        "contract": "contracts/core/AIRecommendations.sol:AIRecommendations",
        "label": "subscriptionId",
        "offset": 0,
        "slot": "7",
        "type": "t_uint64"
      },
      {
        "astId": 2434,
        "contract": "contracts/core/AIRecommendations.sol:AIRecommendations",
        "label": "gasLimit",
        "offset": 8,
        "slot": "7",
        "type": "t_uint32"
      },
      {
        "astId": 2436,
        "contract": "contracts/core/AIRecommendations.sol:AIRecommendations",
        "label": "donID",
        "offset": 0,
        "slot": "8",
        "type": "t_bytes32"
      },
      {
        "astId": 2441,
        "contract": "contracts/core/AIRecommendations.sol:AIRecommendations",
        "label": "userPreferences",
        "offset": 0,
        "slot": "9",
        "type": "t_mapping(t_address,t_struct(UserPreferences)2408_storage)"
      },
      {
        "astId": 2446,
        "contract": "contracts/core/AIRecommendations.sol:AIRecommendations",
        "label": "requests",
        "offset": 0,
        "slot": "10",
        "type": "t_mapping(t_bytes32,t_struct(RecommendationRequest)2419_storage)"
      },
      {
        "astId": 2451,
        "contract": "contracts/core/AIRecommendations.sol:AIRecommendations",
        "label": "userRequestHistory",
        "offset": 0,
        "slot": "11",
        "type": "t_mapping(t_address,t_array(t_bytes32)dyn_storage)"
      },
      {
        "astId": 2456,
        "contract": "contracts/core/AIRecommendations.sol:AIRecommendations",
        "label": "latestRecommendations",
        "offset": 0,
        "slot": "12",
        "type": "t_mapping(t_address,t_array(t_uint256)dyn_storage)"
      },
      {
        "astId": 2461,
        "contract": "contracts/core/AIRecommendations.sol:AIRecommendations",
        "label": "latestScores",
        "offset": 0,
        "slot": "13",
        "type": "t_mapping(t_address,t_array(t_uint256)dyn_storage)"
      },
      {
        "astId": 2465,
        "contract": "contracts/core/AIRecommendations.sol:AIRecommendations",
        "label": "lastRecommendationTime",
        "offset": 0,
        "slot": "14",
        "type": "t_mapping(t_address,t_uint256)"
      },
      {
        "astId": 2469,
        "contract": "contracts/core/AIRecommendations.sol:AIRecommendations",
        "label": "authorizedCallers",
        "offset": 0,
        "slot": "15",
        "type": "t_mapping(t_address,t_bool)"
      }
    ],
    "types": {
      "t_address": {
        "encoding": "inplace",
        "label": "address",
        "numberOfBytes": "20"
      },
      "t_array(t_bytes32)dyn_storage": {
        "base": "t_bytes32",
        "encoding": "dynamic_array",
        "label": "bytes32[]",
        "numberOfBytes": "32"
      },
      "t_array(t_uint256)dyn_storage": {
        "base": "t_uint256",
        "encoding": "dynamic_array",
        "label": "uint256[]",
        "numberOfBytes": "32"
      },
      "t_bool": {
        "encoding": "inplace",
        "label": "bool",
        "numberOfBytes": "1"
      },
      "t_bytes32": {
        "encoding": "inplace",
        "label": "bytes32",
        "numberOfBytes": "32"
      },
      "t_bytes_storage": {
        "encoding": "bytes",
        "label": "bytes",
        "numberOfBytes": "32"
      },
      "t_contract(IProductRegistry)2356": {
        "encoding": "inplace",
        "label": "contract IProductRegistry",
        "numberOfBytes": "20"
      },
      "t_mapping(t_address,t_array(t_bytes32)dyn_storage)": {
        "encoding": "mapping",
        "key": "t_address",
        "label": "mapping(address => bytes32[])",
        "numberOfBytes": "32",
        "value": "t_array(t_bytes32)dyn_storage"
      },
      "t_mapping(t_address,t_array(t_uint256)dyn_storage)": {
        "encoding": "mapping",
        "key": "t_address",
        "label": "mapping(address => uint256[])",
        "numberOfBytes": "32",
        "value": "t_array(t_uint256)dyn_storage"
      },
      "t_mapping(t_address,t_bool)": {
        "encoding": "mapping",
        "key": "t_address",
        "label": "mapping(address => bool)",
        "numberOfBytes": "32",
        "value": "t_bool"
      },
      "t_mapping(t_address,t_struct(UserPreferences)2408_storage)": {
        "encoding": "mapping",
        "key": "t_address",
        "label": "mapping(address => struct AIRecommendations.UserPreferences)",
        "numberOfBytes": "32",
        "value": "t_struct(UserPreferences)2408_storage"
      },
      "t_mapping(t_address,t_uint256)": {
        "encoding": "mapping",
        "key": "t_address",
        "label": "mapping(address => uint256)",
        "numberOfBytes": "32",
        "value": "t_uint256"
      },
      "t_mapping(t_bytes32,t_struct(RecommendationRequest)2419_storage)": {
        "encoding": "mapping",
        "key": "t_bytes32",
        "label": "mapping(bytes32 => struct AIRecommendations.RecommendationRequest)",
        "numberOfBytes": "32",
        "value": "t_struct(RecommendationRequest)2419_storage"
      },
      "t_string_storage": {
        "encoding": "bytes",
        "label": "string",
        "numberOfBytes": "32"
      },
      "t_struct(RecommendationRequest)2419_storage": {
        "encoding": "inplace",
        "label": "struct AIRecommendations.RecommendationRequest",
        "members": [
          {
            "astId": 2410,
            "contract": "contracts/core/AIRecommendations.sol:AIRecommendations",
            "label": "user",
            "offset": 0,
            "slot": "0",
            "type": "t_address"
          },
          {
            "astId": 2412,
            "contract": "contracts/core/AIRecommendations.sol:AIRecommendations",
            "label": "fulfilled",
            "offset": 20,
            "slot": "0",
            "type": "t_bool"
          },
          {
            "astId": 2414,
            "contract": "contracts/core/AIRecommendations.sol:AIRecommendations",
            "label": "maxResults",
            "offset": 0,
            "slot": "1",
            "type": "t_uint256"
          },
          {
            "astId": 2416,
            "contract": "contracts/core/AIRecommendations.sol:AIRecommendations",
            "label": "timestamp",
            "offset": 0,
            "slot": "2",
            "type": "t_uint256"
          },
          {
            "astId": 2418,
            "contract": "contracts/core/AIRecommendations.sol:AIRecommendations",
            "label": "preferences",
            "offset": 0,
            "slot": "3",
            "type": "t_string_storage"
          }
        ],
        "numberOfBytes": "128"
      },
      "t_struct(UserPreferences)2408_storage": {
        "encoding": "inplace",
        "label": "struct AIRecommendations.UserPreferences",
        "members": [
          {
            "astId": 2395,
            "contract": "contracts/core/AIRecommendations.sol:AIRecommendations",
            "label": "categories",
            "offset": 0,
            "slot": "0",
            "type": "t_string_storage"
          },
          {
            "astId": 2397,
            "contract": "contracts/core/AIRecommendations.sol:AIRecommendations",
            "label": "priceRange",
            "offset": 0,
            "slot": "1",
            "type": "t_string_storage"
          },
          {
            "astId": 2399,
            "contract": "contracts/core/AIRecommendations.sol:AIRecommendations",
            "label": "sustainability",
            "offset": 0,
            "slot": "2",
            "type": "t_string_storage"
          },
          {
            "astId": 2401,
            "contract": "contracts/core/AIRecommendations.sol:AIRecommendations",
            "label": "brand",
            "offset": 0,
            "slot": "3",
            "type": "t_string_storage"
          },
          {
            "astId": 2403,
            "contract": "contracts/core/AIRecommendations.sol:AIRecommendations",
            "label": "customPrefs",
            "offset": 0,
            "slot": "4",
            "type": "t_string_storage"
          },
          {
            "astId": 2405,
            "contract": "contracts/core/AIRecommendations.sol:AIRecommendations",
            "label": "updatedAt",
            "offset": 0,
            "slot": "5",
            "type": "t_uint256"
          },
          {
            "astId": 2407,
            "contract": "contracts/core/AIRecommendations.sol:AIRecommendations",
            "label": "exists",
            "offset": 0,
            "slot": "6",
            "type": "t_bool"
          }
        ],
        "numberOfBytes": "224"
      },
      "t_uint256": {
        "encoding": "inplace",
        "label": "uint256",
        "numberOfBytes": "32"
      },
      "t_uint32": {
        "encoding": "inplace",
        "label": "uint32",
        "numberOfBytes": "4"
      },
      "t_uint64": {
        "encoding": "inplace",
        "label": "uint64",
        "numberOfBytes": "8"
      }
    }
  }
}